{
  "_format": "hh-sol-artifact-1",
  "contractName": "Marketplace",
  "sourceName": "contracts/Marketplace.sol",
  "abi": [
    {
      "inputs": [
        {
          "internalType": "address",
          "name": "_nativeTokenAddress",
          "type": "address"
        }
      ],
      "stateMutability": "nonpayable",
      "type": "constructor"
    },
    {
      "inputs": [],
      "name": "TransferError",
      "type": "error"
    },
    {
      "anonymous": false,
      "inputs": [
        {
          "indexed": true,
          "internalType": "address",
          "name": "owner",
          "type": "address"
        },
        {
          "indexed": true,
          "internalType": "address",
          "name": "approved",
          "type": "address"
        },
        {
          "indexed": true,
          "internalType": "uint256",
          "name": "tokenId",
          "type": "uint256"
        }
      ],
      "name": "Approval",
      "type": "event"
    },
    {
      "anonymous": false,
      "inputs": [
        {
          "indexed": true,
          "internalType": "address",
          "name": "owner",
          "type": "address"
        },
        {
          "indexed": true,
          "internalType": "address",
          "name": "operator",
          "type": "address"
        },
        {
          "indexed": false,
          "internalType": "bool",
          "name": "approved",
          "type": "bool"
        }
      ],
      "name": "ApprovalForAll",
      "type": "event"
    },
    {
      "anonymous": false,
      "inputs": [
        {
          "indexed": true,
          "internalType": "address",
          "name": "seller",
          "type": "address"
        },
        {
          "indexed": false,
          "internalType": "address",
          "name": "contractAddress",
          "type": "address"
        },
        {
          "indexed": false,
          "internalType": "uint256",
          "name": "tokenId",
          "type": "uint256"
        }
      ],
      "name": "NewMarketItem",
      "type": "event"
    },
    {
      "anonymous": false,
      "inputs": [
        {
          "indexed": true,
          "internalType": "address",
          "name": "previousOwner",
          "type": "address"
        },
        {
          "indexed": true,
          "internalType": "address",
          "name": "newOwner",
          "type": "address"
        }
      ],
      "name": "OwnershipTransferred",
      "type": "event"
    },
    {
      "anonymous": false,
      "inputs": [
        {
          "indexed": true,
          "internalType": "address",
          "name": "from",
          "type": "address"
        },
        {
          "indexed": true,
          "internalType": "address",
          "name": "to",
          "type": "address"
        },
        {
          "indexed": true,
          "internalType": "uint256",
          "name": "tokenId",
          "type": "uint256"
        }
      ],
      "name": "Transfer",
      "type": "event"
    },
    {
      "anonymous": false,
      "inputs": [
        {
          "indexed": false,
          "internalType": "uint256",
          "name": "marketItemId",
          "type": "uint256"
        },
        {
          "indexed": true,
          "internalType": "address",
          "name": "buyer",
          "type": "address"
        }
      ],
      "name": "itemSold",
      "type": "event"
    },
    {
      "inputs": [],
      "name": "MINTING_PRICE",
      "outputs": [
        {
          "internalType": "uint256",
          "name": "",
          "type": "uint256"
        }
      ],
      "stateMutability": "view",
      "type": "function"
    },
    {
      "inputs": [],
      "name": "NATIVE_TOKEN",
      "outputs": [
        {
          "internalType": "address",
          "name": "",
          "type": "address"
        }
      ],
      "stateMutability": "view",
      "type": "function"
    },
    {
      "inputs": [
        {
          "internalType": "address",
          "name": "to",
          "type": "address"
        },
        {
          "internalType": "uint256",
          "name": "tokenId",
          "type": "uint256"
        }
      ],
      "name": "approve",
      "outputs": [],
      "stateMutability": "nonpayable",
      "type": "function"
    },
    {
      "inputs": [
        {
          "internalType": "address",
          "name": "owner",
          "type": "address"
        }
      ],
      "name": "balanceOf",
      "outputs": [
        {
          "internalType": "uint256",
          "name": "",
          "type": "uint256"
        }
      ],
      "stateMutability": "view",
      "type": "function"
    },
    {
      "inputs": [
        {
          "internalType": "uint256",
          "name": "marketItemId",
          "type": "uint256"
        },
        {
          "internalType": "uint256",
          "name": "amount",
          "type": "uint256"
        }
      ],
      "name": "bid",
      "outputs": [],
      "stateMutability": "nonpayable",
      "type": "function"
    },
    {
      "inputs": [
        {
          "internalType": "uint256",
          "name": "marketItemId",
          "type": "uint256"
        }
      ],
      "name": "buy",
      "outputs": [],
      "stateMutability": "payable",
      "type": "function"
    },
    {
      "inputs": [
        {
          "internalType": "uint256",
          "name": "marketItemId",
          "type": "uint256"
        },
        {
          "internalType": "uint256",
          "name": "offerIndex",
          "type": "uint256"
        }
      ],
      "name": "closeAuction",
      "outputs": [],
      "stateMutability": "nonpayable",
      "type": "function"
    },
    {
      "inputs": [
        {
          "internalType": "uint256",
          "name": "tokenId",
          "type": "uint256"
        }
      ],
      "name": "getApproved",
      "outputs": [
        {
          "internalType": "address",
          "name": "",
          "type": "address"
        }
      ],
      "stateMutability": "view",
      "type": "function"
    },
    {
      "inputs": [
        {
          "internalType": "uint256",
          "name": "marketItemId",
          "type": "uint256"
        }
      ],
      "name": "getBids",
      "outputs": [
        {
          "components": [
            {
              "internalType": "uint256",
              "name": "bid",
              "type": "uint256"
            },
            {
              "internalType": "address",
              "name": "offeror",
              "type": "address"
            }
          ],
          "internalType": "struct Marketplace.Offer[]",
          "name": "",
          "type": "tuple[]"
        }
      ],
      "stateMutability": "view",
      "type": "function"
    },
    {
      "inputs": [],
      "name": "getMarketItems",
      "outputs": [
        {
          "components": [
            {
              "internalType": "uint256",
              "name": "itemId",
              "type": "uint256"
            },
            {
              "internalType": "address",
              "name": "seller",
              "type": "address"
            },
            {
              "internalType": "address",
              "name": "contractAddress",
              "type": "address"
            },
            {
              "internalType": "uint256",
              "name": "tokenId",
              "type": "uint256"
            },
            {
              "internalType": "uint256",
              "name": "price",
              "type": "uint256"
            },
            {
              "internalType": "bool",
              "name": "sold",
              "type": "bool"
            },
            {
              "internalType": "uint256",
              "name": "deadline",
              "type": "uint256"
            }
          ],
          "internalType": "struct Marketplace.marketItem[]",
          "name": "",
          "type": "tuple[]"
        }
      ],
      "stateMutability": "view",
      "type": "function"
    },
    {
      "inputs": [
        {
          "internalType": "address",
          "name": "owner",
          "type": "address"
        },
        {
          "internalType": "address",
          "name": "operator",
          "type": "address"
        }
      ],
      "name": "isApprovedForAll",
      "outputs": [
        {
          "internalType": "bool",
          "name": "",
          "type": "bool"
        }
      ],
      "stateMutability": "view",
      "type": "function"
    },
    {
      "inputs": [
        {
          "internalType": "string",
          "name": "uri",
          "type": "string"
        }
      ],
      "name": "mint",
      "outputs": [],
      "stateMutability": "payable",
      "type": "function"
    },
    {
      "inputs": [],
      "name": "name",
      "outputs": [
        {
          "internalType": "string",
          "name": "",
          "type": "string"
        }
      ],
      "stateMutability": "view",
      "type": "function"
    },
    {
      "inputs": [
        {
          "internalType": "address",
          "name": "contractAddress",
          "type": "address"
        },
        {
          "internalType": "uint256",
          "name": "tokenId",
          "type": "uint256"
        },
        {
          "internalType": "uint256",
          "name": "price",
          "type": "uint256"
        },
        {
          "internalType": "uint256",
          "name": "deadline",
          "type": "uint256"
        }
      ],
      "name": "newMarketItem",
      "outputs": [],
      "stateMutability": "nonpayable",
      "type": "function"
    },
    {
      "inputs": [],
      "name": "owner",
      "outputs": [
        {
          "internalType": "address",
          "name": "",
          "type": "address"
        }
      ],
      "stateMutability": "view",
      "type": "function"
    },
    {
      "inputs": [
        {
          "internalType": "uint256",
          "name": "tokenId",
          "type": "uint256"
        }
      ],
      "name": "ownerOf",
      "outputs": [
        {
          "internalType": "address",
          "name": "",
          "type": "address"
        }
      ],
      "stateMutability": "view",
      "type": "function"
    },
    {
      "inputs": [],
      "name": "renounceOwnership",
      "outputs": [],
      "stateMutability": "nonpayable",
      "type": "function"
    },
    {
      "inputs": [
        {
          "internalType": "address",
          "name": "from",
          "type": "address"
        },
        {
          "internalType": "address",
          "name": "to",
          "type": "address"
        },
        {
          "internalType": "uint256",
          "name": "tokenId",
          "type": "uint256"
        }
      ],
      "name": "safeTransferFrom",
      "outputs": [],
      "stateMutability": "nonpayable",
      "type": "function"
    },
    {
      "inputs": [
        {
          "internalType": "address",
          "name": "from",
          "type": "address"
        },
        {
          "internalType": "address",
          "name": "to",
          "type": "address"
        },
        {
          "internalType": "uint256",
          "name": "tokenId",
          "type": "uint256"
        },
        {
          "internalType": "bytes",
          "name": "data",
          "type": "bytes"
        }
      ],
      "name": "safeTransferFrom",
      "outputs": [],
      "stateMutability": "nonpayable",
      "type": "function"
    },
    {
      "inputs": [
        {
          "internalType": "address",
          "name": "operator",
          "type": "address"
        },
        {
          "internalType": "bool",
          "name": "approved",
          "type": "bool"
        }
      ],
      "name": "setApprovalForAll",
      "outputs": [],
      "stateMutability": "nonpayable",
      "type": "function"
    },
    {
      "inputs": [
        {
          "internalType": "bytes4",
          "name": "interfaceId",
          "type": "bytes4"
        }
      ],
      "name": "supportsInterface",
      "outputs": [
        {
          "internalType": "bool",
          "name": "",
          "type": "bool"
        }
      ],
      "stateMutability": "view",
      "type": "function"
    },
    {
      "inputs": [],
      "name": "symbol",
      "outputs": [
        {
          "internalType": "string",
          "name": "",
          "type": "string"
        }
      ],
      "stateMutability": "view",
      "type": "function"
    },
    {
      "inputs": [
        {
          "internalType": "uint256",
          "name": "tokenId",
          "type": "uint256"
        }
      ],
      "name": "tokenURI",
      "outputs": [
        {
          "internalType": "string",
          "name": "",
          "type": "string"
        }
      ],
      "stateMutability": "view",
      "type": "function"
    },
    {
      "inputs": [
        {
          "internalType": "address",
          "name": "from",
          "type": "address"
        },
        {
          "internalType": "address",
          "name": "to",
          "type": "address"
        },
        {
          "internalType": "uint256",
          "name": "tokenId",
          "type": "uint256"
        }
      ],
      "name": "transferFrom",
      "outputs": [],
      "stateMutability": "nonpayable",
      "type": "function"
    },
    {
      "inputs": [
        {
          "internalType": "address",
          "name": "newOwner",
          "type": "address"
        }
      ],
      "name": "transferOwnership",
      "outputs": [],
      "stateMutability": "nonpayable",
      "type": "function"
    }
  ],
  "bytecode": "0x60806040523480156200001157600080fd5b5060405162004aca38038062004aca833981810160405281019062000037919062000269565b6040518060400160405280600781526020017f456173794e4654000000000000000000000000000000000000000000000000008152506040518060400160405280600381526020017f4e465400000000000000000000000000000000000000000000000000000000008152508160009081620000b4919062000515565b508060019081620000c6919062000515565b505050620000e9620000dd6200013160201b60201c565b6200013960201b60201c565b80600a60006101000a81548173ffffffffffffffffffffffffffffffffffffffff021916908373ffffffffffffffffffffffffffffffffffffffff16021790555050620005fc565b600033905090565b6000600760009054906101000a900473ffffffffffffffffffffffffffffffffffffffff16905081600760006101000a81548173ffffffffffffffffffffffffffffffffffffffff021916908373ffffffffffffffffffffffffffffffffffffffff1602179055508173ffffffffffffffffffffffffffffffffffffffff168173ffffffffffffffffffffffffffffffffffffffff167f8be0079c531659141344cd1fd0a4f28419497f9722a3daafe3b4186f6b6457e060405160405180910390a35050565b600080fd5b600073ffffffffffffffffffffffffffffffffffffffff82169050919050565b6000620002318262000204565b9050919050565b620002438162000224565b81146200024f57600080fd5b50565b600081519050620002638162000238565b92915050565b600060208284031215620002825762000281620001ff565b5b6000620002928482850162000252565b91505092915050565b600081519050919050565b7f4e487b7100000000000000000000000000000000000000000000000000000000600052604160045260246000fd5b7f4e487b7100000000000000000000000000000000000000000000000000000000600052602260045260246000fd5b600060028204905060018216806200031d57607f821691505b602082108103620003335762000332620002d5565b5b50919050565b60008190508160005260206000209050919050565b60006020601f8301049050919050565b600082821b905092915050565b6000600883026200039d7fffffffffffffffffffffffffffffffffffffffffffffffffffffffffffffffff826200035e565b620003a986836200035e565b95508019841693508086168417925050509392505050565b6000819050919050565b6000819050919050565b6000620003f6620003f0620003ea84620003c1565b620003cb565b620003c1565b9050919050565b6000819050919050565b6200041283620003d5565b6200042a6200042182620003fd565b8484546200036b565b825550505050565b600090565b6200044162000432565b6200044e81848462000407565b505050565b5b8181101562000476576200046a60008262000437565b60018101905062000454565b5050565b601f821115620004c5576200048f8162000339565b6200049a846200034e565b81016020851015620004aa578190505b620004c2620004b9856200034e565b83018262000453565b50505b505050565b600082821c905092915050565b6000620004ea60001984600802620004ca565b1980831691505092915050565b6000620005058383620004d7565b9150826002028217905092915050565b62000520826200029b565b67ffffffffffffffff8111156200053c576200053b620002a6565b5b62000548825462000304565b620005558282856200047a565b600060209050601f8311600181146200058d576000841562000578578287015190505b620005848582620004f7565b865550620005f4565b601f1984166200059d8662000339565b60005b82811015620005c757848901518255600182019150602085019450602081019050620005a0565b86831015620005e75784890151620005e3601f891682620004d7565b8355505b6001600288020188555050505b505050505050565b6144be806200060c6000396000f3fe6080604052600436106101665760003560e01c806363d9d166116100d1578063b2eae0fd1161008a578063d85d3d2711610064578063d85d3d271461053a578063d96a094a14610556578063e985e9c514610572578063f2fde38b146105af57610166565b8063b2eae0fd146104ab578063b88d4fde146104d4578063c87b56dd146104fd57610166565b806363d9d166146103ad57806370a08231146103d8578063715018a6146104155780638da5cb5b1461042c57806395d89b4114610457578063a22cb4651461048257610166565b806329aa3a421161012357806329aa3a421461029f57806331f7d964146102ca5780633983a260146102f557806342842e0e1461031e578063598647f8146103475780636352211e1461037057610166565b806301ffc9a71461016b57806306fdde03146101a8578063081812fc146101d3578063095ea7b314610210578063131d9a271461023957806323b872dd14610276575b600080fd5b34801561017757600080fd5b50610192600480360381019061018d9190612bfe565b6105d8565b60405161019f9190612c46565b60405180910390f35b3480156101b457600080fd5b506101bd6106ba565b6040516101ca9190612cf1565b60405180910390f35b3480156101df57600080fd5b506101fa60048036038101906101f59190612d49565b61074c565b6040516102079190612db7565b60405180910390f35b34801561021c57600080fd5b5061023760048036038101906102329190612dfe565b610792565b005b34801561024557600080fd5b50610260600480360381019061025b9190612d49565b6108a9565b60405161026d9190612f3a565b60405180910390f35b34801561028257600080fd5b5061029d60048036038101906102989190612f5c565b61097b565b005b3480156102ab57600080fd5b506102b46109db565b6040516102c191906130fb565b60405180910390f35b3480156102d657600080fd5b506102df610b29565b6040516102ec9190612db7565b60405180910390f35b34801561030157600080fd5b5061031c6004803603810190610317919061311d565b610b4f565b005b34801561032a57600080fd5b5061034560048036038101906103409190612f5c565b610f6a565b005b34801561035357600080fd5b5061036e6004803603810190610369919061311d565b610f8a565b005b34801561037c57600080fd5b5061039760048036038101906103929190612d49565b611128565b6040516103a49190612db7565b60405180910390f35b3480156103b957600080fd5b506103c26111ae565b6040516103cf919061316c565b60405180910390f35b3480156103e457600080fd5b506103ff60048036038101906103fa9190613187565b6111b9565b60405161040c919061316c565b60405180910390f35b34801561042157600080fd5b5061042a611270565b005b34801561043857600080fd5b50610441611284565b60405161044e9190612db7565b60405180910390f35b34801561046357600080fd5b5061046c6112ae565b6040516104799190612cf1565b60405180910390f35b34801561048e57600080fd5b506104a960048036038101906104a491906131e0565b611340565b005b3480156104b757600080fd5b506104d260048036038101906104cd9190613220565b611356565b005b3480156104e057600080fd5b506104fb60048036038101906104f691906133bc565b611614565b005b34801561050957600080fd5b50610524600480360381019061051f9190612d49565b611676565b6040516105319190612cf1565b60405180910390f35b610554600480360381019061054f91906134e0565b611788565b005b610570600480360381019061056b9190612d49565b611805565b005b34801561057e57600080fd5b5061059960048036038101906105949190613529565b611af3565b6040516105a69190612c46565b60405180910390f35b3480156105bb57600080fd5b506105d660048036038101906105d19190613187565b611b87565b005b60007f80ac58cd000000000000000000000000000000000000000000000000000000007bffffffffffffffffffffffffffffffffffffffffffffffffffffffff1916827bffffffffffffffffffffffffffffffffffffffffffffffffffffffff191614806106a357507f5b5e139f000000000000000000000000000000000000000000000000000000007bffffffffffffffffffffffffffffffffffffffffffffffffffffffff1916827bffffffffffffffffffffffffffffffffffffffffffffffffffffffff1916145b806106b357506106b282611c0a565b5b9050919050565b6060600080546106c990613598565b80601f01602080910402602001604051908101604052809291908181526020018280546106f590613598565b80156107425780601f1061071757610100808354040283529160200191610742565b820191906000526020600020905b81548152906001019060200180831161072557829003601f168201915b5050505050905090565b600061075782611c74565b6004600083815260200190815260200160002060009054906101000a900473ffffffffffffffffffffffffffffffffffffffff169050919050565b600061079d82611128565b90508073ffffffffffffffffffffffffffffffffffffffff168373ffffffffffffffffffffffffffffffffffffffff160361080d576040517f08c379a00000000000000000000000000000000000000000000000000000000081526004016108049061363b565b60405180910390fd5b8073ffffffffffffffffffffffffffffffffffffffff1661082c611cbf565b73ffffffffffffffffffffffffffffffffffffffff16148061085b575061085a81610855611cbf565b611af3565b5b61089a576040517f08c379a0000000000000000000000000000000000000000000000000000000008152600401610891906136cd565b60405180910390fd5b6108a48383611cc7565b505050565b6060600b6000838152602001908152602001600020805480602002602001604051908101604052809291908181526020016000905b828210156109705783829060005260206000209060020201604051806040016040529081600082015481526020016001820160009054906101000a900473ffffffffffffffffffffffffffffffffffffffff1673ffffffffffffffffffffffffffffffffffffffff1673ffffffffffffffffffffffffffffffffffffffff1681525050815260200190600101906108de565b505050509050919050565b61098c610986611cbf565b82611d80565b6109cb576040517f08c379a00000000000000000000000000000000000000000000000000000000081526004016109c29061375f565b60405180910390fd5b6109d6838383611e15565b505050565b6060600c805480602002602001604051908101604052809291908181526020016000905b82821015610b2057838290600052602060002090600702016040518060e0016040529081600082015481526020016001820160009054906101000a900473ffffffffffffffffffffffffffffffffffffffff1673ffffffffffffffffffffffffffffffffffffffff1673ffffffffffffffffffffffffffffffffffffffff1681526020016002820160009054906101000a900473ffffffffffffffffffffffffffffffffffffffff1673ffffffffffffffffffffffffffffffffffffffff1673ffffffffffffffffffffffffffffffffffffffff16815260200160038201548152602001600482015481526020016005820160009054906101000a900460ff16151515158152602001600682015481525050815260200190600101906109ff565b50505050905090565b600a60009054906101000a900473ffffffffffffffffffffffffffffffffffffffff1681565b816000600c600183610b6191906137ae565b81548110610b7257610b716137e2565b5b906000526020600020906007020160010160009054906101000a900473ffffffffffffffffffffffffffffffffffffffff1690508073ffffffffffffffffffffffffffffffffffffffff163373ffffffffffffffffffffffffffffffffffffffff1614610c14576040517f08c379a0000000000000000000000000000000000000000000000000000000008152600401610c0b9061385d565b60405180910390fd5b6000600c600186610c2591906137ae565b81548110610c3657610c356137e2565b5b90600052602060002090600702016040518060e0016040529081600082015481526020016001820160009054906101000a900473ffffffffffffffffffffffffffffffffffffffff1673ffffffffffffffffffffffffffffffffffffffff1673ffffffffffffffffffffffffffffffffffffffff1681526020016002820160009054906101000a900473ffffffffffffffffffffffffffffffffffffffff1673ffffffffffffffffffffffffffffffffffffffff1673ffffffffffffffffffffffffffffffffffffffff16815260200160038201548152602001600482015481526020016005820160009054906101000a900460ff1615151515815260200160068201548152505090506000600b60008781526020019081526020016000208581548110610d6757610d666137e2565b5b9060005260206000209060020201604051806040016040529081600082015481526020016001820160009054906101000a900473ffffffffffffffffffffffffffffffffffffffff1673ffffffffffffffffffffffffffffffffffffffff1673ffffffffffffffffffffffffffffffffffffffff16815250509050816040015173ffffffffffffffffffffffffffffffffffffffff166342842e0e33836020015185606001516040518463ffffffff1660e01b8152600401610e2b9392919061387d565b600060405180830381600087803b158015610e4557600080fd5b505af1158015610e59573d6000803e3d6000fd5b50505050600a60009054906101000a900473ffffffffffffffffffffffffffffffffffffffff1673ffffffffffffffffffffffffffffffffffffffff166323b872dd8260200151846020015184600001516040518463ffffffff1660e01b8152600401610ec89392919061387d565b6020604051808303816000875af1158015610ee7573d6000803e3d6000fd5b505050506040513d601f19601f82011682018060405250810190610f0b91906138c9565b50806020015173ffffffffffffffffffffffffffffffffffffffff167fa0b4f52b19dee1cf7f60b707f83166a1359f5eee5ac1629d3d50c691a264795e8360600151604051610f5a919061316c565b60405180910390a2505050505050565b610f8583838360405180602001604052806000815250611614565b505050565b80600a60009054906101000a900473ffffffffffffffffffffffffffffffffffffffff1673ffffffffffffffffffffffffffffffffffffffff1663dd62ed3e33306040518363ffffffff1660e01b8152600401610fe89291906138f6565b602060405180830381865afa158015611005573d6000803e3d6000fd5b505050506040513d601f19601f820116820180604052508101906110299190613934565b101561106a576040517f08c379a0000000000000000000000000000000000000000000000000000000008152600401611061906139ad565b60405180910390fd5b600b600083815260200190815260200160002060405180604001604052808381526020013373ffffffffffffffffffffffffffffffffffffffff1681525090806001815401808255809150506001900390600052602060002090600202016000909190919091506000820151816000015560208201518160010160006101000a81548173ffffffffffffffffffffffffffffffffffffffff021916908373ffffffffffffffffffffffffffffffffffffffff16021790555050505050565b6000806111348361210a565b9050600073ffffffffffffffffffffffffffffffffffffffff168173ffffffffffffffffffffffffffffffffffffffff16036111a5576040517f08c379a000000000000000000000000000000000000000000000000000000000815260040161119c90613a19565b60405180910390fd5b80915050919050565b662386f26fc1000081565b60008073ffffffffffffffffffffffffffffffffffffffff168273ffffffffffffffffffffffffffffffffffffffff1603611229576040517f08c379a000000000000000000000000000000000000000000000000000000000815260040161122090613aab565b60405180910390fd5b600360008373ffffffffffffffffffffffffffffffffffffffff1673ffffffffffffffffffffffffffffffffffffffff168152602001908152602001600020549050919050565b611278612147565b61128260006121c5565b565b6000600760009054906101000a900473ffffffffffffffffffffffffffffffffffffffff16905090565b6060600180546112bd90613598565b80601f01602080910402602001604051908101604052809291908181526020018280546112e990613598565b80156113365780601f1061130b57610100808354040283529160200191611336565b820191906000526020600020905b81548152906001019060200180831161131957829003601f168201915b5050505050905090565b61135261134b611cbf565b838361228b565b5050565b3073ffffffffffffffffffffffffffffffffffffffff168473ffffffffffffffffffffffffffffffffffffffff1663081812fc856040518263ffffffff1660e01b81526004016113a6919061316c565b602060405180830381865afa1580156113c3573d6000803e3d6000fd5b505050506040513d601f19601f820116820180604052508101906113e79190613ae0565b73ffffffffffffffffffffffffffffffffffffffff161461143d576040517f08c379a000000000000000000000000000000000000000000000000000000000815260040161143490613b59565b60405180910390fd5b61144760086123f7565b600c6040518060e0016040528061145e600861240d565b81526020013373ffffffffffffffffffffffffffffffffffffffff1681526020018673ffffffffffffffffffffffffffffffffffffffff1681526020018581526020018481526020016000151581526020018381525090806001815401808255809150506001900390600052602060002090600702016000909190919091506000820151816000015560208201518160010160006101000a81548173ffffffffffffffffffffffffffffffffffffffff021916908373ffffffffffffffffffffffffffffffffffffffff16021790555060408201518160020160006101000a81548173ffffffffffffffffffffffffffffffffffffffff021916908373ffffffffffffffffffffffffffffffffffffffff160217905550606082015181600301556080820151816004015560a08201518160050160006101000a81548160ff02191690831515021790555060c0820151816006015550503373ffffffffffffffffffffffffffffffffffffffff167f9106fc29572932d03fed1ea084e9a3f7650762e052171c610567a0c85d4f2147856115f8600861240d565b604051611606929190613b79565b60405180910390a250505050565b61162561161f611cbf565b83611d80565b611664576040517f08c379a000000000000000000000000000000000000000000000000000000000815260040161165b9061375f565b60405180910390fd5b6116708484848461241b565b50505050565b606061168182611c74565b60006006600084815260200190815260200160002080546116a190613598565b80601f01602080910402602001604051908101604052809291908181526020018280546116cd90613598565b801561171a5780601f106116ef5761010080835404028352916020019161171a565b820191906000526020600020905b8154815290600101906020018083116116fd57829003601f168201915b50505050509050600061172b612477565b90506000815103611740578192505050611783565b60008251111561177557808260405160200161175d929190613bde565b60405160208183030381529060405292505050611783565b61177e8461248e565b925050505b919050565b662386f26fc100003410156117d2576040517f08c379a00000000000000000000000000000000000000000000000000000000081526004016117c990613c4e565b60405180910390fd5b6117dc60096123f7565b6117ef336117ea600961240d565b6124f6565b6118026117fc600961240d565b8261270f565b50565b6000600c60018361181691906137ae565b81548110611827576118266137e2565b5b90600052602060002090600702016040518060e0016040529081600082015481526020016001820160009054906101000a900473ffffffffffffffffffffffffffffffffffffffff1673ffffffffffffffffffffffffffffffffffffffff1673ffffffffffffffffffffffffffffffffffffffff1681526020016002820160009054906101000a900473ffffffffffffffffffffffffffffffffffffffff1673ffffffffffffffffffffffffffffffffffffffff1673ffffffffffffffffffffffffffffffffffffffff16815260200160038201548152602001600482015481526020016005820160009054906101000a900460ff161515151581526020016006820154815250509050600a60009054906101000a900473ffffffffffffffffffffffffffffffffffffffff1673ffffffffffffffffffffffffffffffffffffffff166323b872dd33836020015184608001516040518463ffffffff1660e01b81526004016119989392919061387d565b6020604051808303816000875af11580156119b7573d6000803e3d6000fd5b505050506040513d601f19601f820116820180604052508101906119db91906138c9565b50806040015173ffffffffffffffffffffffffffffffffffffffff166342842e0e82602001513384606001516040518463ffffffff1660e01b8152600401611a259392919061387d565b600060405180830381600087803b158015611a3f57600080fd5b505af1158015611a53573d6000803e3d6000fd5b505050506001600c600184611a6891906137ae565b81548110611a7957611a786137e2565b5b906000526020600020906007020160050160006101000a81548160ff0219169083151502179055503373ffffffffffffffffffffffffffffffffffffffff167fa0b4f52b19dee1cf7f60b707f83166a1359f5eee5ac1629d3d50c691a264795e83604051611ae7919061316c565b60405180910390a25050565b6000600560008473ffffffffffffffffffffffffffffffffffffffff1673ffffffffffffffffffffffffffffffffffffffff16815260200190815260200160002060008373ffffffffffffffffffffffffffffffffffffffff1673ffffffffffffffffffffffffffffffffffffffff16815260200190815260200160002060009054906101000a900460ff16905092915050565b611b8f612147565b600073ffffffffffffffffffffffffffffffffffffffff168173ffffffffffffffffffffffffffffffffffffffff1603611bfe576040517f08c379a0000000000000000000000000000000000000000000000000000000008152600401611bf590613ce0565b60405180910390fd5b611c07816121c5565b50565b60007f01ffc9a7000000000000000000000000000000000000000000000000000000007bffffffffffffffffffffffffffffffffffffffffffffffffffffffff1916827bffffffffffffffffffffffffffffffffffffffffffffffffffffffff1916149050919050565b611c7d8161277c565b611cbc576040517f08c379a0000000000000000000000000000000000000000000000000000000008152600401611cb390613a19565b60405180910390fd5b50565b600033905090565b816004600083815260200190815260200160002060006101000a81548173ffffffffffffffffffffffffffffffffffffffff021916908373ffffffffffffffffffffffffffffffffffffffff160217905550808273ffffffffffffffffffffffffffffffffffffffff16611d3a83611128565b73ffffffffffffffffffffffffffffffffffffffff167f8c5be1e5ebec7d5bd14f71427d1e84f3dd0314c0f7b2291e5b200ac8c7c3b92560405160405180910390a45050565b600080611d8c83611128565b90508073ffffffffffffffffffffffffffffffffffffffff168473ffffffffffffffffffffffffffffffffffffffff161480611dce5750611dcd8185611af3565b5b80611e0c57508373ffffffffffffffffffffffffffffffffffffffff16611df48461074c565b73ffffffffffffffffffffffffffffffffffffffff16145b91505092915050565b8273ffffffffffffffffffffffffffffffffffffffff16611e3582611128565b73ffffffffffffffffffffffffffffffffffffffff1614611e8b576040517f08c379a0000000000000000000000000000000000000000000000000000000008152600401611e8290613d72565b60405180910390fd5b600073ffffffffffffffffffffffffffffffffffffffff168273ffffffffffffffffffffffffffffffffffffffff1603611efa576040517f08c379a0000000000000000000000000000000000000000000000000000000008152600401611ef190613e04565b60405180910390fd5b611f058383836127bd565b8273ffffffffffffffffffffffffffffffffffffffff16611f2582611128565b73ffffffffffffffffffffffffffffffffffffffff1614611f7b576040517f08c379a0000000000000000000000000000000000000000000000000000000008152600401611f7290613d72565b60405180910390fd5b6004600082815260200190815260200160002060006101000a81549073ffffffffffffffffffffffffffffffffffffffff02191690556001600360008573ffffffffffffffffffffffffffffffffffffffff1673ffffffffffffffffffffffffffffffffffffffff168152602001908152602001600020600082825403925050819055506001600360008473ffffffffffffffffffffffffffffffffffffffff1673ffffffffffffffffffffffffffffffffffffffff16815260200190815260200160002060008282540192505081905550816002600083815260200190815260200160002060006101000a81548173ffffffffffffffffffffffffffffffffffffffff021916908373ffffffffffffffffffffffffffffffffffffffff160217905550808273ffffffffffffffffffffffffffffffffffffffff168473ffffffffffffffffffffffffffffffffffffffff167fddf252ad1be2c89b69c2b068fc378daa952ba7f163c4a11628f55a4df523b3ef60405160405180910390a46121058383836127c2565b505050565b60006002600083815260200190815260200160002060009054906101000a900473ffffffffffffffffffffffffffffffffffffffff169050919050565b61214f611cbf565b73ffffffffffffffffffffffffffffffffffffffff1661216d611284565b73ffffffffffffffffffffffffffffffffffffffff16146121c3576040517f08c379a00000000000000000000000000000000000000000000000000000000081526004016121ba90613e70565b60405180910390fd5b565b6000600760009054906101000a900473ffffffffffffffffffffffffffffffffffffffff16905081600760006101000a81548173ffffffffffffffffffffffffffffffffffffffff021916908373ffffffffffffffffffffffffffffffffffffffff1602179055508173ffffffffffffffffffffffffffffffffffffffff168173ffffffffffffffffffffffffffffffffffffffff167f8be0079c531659141344cd1fd0a4f28419497f9722a3daafe3b4186f6b6457e060405160405180910390a35050565b8173ffffffffffffffffffffffffffffffffffffffff168373ffffffffffffffffffffffffffffffffffffffff16036122f9576040517f08c379a00000000000000000000000000000000000000000000000000000000081526004016122f090613edc565b60405180910390fd5b80600560008573ffffffffffffffffffffffffffffffffffffffff1673ffffffffffffffffffffffffffffffffffffffff16815260200190815260200160002060008473ffffffffffffffffffffffffffffffffffffffff1673ffffffffffffffffffffffffffffffffffffffff16815260200190815260200160002060006101000a81548160ff0219169083151502179055508173ffffffffffffffffffffffffffffffffffffffff168373ffffffffffffffffffffffffffffffffffffffff167f17307eab39ab6107e8899845ad3d59bd9653f200f220920489ca2b5937696c31836040516123ea9190612c46565b60405180910390a3505050565b6001816000016000828254019250508190555050565b600081600001549050919050565b612426848484611e15565b612432848484846127c7565b612471576040517f08c379a000000000000000000000000000000000000000000000000000000000815260040161246890613f6e565b60405180910390fd5b50505050565b606060405180602001604052806000815250905090565b606061249982611c74565b60006124a3612477565b905060008151116124c357604051806020016040528060008152506124ee565b806124cd8461294e565b6040516020016124de929190613bde565b6040516020818303038152906040525b915050919050565b600073ffffffffffffffffffffffffffffffffffffffff168273ffffffffffffffffffffffffffffffffffffffff1603612565576040517f08c379a000000000000000000000000000000000000000000000000000000000815260040161255c90613fda565b60405180910390fd5b61256e8161277c565b156125ae576040517f08c379a00000000000000000000000000000000000000000000000000000000081526004016125a590614046565b60405180910390fd5b6125ba600083836127bd565b6125c38161277c565b15612603576040517f08c379a00000000000000000000000000000000000000000000000000000000081526004016125fa90614046565b60405180910390fd5b6001600360008473ffffffffffffffffffffffffffffffffffffffff1673ffffffffffffffffffffffffffffffffffffffff16815260200190815260200160002060008282540192505081905550816002600083815260200190815260200160002060006101000a81548173ffffffffffffffffffffffffffffffffffffffff021916908373ffffffffffffffffffffffffffffffffffffffff160217905550808273ffffffffffffffffffffffffffffffffffffffff16600073ffffffffffffffffffffffffffffffffffffffff167fddf252ad1be2c89b69c2b068fc378daa952ba7f163c4a11628f55a4df523b3ef60405160405180910390a461270b600083836127c2565b5050565b6127188261277c565b612757576040517f08c379a000000000000000000000000000000000000000000000000000000000815260040161274e906140d8565b60405180910390fd5b8060066000848152602001908152602001600020908161277791906142a4565b505050565b60008073ffffffffffffffffffffffffffffffffffffffff1661279e8361210a565b73ffffffffffffffffffffffffffffffffffffffff1614159050919050565b505050565b505050565b60006127e88473ffffffffffffffffffffffffffffffffffffffff16612a1c565b15612941578373ffffffffffffffffffffffffffffffffffffffff1663150b7a02612811611cbf565b8786866040518563ffffffff1660e01b815260040161283394939291906143cb565b6020604051808303816000875af192505050801561286f57506040513d601f19601f8201168201806040525081019061286c919061442c565b60015b6128f1573d806000811461289f576040519150601f19603f3d011682016040523d82523d6000602084013e6128a4565b606091505b5060008151036128e9576040517f08c379a00000000000000000000000000000000000000000000000000000000081526004016128e090613f6e565b60405180910390fd5b805181602001fd5b63150b7a0260e01b7bffffffffffffffffffffffffffffffffffffffffffffffffffffffff1916817bffffffffffffffffffffffffffffffffffffffffffffffffffffffff191614915050612946565b600190505b949350505050565b60606000600161295d84612a3f565b01905060008167ffffffffffffffff81111561297c5761297b613291565b5b6040519080825280601f01601f1916602001820160405280156129ae5781602001600182028036833780820191505090505b509050600082602001820190505b600115612a11578080600190039150507f3031323334353637383961626364656600000000000000000000000000000000600a86061a8153600a8581612a0557612a04614459565b5b049450600085036129bc575b819350505050919050565b6000808273ffffffffffffffffffffffffffffffffffffffff163b119050919050565b600080600090507a184f03e93ff9f4daa797ed6e38ed64bf6a1f0100000000000000008310612a9d577a184f03e93ff9f4daa797ed6e38ed64bf6a1f0100000000000000008381612a9357612a92614459565b5b0492506040810190505b6d04ee2d6d415b85acef81000000008310612ada576d04ee2d6d415b85acef81000000008381612ad057612acf614459565b5b0492506020810190505b662386f26fc100008310612b0957662386f26fc100008381612aff57612afe614459565b5b0492506010810190505b6305f5e1008310612b32576305f5e1008381612b2857612b27614459565b5b0492506008810190505b6127108310612b57576127108381612b4d57612b4c614459565b5b0492506004810190505b60648310612b7a5760648381612b7057612b6f614459565b5b0492506002810190505b600a8310612b89576001810190505b80915050919050565b6000604051905090565b600080fd5b600080fd5b60007fffffffff0000000000000000000000000000000000000000000000000000000082169050919050565b612bdb81612ba6565b8114612be657600080fd5b50565b600081359050612bf881612bd2565b92915050565b600060208284031215612c1457612c13612b9c565b5b6000612c2284828501612be9565b91505092915050565b60008115159050919050565b612c4081612c2b565b82525050565b6000602082019050612c5b6000830184612c37565b92915050565b600081519050919050565b600082825260208201905092915050565b60005b83811015612c9b578082015181840152602081019050612c80565b60008484015250505050565b6000601f19601f8301169050919050565b6000612cc382612c61565b612ccd8185612c6c565b9350612cdd818560208601612c7d565b612ce681612ca7565b840191505092915050565b60006020820190508181036000830152612d0b8184612cb8565b905092915050565b6000819050919050565b612d2681612d13565b8114612d3157600080fd5b50565b600081359050612d4381612d1d565b92915050565b600060208284031215612d5f57612d5e612b9c565b5b6000612d6d84828501612d34565b91505092915050565b600073ffffffffffffffffffffffffffffffffffffffff82169050919050565b6000612da182612d76565b9050919050565b612db181612d96565b82525050565b6000602082019050612dcc6000830184612da8565b92915050565b612ddb81612d96565b8114612de657600080fd5b50565b600081359050612df881612dd2565b92915050565b60008060408385031215612e1557612e14612b9c565b5b6000612e2385828601612de9565b9250506020612e3485828601612d34565b9150509250929050565b600081519050919050565b600082825260208201905092915050565b6000819050602082019050919050565b612e7381612d13565b82525050565b612e8281612d96565b82525050565b604082016000820151612e9e6000850182612e6a565b506020820151612eb16020850182612e79565b50505050565b6000612ec38383612e88565b60408301905092915050565b6000602082019050919050565b6000612ee782612e3e565b612ef18185612e49565b9350612efc83612e5a565b8060005b83811015612f2d578151612f148882612eb7565b9750612f1f83612ecf565b925050600181019050612f00565b5085935050505092915050565b60006020820190508181036000830152612f548184612edc565b905092915050565b600080600060608486031215612f7557612f74612b9c565b5b6000612f8386828701612de9565b9350506020612f9486828701612de9565b9250506040612fa586828701612d34565b9150509250925092565b600081519050919050565b600082825260208201905092915050565b6000819050602082019050919050565b612fe481612c2b565b82525050565b60e0820160008201516130006000850182612e6a565b5060208201516130136020850182612e79565b5060408201516130266040850182612e79565b5060608201516130396060850182612e6a565b50608082015161304c6080850182612e6a565b5060a082015161305f60a0850182612fdb565b5060c082015161307260c0850182612e6a565b50505050565b60006130848383612fea565b60e08301905092915050565b6000602082019050919050565b60006130a882612faf565b6130b28185612fba565b93506130bd83612fcb565b8060005b838110156130ee5781516130d58882613078565b97506130e083613090565b9250506001810190506130c1565b5085935050505092915050565b60006020820190508181036000830152613115818461309d565b905092915050565b6000806040838503121561313457613133612b9c565b5b600061314285828601612d34565b925050602061315385828601612d34565b9150509250929050565b61316681612d13565b82525050565b6000602082019050613181600083018461315d565b92915050565b60006020828403121561319d5761319c612b9c565b5b60006131ab84828501612de9565b91505092915050565b6131bd81612c2b565b81146131c857600080fd5b50565b6000813590506131da816131b4565b92915050565b600080604083850312156131f7576131f6612b9c565b5b600061320585828601612de9565b9250506020613216858286016131cb565b9150509250929050565b6000806000806080858703121561323a57613239612b9c565b5b600061324887828801612de9565b945050602061325987828801612d34565b935050604061326a87828801612d34565b925050606061327b87828801612d34565b91505092959194509250565b600080fd5b600080fd5b7f4e487b7100000000000000000000000000000000000000000000000000000000600052604160045260246000fd5b6132c982612ca7565b810181811067ffffffffffffffff821117156132e8576132e7613291565b5b80604052505050565b60006132fb612b92565b905061330782826132c0565b919050565b600067ffffffffffffffff82111561332757613326613291565b5b61333082612ca7565b9050602081019050919050565b82818337600083830152505050565b600061335f61335a8461330c565b6132f1565b90508281526020810184848401111561337b5761337a61328c565b5b61338684828561333d565b509392505050565b600082601f8301126133a3576133a2613287565b5b81356133b384826020860161334c565b91505092915050565b600080600080608085870312156133d6576133d5612b9c565b5b60006133e487828801612de9565b94505060206133f587828801612de9565b935050604061340687828801612d34565b925050606085013567ffffffffffffffff81111561342757613426612ba1565b5b6134338782880161338e565b91505092959194509250565b600067ffffffffffffffff82111561345a57613459613291565b5b61346382612ca7565b9050602081019050919050565b600061348361347e8461343f565b6132f1565b90508281526020810184848401111561349f5761349e61328c565b5b6134aa84828561333d565b509392505050565b600082601f8301126134c7576134c6613287565b5b81356134d7848260208601613470565b91505092915050565b6000602082840312156134f6576134f5612b9c565b5b600082013567ffffffffffffffff81111561351457613513612ba1565b5b613520848285016134b2565b91505092915050565b600080604083850312156135405761353f612b9c565b5b600061354e85828601612de9565b925050602061355f85828601612de9565b9150509250929050565b7f4e487b7100000000000000000000000000000000000000000000000000000000600052602260045260246000fd5b600060028204905060018216806135b057607f821691505b6020821081036135c3576135c2613569565b5b50919050565b7f4552433732313a20617070726f76616c20746f2063757272656e74206f776e6560008201527f7200000000000000000000000000000000000000000000000000000000000000602082015250565b6000613625602183612c6c565b9150613630826135c9565b604082019050919050565b6000602082019050818103600083015261365481613618565b9050919050565b7f4552433732313a20617070726f76652063616c6c6572206973206e6f7420746f60008201527f6b656e206f776e6572206f7220617070726f76656420666f7220616c6c000000602082015250565b60006136b7603d83612c6c565b91506136c28261365b565b604082019050919050565b600060208201905081810360008301526136e6816136aa565b9050919050565b7f4552433732313a2063616c6c6572206973206e6f7420746f6b656e206f776e6560008201527f72206f7220617070726f76656400000000000000000000000000000000000000602082015250565b6000613749602d83612c6c565b9150613754826136ed565b604082019050919050565b600060208201905081810360008301526137788161373c565b9050919050565b7f4e487b7100000000000000000000000000000000000000000000000000000000600052601160045260246000fd5b60006137b982612d13565b91506137c483612d13565b92508282039050818111156137dc576137db61377f565b5b92915050565b7f4e487b7100000000000000000000000000000000000000000000000000000000600052603260045260246000fd5b7f6d73672e73656e646572213d73656c6c65720000000000000000000000000000600082015250565b6000613847601283612c6c565b915061385282613811565b602082019050919050565b600060208201905081810360008301526138768161383a565b9050919050565b60006060820190506138926000830186612da8565b61389f6020830185612da8565b6138ac604083018461315d565b949350505050565b6000815190506138c3816131b4565b92915050565b6000602082840312156138df576138de612b9c565b5b60006138ed848285016138b4565b91505092915050565b600060408201905061390b6000830185612da8565b6139186020830184612da8565b9392505050565b60008151905061392e81612d1d565b92915050565b60006020828403121561394a57613949612b9c565b5b60006139588482850161391f565b91505092915050565b7f496e73756666696369656e7420455243323020616c6c6f77616e636500000000600082015250565b6000613997601c83612c6c565b91506139a282613961565b602082019050919050565b600060208201905081810360008301526139c68161398a565b9050919050565b7f4552433732313a20696e76616c696420746f6b656e2049440000000000000000600082015250565b6000613a03601883612c6c565b9150613a0e826139cd565b602082019050919050565b60006020820190508181036000830152613a32816139f6565b9050919050565b7f4552433732313a2061646472657373207a65726f206973206e6f74206120766160008201527f6c6964206f776e65720000000000000000000000000000000000000000000000602082015250565b6000613a95602983612c6c565b9150613aa082613a39565b604082019050919050565b60006020820190508181036000830152613ac481613a88565b9050919050565b600081519050613ada81612dd2565b92915050565b600060208284031215613af657613af5612b9c565b5b6000613b0484828501613acb565b91505092915050565b7f455243373231206e6f7420617070726f76656400000000000000000000000000600082015250565b6000613b43601383612c6c565b9150613b4e82613b0d565b602082019050919050565b60006020820190508181036000830152613b7281613b36565b9050919050565b6000604082019050613b8e6000830185612da8565b613b9b602083018461315d565b9392505050565b600081905092915050565b6000613bb882612c61565b613bc28185613ba2565b9350613bd2818560208601612c7d565b80840191505092915050565b6000613bea8285613bad565b9150613bf68284613bad565b91508190509392505050565b7f4d75737420706179206d696e74696e6720707269636500000000000000000000600082015250565b6000613c38601683612c6c565b9150613c4382613c02565b602082019050919050565b60006020820190508181036000830152613c6781613c2b565b9050919050565b7f4f776e61626c653a206e6577206f776e657220697320746865207a65726f206160008201527f6464726573730000000000000000000000000000000000000000000000000000602082015250565b6000613cca602683612c6c565b9150613cd582613c6e565b604082019050919050565b60006020820190508181036000830152613cf981613cbd565b9050919050565b7f4552433732313a207472616e736665722066726f6d20696e636f72726563742060008201527f6f776e6572000000000000000000000000000000000000000000000000000000602082015250565b6000613d5c602583612c6c565b9150613d6782613d00565b604082019050919050565b60006020820190508181036000830152613d8b81613d4f565b9050919050565b7f4552433732313a207472616e7366657220746f20746865207a65726f2061646460008201527f7265737300000000000000000000000000000000000000000000000000000000602082015250565b6000613dee602483612c6c565b9150613df982613d92565b604082019050919050565b60006020820190508181036000830152613e1d81613de1565b9050919050565b7f4f776e61626c653a2063616c6c6572206973206e6f7420746865206f776e6572600082015250565b6000613e5a602083612c6c565b9150613e6582613e24565b602082019050919050565b60006020820190508181036000830152613e8981613e4d565b9050919050565b7f4552433732313a20617070726f766520746f2063616c6c657200000000000000600082015250565b6000613ec6601983612c6c565b9150613ed182613e90565b602082019050919050565b60006020820190508181036000830152613ef581613eb9565b9050919050565b7f4552433732313a207472616e7366657220746f206e6f6e20455243373231526560008201527f63656976657220696d706c656d656e7465720000000000000000000000000000602082015250565b6000613f58603283612c6c565b9150613f6382613efc565b604082019050919050565b60006020820190508181036000830152613f8781613f4b565b9050919050565b7f4552433732313a206d696e7420746f20746865207a65726f2061646472657373600082015250565b6000613fc4602083612c6c565b9150613fcf82613f8e565b602082019050919050565b60006020820190508181036000830152613ff381613fb7565b9050919050565b7f4552433732313a20746f6b656e20616c7265616479206d696e74656400000000600082015250565b6000614030601c83612c6c565b915061403b82613ffa565b602082019050919050565b6000602082019050818103600083015261405f81614023565b9050919050565b7f45524337323155524953746f726167653a2055524920736574206f66206e6f6e60008201527f6578697374656e7420746f6b656e000000000000000000000000000000000000602082015250565b60006140c2602e83612c6c565b91506140cd82614066565b604082019050919050565b600060208201905081810360008301526140f1816140b5565b9050919050565b60008190508160005260206000209050919050565b60006020601f8301049050919050565b600082821b905092915050565b60006008830261415a7fffffffffffffffffffffffffffffffffffffffffffffffffffffffffffffffff8261411d565b614164868361411d565b95508019841693508086168417925050509392505050565b6000819050919050565b60006141a161419c61419784612d13565b61417c565b612d13565b9050919050565b6000819050919050565b6141bb83614186565b6141cf6141c7826141a8565b84845461412a565b825550505050565b600090565b6141e46141d7565b6141ef8184846141b2565b505050565b5b81811015614213576142086000826141dc565b6001810190506141f5565b5050565b601f82111561425857614229816140f8565b6142328461410d565b81016020851015614241578190505b61425561424d8561410d565b8301826141f4565b50505b505050565b600082821c905092915050565b600061427b6000198460080261425d565b1980831691505092915050565b6000614294838361426a565b9150826002028217905092915050565b6142ad82612c61565b67ffffffffffffffff8111156142c6576142c5613291565b5b6142d08254613598565b6142db828285614217565b600060209050601f83116001811461430e57600084156142fc578287015190505b6143068582614288565b86555061436e565b601f19841661431c866140f8565b60005b828110156143445784890151825560018201915060208501945060208101905061431f565b86831015614361578489015161435d601f89168261426a565b8355505b6001600288020188555050505b505050505050565b600081519050919050565b600082825260208201905092915050565b600061439d82614376565b6143a78185614381565b93506143b7818560208601612c7d565b6143c081612ca7565b840191505092915050565b60006080820190506143e06000830187612da8565b6143ed6020830186612da8565b6143fa604083018561315d565b818103606083015261440c8184614392565b905095945050505050565b60008151905061442681612bd2565b92915050565b60006020828403121561444257614441612b9c565b5b600061445084828501614417565b91505092915050565b7f4e487b7100000000000000000000000000000000000000000000000000000000600052601260045260246000fdfea264697066735822122074985eba9e457475aa5fcd16e5852025644c55aeecdea402c8a025b6d068983364736f6c63430008110033",
  "linkReferences": {},
  "deployedLinkReferences": {}
}