{"contracts/Marketplace.sol":{"Marketplace":{"abi":[{"inputs":[{"internalType":"address","name":"_nativeTokenAddress","type":"address"}],"stateMutability":"nonpayable","type":"constructor"},{"inputs":[],"name":"TransferError","type":"error"},{"anonymous":false,"inputs":[{"indexed":true,"internalType":"address","name":"owner","type":"address"},{"indexed":true,"internalType":"address","name":"approved","type":"address"},{"indexed":true,"internalType":"uint256","name":"tokenId","type":"uint256"}],"name":"Approval","type":"event"},{"anonymous":false,"inputs":[{"indexed":true,"internalType":"address","name":"owner","type":"address"},{"indexed":true,"internalType":"address","name":"operator","type":"address"},{"indexed":false,"internalType":"bool","name":"approved","type":"bool"}],"name":"ApprovalForAll","type":"event"},{"anonymous":false,"inputs":[{"indexed":true,"internalType":"address","name":"seller","type":"address"},{"indexed":false,"internalType":"address","name":"contractAddress","type":"address"},{"indexed":false,"internalType":"uint256","name":"tokenId","type":"uint256"}],"name":"NewMarketItem","type":"event"},{"anonymous":false,"inputs":[{"indexed":true,"internalType":"address","name":"previousOwner","type":"address"},{"indexed":true,"internalType":"address","name":"newOwner","type":"address"}],"name":"OwnershipTransferred","type":"event"},{"anonymous":false,"inputs":[{"indexed":true,"internalType":"address","name":"from","type":"address"},{"indexed":true,"internalType":"address","name":"to","type":"address"},{"indexed":true,"internalType":"uint256","name":"tokenId","type":"uint256"}],"name":"Transfer","type":"event"},{"anonymous":false,"inputs":[{"indexed":false,"internalType":"uint256","name":"marketItemId","type":"uint256"},{"indexed":true,"internalType":"address","name":"buyer","type":"address"}],"name":"itemSold","type":"event"},{"inputs":[],"name":"MINTING_PRICE","outputs":[{"internalType":"uint256","name":"","type":"uint256"}],"stateMutability":"view","type":"function"},{"inputs":[],"name":"NATIVE_TOKEN","outputs":[{"internalType":"address","name":"","type":"address"}],"stateMutability":"view","type":"function"},{"inputs":[{"internalType":"address","name":"to","type":"address"},{"internalType":"uint256","name":"tokenId","type":"uint256"}],"name":"approve","outputs":[],"stateMutability":"nonpayable","type":"function"},{"inputs":[{"internalType":"address","name":"owner","type":"address"}],"name":"balanceOf","outputs":[{"internalType":"uint256","name":"","type":"uint256"}],"stateMutability":"view","type":"function"},{"inputs":[{"internalType":"uint256","name":"marketItemId","type":"uint256"},{"internalType":"uint256","name":"amount","type":"uint256"}],"name":"bid","outputs":[],"stateMutability":"nonpayable","type":"function"},{"inputs":[{"internalType":"uint256","name":"marketItemId","type":"uint256"}],"name":"buy","outputs":[],"stateMutability":"payable","type":"function"},{"inputs":[{"internalType":"uint256","name":"marketItemId","type":"uint256"},{"internalType":"uint256","name":"offerIndex","type":"uint256"}],"name":"closeAuction","outputs":[],"stateMutability":"nonpayable","type":"function"},{"inputs":[{"internalType":"uint256","name":"tokenId","type":"uint256"}],"name":"getApproved","outputs":[{"internalType":"address","name":"","type":"address"}],"stateMutability":"view","type":"function"},{"inputs":[{"internalType":"uint256","name":"marketItemId","type":"uint256"}],"name":"getBids","outputs":[{"components":[{"internalType":"uint256","name":"bid","type":"uint256"},{"internalType":"address","name":"offeror","type":"address"}],"internalType":"struct Marketplace.Offer[]","name":"","type":"tuple[]"}],"stateMutability":"view","type":"function"},{"inputs":[],"name":"getMarketItems","outputs":[{"components":[{"internalType":"uint256","name":"itemId","type":"uint256"},{"internalType":"address","name":"seller","type":"address"},{"internalType":"address","name":"contractAddress","type":"address"},{"internalType":"uint256","name":"tokenId","type":"uint256"},{"internalType":"uint256","name":"price","type":"uint256"},{"internalType":"bool","name":"sold","type":"bool"},{"internalType":"uint256","name":"deadline","type":"uint256"}],"internalType":"struct Marketplace.marketItem[]","name":"","type":"tuple[]"}],"stateMutability":"view","type":"function"},{"inputs":[{"internalType":"address","name":"owner","type":"address"},{"internalType":"address","name":"operator","type":"address"}],"name":"isApprovedForAll","outputs":[{"internalType":"bool","name":"","type":"bool"}],"stateMutability":"view","type":"function"},{"inputs":[{"internalType":"string","name":"uri","type":"string"}],"name":"mint","outputs":[],"stateMutability":"payable","type":"function"},{"inputs":[],"name":"name","outputs":[{"internalType":"string","name":"","type":"string"}],"stateMutability":"view","type":"function"},{"inputs":[{"internalType":"address","name":"contractAddress","type":"address"},{"internalType":"uint256","name":"tokenId","type":"uint256"},{"internalType":"uint256","name":"price","type":"uint256"},{"internalType":"uint256","name":"deadline","type":"uint256"}],"name":"newMarketItem","outputs":[],"stateMutability":"nonpayable","type":"function"},{"inputs":[],"name":"owner","outputs":[{"internalType":"address","name":"","type":"address"}],"stateMutability":"view","type":"function"},{"inputs":[{"internalType":"uint256","name":"tokenId","type":"uint256"}],"name":"ownerOf","outputs":[{"internalType":"address","name":"","type":"address"}],"stateMutability":"view","type":"function"},{"inputs":[],"name":"renounceOwnership","outputs":[],"stateMutability":"nonpayable","type":"function"},{"inputs":[{"internalType":"address","name":"from","type":"address"},{"internalType":"address","name":"to","type":"address"},{"internalType":"uint256","name":"tokenId","type":"uint256"}],"name":"safeTransferFrom","outputs":[],"stateMutability":"nonpayable","type":"function"},{"inputs":[{"internalType":"address","name":"from","type":"address"},{"internalType":"address","name":"to","type":"address"},{"internalType":"uint256","name":"tokenId","type":"uint256"},{"internalType":"bytes","name":"data","type":"bytes"}],"name":"safeTransferFrom","outputs":[],"stateMutability":"nonpayable","type":"function"},{"inputs":[{"internalType":"address","name":"operator","type":"address"},{"internalType":"bool","name":"approved","type":"bool"}],"name":"setApprovalForAll","outputs":[],"stateMutability":"nonpayable","type":"function"},{"inputs":[{"internalType":"bytes4","name":"interfaceId","type":"bytes4"}],"name":"supportsInterface","outputs":[{"internalType":"bool","name":"","type":"bool"}],"stateMutability":"view","type":"function"},{"inputs":[],"name":"symbol","outputs":[{"internalType":"string","name":"","type":"string"}],"stateMutability":"view","type":"function"},{"inputs":[{"internalType":"uint256","name":"tokenId","type":"uint256"}],"name":"tokenURI","outputs":[{"internalType":"string","name":"","type":"string"}],"stateMutability":"view","type":"function"},{"inputs":[{"internalType":"address","name":"from","type":"address"},{"internalType":"address","name":"to","type":"address"},{"internalType":"uint256","name":"tokenId","type":"uint256"}],"name":"transferFrom","outputs":[],"stateMutability":"nonpayable","type":"function"},{"inputs":[{"internalType":"address","name":"newOwner","type":"address"}],"name":"transferOwnership","outputs":[],"stateMutability":"nonpayable","type":"function"}],"evm":{"bytecode":{"linkReferences":{},"object":"60806040523480156200001157600080fd5b5060405162004aca38038062004aca833981810160405281019062000037919062000269565b6040518060400160405280600781526020017f456173794e4654000000000000000000000000000000000000000000000000008152506040518060400160405280600381526020017f4e465400000000000000000000000000000000000000000000000000000000008152508160009081620000b4919062000515565b508060019081620000c6919062000515565b505050620000e9620000dd6200013160201b60201c565b6200013960201b60201c565b80600a60006101000a81548173ffffffffffffffffffffffffffffffffffffffff021916908373ffffffffffffffffffffffffffffffffffffffff16021790555050620005fc565b600033905090565b6000600760009054906101000a900473ffffffffffffffffffffffffffffffffffffffff16905081600760006101000a81548173ffffffffffffffffffffffffffffffffffffffff021916908373ffffffffffffffffffffffffffffffffffffffff1602179055508173ffffffffffffffffffffffffffffffffffffffff168173ffffffffffffffffffffffffffffffffffffffff167f8be0079c531659141344cd1fd0a4f28419497f9722a3daafe3b4186f6b6457e060405160405180910390a35050565b600080fd5b600073ffffffffffffffffffffffffffffffffffffffff82169050919050565b6000620002318262000204565b9050919050565b620002438162000224565b81146200024f57600080fd5b50565b600081519050620002638162000238565b92915050565b600060208284031215620002825762000281620001ff565b5b6000620002928482850162000252565b91505092915050565b600081519050919050565b7f4e487b7100000000000000000000000000000000000000000000000000000000600052604160045260246000fd5b7f4e487b7100000000000000000000000000000000000000000000000000000000600052602260045260246000fd5b600060028204905060018216806200031d57607f821691505b602082108103620003335762000332620002d5565b5b50919050565b60008190508160005260206000209050919050565b60006020601f8301049050919050565b600082821b905092915050565b6000600883026200039d7fffffffffffffffffffffffffffffffffffffffffffffffffffffffffffffffff826200035e565b620003a986836200035e565b95508019841693508086168417925050509392505050565b6000819050919050565b6000819050919050565b6000620003f6620003f0620003ea84620003c1565b620003cb565b620003c1565b9050919050565b6000819050919050565b6200041283620003d5565b6200042a6200042182620003fd565b8484546200036b565b825550505050565b600090565b6200044162000432565b6200044e81848462000407565b505050565b5b8181101562000476576200046a60008262000437565b60018101905062000454565b5050565b601f821115620004c5576200048f8162000339565b6200049a846200034e565b81016020851015620004aa578190505b620004c2620004b9856200034e565b83018262000453565b50505b505050565b600082821c905092915050565b6000620004ea60001984600802620004ca565b1980831691505092915050565b6000620005058383620004d7565b9150826002028217905092915050565b62000520826200029b565b67ffffffffffffffff8111156200053c576200053b620002a6565b5b62000548825462000304565b620005558282856200047a565b600060209050601f8311600181146200058d576000841562000578578287015190505b620005848582620004f7565b865550620005f4565b601f1984166200059d8662000339565b60005b82811015620005c757848901518255600182019150602085019450602081019050620005a0565b86831015620005e75784890151620005e3601f891682620004d7565b8355505b6001600288020188555050505b505050505050565b6144be806200060c6000396000f3fe6080604052600436106101665760003560e01c806363d9d166116100d1578063b2eae0fd1161008a578063d85d3d2711610064578063d85d3d271461053a578063d96a094a14610556578063e985e9c514610572578063f2fde38b146105af57610166565b8063b2eae0fd146104ab578063b88d4fde146104d4578063c87b56dd146104fd57610166565b806363d9d166146103ad57806370a08231146103d8578063715018a6146104155780638da5cb5b1461042c57806395d89b4114610457578063a22cb4651461048257610166565b806329aa3a421161012357806329aa3a421461029f57806331f7d964146102ca5780633983a260146102f557806342842e0e1461031e578063598647f8146103475780636352211e1461037057610166565b806301ffc9a71461016b57806306fdde03146101a8578063081812fc146101d3578063095ea7b314610210578063131d9a271461023957806323b872dd14610276575b600080fd5b34801561017757600080fd5b50610192600480360381019061018d9190612bfe565b6105d8565b60405161019f9190612c46565b60405180910390f35b3480156101b457600080fd5b506101bd6106ba565b6040516101ca9190612cf1565b60405180910390f35b3480156101df57600080fd5b506101fa60048036038101906101f59190612d49565b61074c565b6040516102079190612db7565b60405180910390f35b34801561021c57600080fd5b5061023760048036038101906102329190612dfe565b610792565b005b34801561024557600080fd5b50610260600480360381019061025b9190612d49565b6108a9565b60405161026d9190612f3a565b60405180910390f35b34801561028257600080fd5b5061029d60048036038101906102989190612f5c565b61097b565b005b3480156102ab57600080fd5b506102b46109db565b6040516102c191906130fb565b60405180910390f35b3480156102d657600080fd5b506102df610b29565b6040516102ec9190612db7565b60405180910390f35b34801561030157600080fd5b5061031c6004803603810190610317919061311d565b610b4f565b005b34801561032a57600080fd5b5061034560048036038101906103409190612f5c565b610f6a565b005b34801561035357600080fd5b5061036e6004803603810190610369919061311d565b610f8a565b005b34801561037c57600080fd5b5061039760048036038101906103929190612d49565b611128565b6040516103a49190612db7565b60405180910390f35b3480156103b957600080fd5b506103c26111ae565b6040516103cf919061316c565b60405180910390f35b3480156103e457600080fd5b506103ff60048036038101906103fa9190613187565b6111b9565b60405161040c919061316c565b60405180910390f35b34801561042157600080fd5b5061042a611270565b005b34801561043857600080fd5b50610441611284565b60405161044e9190612db7565b60405180910390f35b34801561046357600080fd5b5061046c6112ae565b6040516104799190612cf1565b60405180910390f35b34801561048e57600080fd5b506104a960048036038101906104a491906131e0565b611340565b005b3480156104b757600080fd5b506104d260048036038101906104cd9190613220565b611356565b005b3480156104e057600080fd5b506104fb60048036038101906104f691906133bc565b611614565b005b34801561050957600080fd5b50610524600480360381019061051f9190612d49565b611676565b6040516105319190612cf1565b60405180910390f35b610554600480360381019061054f91906134e0565b611788565b005b610570600480360381019061056b9190612d49565b611805565b005b34801561057e57600080fd5b5061059960048036038101906105949190613529565b611af3565b6040516105a69190612c46565b60405180910390f35b3480156105bb57600080fd5b506105d660048036038101906105d19190613187565b611b87565b005b60007f80ac58cd000000000000000000000000000000000000000000000000000000007bffffffffffffffffffffffffffffffffffffffffffffffffffffffff1916827bffffffffffffffffffffffffffffffffffffffffffffffffffffffff191614806106a357507f5b5e139f000000000000000000000000000000000000000000000000000000007bffffffffffffffffffffffffffffffffffffffffffffffffffffffff1916827bffffffffffffffffffffffffffffffffffffffffffffffffffffffff1916145b806106b357506106b282611c0a565b5b9050919050565b6060600080546106c990613598565b80601f01602080910402602001604051908101604052809291908181526020018280546106f590613598565b80156107425780601f1061071757610100808354040283529160200191610742565b820191906000526020600020905b81548152906001019060200180831161072557829003601f168201915b5050505050905090565b600061075782611c74565b6004600083815260200190815260200160002060009054906101000a900473ffffffffffffffffffffffffffffffffffffffff169050919050565b600061079d82611128565b90508073ffffffffffffffffffffffffffffffffffffffff168373ffffffffffffffffffffffffffffffffffffffff160361080d576040517f08c379a00000000000000000000000000000000000000000000000000000000081526004016108049061363b565b60405180910390fd5b8073ffffffffffffffffffffffffffffffffffffffff1661082c611cbf565b73ffffffffffffffffffffffffffffffffffffffff16148061085b575061085a81610855611cbf565b611af3565b5b61089a576040517f08c379a0000000000000000000000000000000000000000000000000000000008152600401610891906136cd565b60405180910390fd5b6108a48383611cc7565b505050565b6060600b6000838152602001908152602001600020805480602002602001604051908101604052809291908181526020016000905b828210156109705783829060005260206000209060020201604051806040016040529081600082015481526020016001820160009054906101000a900473ffffffffffffffffffffffffffffffffffffffff1673ffffffffffffffffffffffffffffffffffffffff1673ffffffffffffffffffffffffffffffffffffffff1681525050815260200190600101906108de565b505050509050919050565b61098c610986611cbf565b82611d80565b6109cb576040517f08c379a00000000000000000000000000000000000000000000000000000000081526004016109c29061375f565b60405180910390fd5b6109d6838383611e15565b505050565b6060600c805480602002602001604051908101604052809291908181526020016000905b82821015610b2057838290600052602060002090600702016040518060e0016040529081600082015481526020016001820160009054906101000a900473ffffffffffffffffffffffffffffffffffffffff1673ffffffffffffffffffffffffffffffffffffffff1673ffffffffffffffffffffffffffffffffffffffff1681526020016002820160009054906101000a900473ffffffffffffffffffffffffffffffffffffffff1673ffffffffffffffffffffffffffffffffffffffff1673ffffffffffffffffffffffffffffffffffffffff16815260200160038201548152602001600482015481526020016005820160009054906101000a900460ff16151515158152602001600682015481525050815260200190600101906109ff565b50505050905090565b600a60009054906101000a900473ffffffffffffffffffffffffffffffffffffffff1681565b816000600c600183610b6191906137ae565b81548110610b7257610b716137e2565b5b906000526020600020906007020160010160009054906101000a900473ffffffffffffffffffffffffffffffffffffffff1690508073ffffffffffffffffffffffffffffffffffffffff163373ffffffffffffffffffffffffffffffffffffffff1614610c14576040517f08c379a0000000000000000000000000000000000000000000000000000000008152600401610c0b9061385d565b60405180910390fd5b6000600c600186610c2591906137ae565b81548110610c3657610c356137e2565b5b90600052602060002090600702016040518060e0016040529081600082015481526020016001820160009054906101000a900473ffffffffffffffffffffffffffffffffffffffff1673ffffffffffffffffffffffffffffffffffffffff1673ffffffffffffffffffffffffffffffffffffffff1681526020016002820160009054906101000a900473ffffffffffffffffffffffffffffffffffffffff1673ffffffffffffffffffffffffffffffffffffffff1673ffffffffffffffffffffffffffffffffffffffff16815260200160038201548152602001600482015481526020016005820160009054906101000a900460ff1615151515815260200160068201548152505090506000600b60008781526020019081526020016000208581548110610d6757610d666137e2565b5b9060005260206000209060020201604051806040016040529081600082015481526020016001820160009054906101000a900473ffffffffffffffffffffffffffffffffffffffff1673ffffffffffffffffffffffffffffffffffffffff1673ffffffffffffffffffffffffffffffffffffffff16815250509050816040015173ffffffffffffffffffffffffffffffffffffffff166342842e0e33836020015185606001516040518463ffffffff1660e01b8152600401610e2b9392919061387d565b600060405180830381600087803b158015610e4557600080fd5b505af1158015610e59573d6000803e3d6000fd5b50505050600a60009054906101000a900473ffffffffffffffffffffffffffffffffffffffff1673ffffffffffffffffffffffffffffffffffffffff166323b872dd8260200151846020015184600001516040518463ffffffff1660e01b8152600401610ec89392919061387d565b6020604051808303816000875af1158015610ee7573d6000803e3d6000fd5b505050506040513d601f19601f82011682018060405250810190610f0b91906138c9565b50806020015173ffffffffffffffffffffffffffffffffffffffff167fa0b4f52b19dee1cf7f60b707f83166a1359f5eee5ac1629d3d50c691a264795e8360600151604051610f5a919061316c565b60405180910390a2505050505050565b610f8583838360405180602001604052806000815250611614565b505050565b80600a60009054906101000a900473ffffffffffffffffffffffffffffffffffffffff1673ffffffffffffffffffffffffffffffffffffffff1663dd62ed3e33306040518363ffffffff1660e01b8152600401610fe89291906138f6565b602060405180830381865afa158015611005573d6000803e3d6000fd5b505050506040513d601f19601f820116820180604052508101906110299190613934565b101561106a576040517f08c379a0000000000000000000000000000000000000000000000000000000008152600401611061906139ad565b60405180910390fd5b600b600083815260200190815260200160002060405180604001604052808381526020013373ffffffffffffffffffffffffffffffffffffffff1681525090806001815401808255809150506001900390600052602060002090600202016000909190919091506000820151816000015560208201518160010160006101000a81548173ffffffffffffffffffffffffffffffffffffffff021916908373ffffffffffffffffffffffffffffffffffffffff16021790555050505050565b6000806111348361210a565b9050600073ffffffffffffffffffffffffffffffffffffffff168173ffffffffffffffffffffffffffffffffffffffff16036111a5576040517f08c379a000000000000000000000000000000000000000000000000000000000815260040161119c90613a19565b60405180910390fd5b80915050919050565b662386f26fc1000081565b60008073ffffffffffffffffffffffffffffffffffffffff168273ffffffffffffffffffffffffffffffffffffffff1603611229576040517f08c379a000000000000000000000000000000000000000000000000000000000815260040161122090613aab565b60405180910390fd5b600360008373ffffffffffffffffffffffffffffffffffffffff1673ffffffffffffffffffffffffffffffffffffffff168152602001908152602001600020549050919050565b611278612147565b61128260006121c5565b565b6000600760009054906101000a900473ffffffffffffffffffffffffffffffffffffffff16905090565b6060600180546112bd90613598565b80601f01602080910402602001604051908101604052809291908181526020018280546112e990613598565b80156113365780601f1061130b57610100808354040283529160200191611336565b820191906000526020600020905b81548152906001019060200180831161131957829003601f168201915b5050505050905090565b61135261134b611cbf565b838361228b565b5050565b3073ffffffffffffffffffffffffffffffffffffffff168473ffffffffffffffffffffffffffffffffffffffff1663081812fc856040518263ffffffff1660e01b81526004016113a6919061316c565b602060405180830381865afa1580156113c3573d6000803e3d6000fd5b505050506040513d601f19601f820116820180604052508101906113e79190613ae0565b73ffffffffffffffffffffffffffffffffffffffff161461143d576040517f08c379a000000000000000000000000000000000000000000000000000000000815260040161143490613b59565b60405180910390fd5b61144760086123f7565b600c6040518060e0016040528061145e600861240d565b81526020013373ffffffffffffffffffffffffffffffffffffffff1681526020018673ffffffffffffffffffffffffffffffffffffffff1681526020018581526020018481526020016000151581526020018381525090806001815401808255809150506001900390600052602060002090600702016000909190919091506000820151816000015560208201518160010160006101000a81548173ffffffffffffffffffffffffffffffffffffffff021916908373ffffffffffffffffffffffffffffffffffffffff16021790555060408201518160020160006101000a81548173ffffffffffffffffffffffffffffffffffffffff021916908373ffffffffffffffffffffffffffffffffffffffff160217905550606082015181600301556080820151816004015560a08201518160050160006101000a81548160ff02191690831515021790555060c0820151816006015550503373ffffffffffffffffffffffffffffffffffffffff167f9106fc29572932d03fed1ea084e9a3f7650762e052171c610567a0c85d4f2147856115f8600861240d565b604051611606929190613b79565b60405180910390a250505050565b61162561161f611cbf565b83611d80565b611664576040517f08c379a000000000000000000000000000000000000000000000000000000000815260040161165b9061375f565b60405180910390fd5b6116708484848461241b565b50505050565b606061168182611c74565b60006006600084815260200190815260200160002080546116a190613598565b80601f01602080910402602001604051908101604052809291908181526020018280546116cd90613598565b801561171a5780601f106116ef5761010080835404028352916020019161171a565b820191906000526020600020905b8154815290600101906020018083116116fd57829003601f168201915b50505050509050600061172b612477565b90506000815103611740578192505050611783565b60008251111561177557808260405160200161175d929190613bde565b60405160208183030381529060405292505050611783565b61177e8461248e565b925050505b919050565b662386f26fc100003410156117d2576040517f08c379a00000000000000000000000000000000000000000000000000000000081526004016117c990613c4e565b60405180910390fd5b6117dc60096123f7565b6117ef336117ea600961240d565b6124f6565b6118026117fc600961240d565b8261270f565b50565b6000600c60018361181691906137ae565b81548110611827576118266137e2565b5b90600052602060002090600702016040518060e0016040529081600082015481526020016001820160009054906101000a900473ffffffffffffffffffffffffffffffffffffffff1673ffffffffffffffffffffffffffffffffffffffff1673ffffffffffffffffffffffffffffffffffffffff1681526020016002820160009054906101000a900473ffffffffffffffffffffffffffffffffffffffff1673ffffffffffffffffffffffffffffffffffffffff1673ffffffffffffffffffffffffffffffffffffffff16815260200160038201548152602001600482015481526020016005820160009054906101000a900460ff161515151581526020016006820154815250509050600a60009054906101000a900473ffffffffffffffffffffffffffffffffffffffff1673ffffffffffffffffffffffffffffffffffffffff166323b872dd33836020015184608001516040518463ffffffff1660e01b81526004016119989392919061387d565b6020604051808303816000875af11580156119b7573d6000803e3d6000fd5b505050506040513d601f19601f820116820180604052508101906119db91906138c9565b50806040015173ffffffffffffffffffffffffffffffffffffffff166342842e0e82602001513384606001516040518463ffffffff1660e01b8152600401611a259392919061387d565b600060405180830381600087803b158015611a3f57600080fd5b505af1158015611a53573d6000803e3d6000fd5b505050506001600c600184611a6891906137ae565b81548110611a7957611a786137e2565b5b906000526020600020906007020160050160006101000a81548160ff0219169083151502179055503373ffffffffffffffffffffffffffffffffffffffff167fa0b4f52b19dee1cf7f60b707f83166a1359f5eee5ac1629d3d50c691a264795e83604051611ae7919061316c565b60405180910390a25050565b6000600560008473ffffffffffffffffffffffffffffffffffffffff1673ffffffffffffffffffffffffffffffffffffffff16815260200190815260200160002060008373ffffffffffffffffffffffffffffffffffffffff1673ffffffffffffffffffffffffffffffffffffffff16815260200190815260200160002060009054906101000a900460ff16905092915050565b611b8f612147565b600073ffffffffffffffffffffffffffffffffffffffff168173ffffffffffffffffffffffffffffffffffffffff1603611bfe576040517f08c379a0000000000000000000000000000000000000000000000000000000008152600401611bf590613ce0565b60405180910390fd5b611c07816121c5565b50565b60007f01ffc9a7000000000000000000000000000000000000000000000000000000007bffffffffffffffffffffffffffffffffffffffffffffffffffffffff1916827bffffffffffffffffffffffffffffffffffffffffffffffffffffffff1916149050919050565b611c7d8161277c565b611cbc576040517f08c379a0000000000000000000000000000000000000000000000000000000008152600401611cb390613a19565b60405180910390fd5b50565b600033905090565b816004600083815260200190815260200160002060006101000a81548173ffffffffffffffffffffffffffffffffffffffff021916908373ffffffffffffffffffffffffffffffffffffffff160217905550808273ffffffffffffffffffffffffffffffffffffffff16611d3a83611128565b73ffffffffffffffffffffffffffffffffffffffff167f8c5be1e5ebec7d5bd14f71427d1e84f3dd0314c0f7b2291e5b200ac8c7c3b92560405160405180910390a45050565b600080611d8c83611128565b90508073ffffffffffffffffffffffffffffffffffffffff168473ffffffffffffffffffffffffffffffffffffffff161480611dce5750611dcd8185611af3565b5b80611e0c57508373ffffffffffffffffffffffffffffffffffffffff16611df48461074c565b73ffffffffffffffffffffffffffffffffffffffff16145b91505092915050565b8273ffffffffffffffffffffffffffffffffffffffff16611e3582611128565b73ffffffffffffffffffffffffffffffffffffffff1614611e8b576040517f08c379a0000000000000000000000000000000000000000000000000000000008152600401611e8290613d72565b60405180910390fd5b600073ffffffffffffffffffffffffffffffffffffffff168273ffffffffffffffffffffffffffffffffffffffff1603611efa576040517f08c379a0000000000000000000000000000000000000000000000000000000008152600401611ef190613e04565b60405180910390fd5b611f058383836127bd565b8273ffffffffffffffffffffffffffffffffffffffff16611f2582611128565b73ffffffffffffffffffffffffffffffffffffffff1614611f7b576040517f08c379a0000000000000000000000000000000000000000000000000000000008152600401611f7290613d72565b60405180910390fd5b6004600082815260200190815260200160002060006101000a81549073ffffffffffffffffffffffffffffffffffffffff02191690556001600360008573ffffffffffffffffffffffffffffffffffffffff1673ffffffffffffffffffffffffffffffffffffffff168152602001908152602001600020600082825403925050819055506001600360008473ffffffffffffffffffffffffffffffffffffffff1673ffffffffffffffffffffffffffffffffffffffff16815260200190815260200160002060008282540192505081905550816002600083815260200190815260200160002060006101000a81548173ffffffffffffffffffffffffffffffffffffffff021916908373ffffffffffffffffffffffffffffffffffffffff160217905550808273ffffffffffffffffffffffffffffffffffffffff168473ffffffffffffffffffffffffffffffffffffffff167fddf252ad1be2c89b69c2b068fc378daa952ba7f163c4a11628f55a4df523b3ef60405160405180910390a46121058383836127c2565b505050565b60006002600083815260200190815260200160002060009054906101000a900473ffffffffffffffffffffffffffffffffffffffff169050919050565b61214f611cbf565b73ffffffffffffffffffffffffffffffffffffffff1661216d611284565b73ffffffffffffffffffffffffffffffffffffffff16146121c3576040517f08c379a00000000000000000000000000000000000000000000000000000000081526004016121ba90613e70565b60405180910390fd5b565b6000600760009054906101000a900473ffffffffffffffffffffffffffffffffffffffff16905081600760006101000a81548173ffffffffffffffffffffffffffffffffffffffff021916908373ffffffffffffffffffffffffffffffffffffffff1602179055508173ffffffffffffffffffffffffffffffffffffffff168173ffffffffffffffffffffffffffffffffffffffff167f8be0079c531659141344cd1fd0a4f28419497f9722a3daafe3b4186f6b6457e060405160405180910390a35050565b8173ffffffffffffffffffffffffffffffffffffffff168373ffffffffffffffffffffffffffffffffffffffff16036122f9576040517f08c379a00000000000000000000000000000000000000000000000000000000081526004016122f090613edc565b60405180910390fd5b80600560008573ffffffffffffffffffffffffffffffffffffffff1673ffffffffffffffffffffffffffffffffffffffff16815260200190815260200160002060008473ffffffffffffffffffffffffffffffffffffffff1673ffffffffffffffffffffffffffffffffffffffff16815260200190815260200160002060006101000a81548160ff0219169083151502179055508173ffffffffffffffffffffffffffffffffffffffff168373ffffffffffffffffffffffffffffffffffffffff167f17307eab39ab6107e8899845ad3d59bd9653f200f220920489ca2b5937696c31836040516123ea9190612c46565b60405180910390a3505050565b6001816000016000828254019250508190555050565b600081600001549050919050565b612426848484611e15565b612432848484846127c7565b612471576040517f08c379a000000000000000000000000000000000000000000000000000000000815260040161246890613f6e565b60405180910390fd5b50505050565b606060405180602001604052806000815250905090565b606061249982611c74565b60006124a3612477565b905060008151116124c357604051806020016040528060008152506124ee565b806124cd8461294e565b6040516020016124de929190613bde565b6040516020818303038152906040525b915050919050565b600073ffffffffffffffffffffffffffffffffffffffff168273ffffffffffffffffffffffffffffffffffffffff1603612565576040517f08c379a000000000000000000000000000000000000000000000000000000000815260040161255c90613fda565b60405180910390fd5b61256e8161277c565b156125ae576040517f08c379a00000000000000000000000000000000000000000000000000000000081526004016125a590614046565b60405180910390fd5b6125ba600083836127bd565b6125c38161277c565b15612603576040517f08c379a00000000000000000000000000000000000000000000000000000000081526004016125fa90614046565b60405180910390fd5b6001600360008473ffffffffffffffffffffffffffffffffffffffff1673ffffffffffffffffffffffffffffffffffffffff16815260200190815260200160002060008282540192505081905550816002600083815260200190815260200160002060006101000a81548173ffffffffffffffffffffffffffffffffffffffff021916908373ffffffffffffffffffffffffffffffffffffffff160217905550808273ffffffffffffffffffffffffffffffffffffffff16600073ffffffffffffffffffffffffffffffffffffffff167fddf252ad1be2c89b69c2b068fc378daa952ba7f163c4a11628f55a4df523b3ef60405160405180910390a461270b600083836127c2565b5050565b6127188261277c565b612757576040517f08c379a000000000000000000000000000000000000000000000000000000000815260040161274e906140d8565b60405180910390fd5b8060066000848152602001908152602001600020908161277791906142a4565b505050565b60008073ffffffffffffffffffffffffffffffffffffffff1661279e8361210a565b73ffffffffffffffffffffffffffffffffffffffff1614159050919050565b505050565b505050565b60006127e88473ffffffffffffffffffffffffffffffffffffffff16612a1c565b15612941578373ffffffffffffffffffffffffffffffffffffffff1663150b7a02612811611cbf565b8786866040518563ffffffff1660e01b815260040161283394939291906143cb565b6020604051808303816000875af192505050801561286f57506040513d601f19601f8201168201806040525081019061286c919061442c565b60015b6128f1573d806000811461289f576040519150601f19603f3d011682016040523d82523d6000602084013e6128a4565b606091505b5060008151036128e9576040517f08c379a00000000000000000000000000000000000000000000000000000000081526004016128e090613f6e565b60405180910390fd5b805181602001fd5b63150b7a0260e01b7bffffffffffffffffffffffffffffffffffffffffffffffffffffffff1916817bffffffffffffffffffffffffffffffffffffffffffffffffffffffff191614915050612946565b600190505b949350505050565b60606000600161295d84612a3f565b01905060008167ffffffffffffffff81111561297c5761297b613291565b5b6040519080825280601f01601f1916602001820160405280156129ae5781602001600182028036833780820191505090505b509050600082602001820190505b600115612a11578080600190039150507f3031323334353637383961626364656600000000000000000000000000000000600a86061a8153600a8581612a0557612a04614459565b5b049450600085036129bc575b819350505050919050565b6000808273ffffffffffffffffffffffffffffffffffffffff163b119050919050565b600080600090507a184f03e93ff9f4daa797ed6e38ed64bf6a1f0100000000000000008310612a9d577a184f03e93ff9f4daa797ed6e38ed64bf6a1f0100000000000000008381612a9357612a92614459565b5b0492506040810190505b6d04ee2d6d415b85acef81000000008310612ada576d04ee2d6d415b85acef81000000008381612ad057612acf614459565b5b0492506020810190505b662386f26fc100008310612b0957662386f26fc100008381612aff57612afe614459565b5b0492506010810190505b6305f5e1008310612b32576305f5e1008381612b2857612b27614459565b5b0492506008810190505b6127108310612b57576127108381612b4d57612b4c614459565b5b0492506004810190505b60648310612b7a5760648381612b7057612b6f614459565b5b0492506002810190505b600a8310612b89576001810190505b80915050919050565b6000604051905090565b600080fd5b600080fd5b60007fffffffff0000000000000000000000000000000000000000000000000000000082169050919050565b612bdb81612ba6565b8114612be657600080fd5b50565b600081359050612bf881612bd2565b92915050565b600060208284031215612c1457612c13612b9c565b5b6000612c2284828501612be9565b91505092915050565b60008115159050919050565b612c4081612c2b565b82525050565b6000602082019050612c5b6000830184612c37565b92915050565b600081519050919050565b600082825260208201905092915050565b60005b83811015612c9b578082015181840152602081019050612c80565b60008484015250505050565b6000601f19601f8301169050919050565b6000612cc382612c61565b612ccd8185612c6c565b9350612cdd818560208601612c7d565b612ce681612ca7565b840191505092915050565b60006020820190508181036000830152612d0b8184612cb8565b905092915050565b6000819050919050565b612d2681612d13565b8114612d3157600080fd5b50565b600081359050612d4381612d1d565b92915050565b600060208284031215612d5f57612d5e612b9c565b5b6000612d6d84828501612d34565b91505092915050565b600073ffffffffffffffffffffffffffffffffffffffff82169050919050565b6000612da182612d76565b9050919050565b612db181612d96565b82525050565b6000602082019050612dcc6000830184612da8565b92915050565b612ddb81612d96565b8114612de657600080fd5b50565b600081359050612df881612dd2565b92915050565b60008060408385031215612e1557612e14612b9c565b5b6000612e2385828601612de9565b9250506020612e3485828601612d34565b9150509250929050565b600081519050919050565b600082825260208201905092915050565b6000819050602082019050919050565b612e7381612d13565b82525050565b612e8281612d96565b82525050565b604082016000820151612e9e6000850182612e6a565b506020820151612eb16020850182612e79565b50505050565b6000612ec38383612e88565b60408301905092915050565b6000602082019050919050565b6000612ee782612e3e565b612ef18185612e49565b9350612efc83612e5a565b8060005b83811015612f2d578151612f148882612eb7565b9750612f1f83612ecf565b925050600181019050612f00565b5085935050505092915050565b60006020820190508181036000830152612f548184612edc565b905092915050565b600080600060608486031215612f7557612f74612b9c565b5b6000612f8386828701612de9565b9350506020612f9486828701612de9565b9250506040612fa586828701612d34565b9150509250925092565b600081519050919050565b600082825260208201905092915050565b6000819050602082019050919050565b612fe481612c2b565b82525050565b60e0820160008201516130006000850182612e6a565b5060208201516130136020850182612e79565b5060408201516130266040850182612e79565b5060608201516130396060850182612e6a565b50608082015161304c6080850182612e6a565b5060a082015161305f60a0850182612fdb565b5060c082015161307260c0850182612e6a565b50505050565b60006130848383612fea565b60e08301905092915050565b6000602082019050919050565b60006130a882612faf565b6130b28185612fba565b93506130bd83612fcb565b8060005b838110156130ee5781516130d58882613078565b97506130e083613090565b9250506001810190506130c1565b5085935050505092915050565b60006020820190508181036000830152613115818461309d565b905092915050565b6000806040838503121561313457613133612b9c565b5b600061314285828601612d34565b925050602061315385828601612d34565b9150509250929050565b61316681612d13565b82525050565b6000602082019050613181600083018461315d565b92915050565b60006020828403121561319d5761319c612b9c565b5b60006131ab84828501612de9565b91505092915050565b6131bd81612c2b565b81146131c857600080fd5b50565b6000813590506131da816131b4565b92915050565b600080604083850312156131f7576131f6612b9c565b5b600061320585828601612de9565b9250506020613216858286016131cb565b9150509250929050565b6000806000806080858703121561323a57613239612b9c565b5b600061324887828801612de9565b945050602061325987828801612d34565b935050604061326a87828801612d34565b925050606061327b87828801612d34565b91505092959194509250565b600080fd5b600080fd5b7f4e487b7100000000000000000000000000000000000000000000000000000000600052604160045260246000fd5b6132c982612ca7565b810181811067ffffffffffffffff821117156132e8576132e7613291565b5b80604052505050565b60006132fb612b92565b905061330782826132c0565b919050565b600067ffffffffffffffff82111561332757613326613291565b5b61333082612ca7565b9050602081019050919050565b82818337600083830152505050565b600061335f61335a8461330c565b6132f1565b90508281526020810184848401111561337b5761337a61328c565b5b61338684828561333d565b509392505050565b600082601f8301126133a3576133a2613287565b5b81356133b384826020860161334c565b91505092915050565b600080600080608085870312156133d6576133d5612b9c565b5b60006133e487828801612de9565b94505060206133f587828801612de9565b935050604061340687828801612d34565b925050606085013567ffffffffffffffff81111561342757613426612ba1565b5b6134338782880161338e565b91505092959194509250565b600067ffffffffffffffff82111561345a57613459613291565b5b61346382612ca7565b9050602081019050919050565b600061348361347e8461343f565b6132f1565b90508281526020810184848401111561349f5761349e61328c565b5b6134aa84828561333d565b509392505050565b600082601f8301126134c7576134c6613287565b5b81356134d7848260208601613470565b91505092915050565b6000602082840312156134f6576134f5612b9c565b5b600082013567ffffffffffffffff81111561351457613513612ba1565b5b613520848285016134b2565b91505092915050565b600080604083850312156135405761353f612b9c565b5b600061354e85828601612de9565b925050602061355f85828601612de9565b9150509250929050565b7f4e487b7100000000000000000000000000000000000000000000000000000000600052602260045260246000fd5b600060028204905060018216806135b057607f821691505b6020821081036135c3576135c2613569565b5b50919050565b7f4552433732313a20617070726f76616c20746f2063757272656e74206f776e6560008201527f7200000000000000000000000000000000000000000000000000000000000000602082015250565b6000613625602183612c6c565b9150613630826135c9565b604082019050919050565b6000602082019050818103600083015261365481613618565b9050919050565b7f4552433732313a20617070726f76652063616c6c6572206973206e6f7420746f60008201527f6b656e206f776e6572206f7220617070726f76656420666f7220616c6c000000602082015250565b60006136b7603d83612c6c565b91506136c28261365b565b604082019050919050565b600060208201905081810360008301526136e6816136aa565b9050919050565b7f4552433732313a2063616c6c6572206973206e6f7420746f6b656e206f776e6560008201527f72206f7220617070726f76656400000000000000000000000000000000000000602082015250565b6000613749602d83612c6c565b9150613754826136ed565b604082019050919050565b600060208201905081810360008301526137788161373c565b9050919050565b7f4e487b7100000000000000000000000000000000000000000000000000000000600052601160045260246000fd5b60006137b982612d13565b91506137c483612d13565b92508282039050818111156137dc576137db61377f565b5b92915050565b7f4e487b7100000000000000000000000000000000000000000000000000000000600052603260045260246000fd5b7f6d73672e73656e646572213d73656c6c65720000000000000000000000000000600082015250565b6000613847601283612c6c565b915061385282613811565b602082019050919050565b600060208201905081810360008301526138768161383a565b9050919050565b60006060820190506138926000830186612da8565b61389f6020830185612da8565b6138ac604083018461315d565b949350505050565b6000815190506138c3816131b4565b92915050565b6000602082840312156138df576138de612b9c565b5b60006138ed848285016138b4565b91505092915050565b600060408201905061390b6000830185612da8565b6139186020830184612da8565b9392505050565b60008151905061392e81612d1d565b92915050565b60006020828403121561394a57613949612b9c565b5b60006139588482850161391f565b91505092915050565b7f496e73756666696369656e7420455243323020616c6c6f77616e636500000000600082015250565b6000613997601c83612c6c565b91506139a282613961565b602082019050919050565b600060208201905081810360008301526139c68161398a565b9050919050565b7f4552433732313a20696e76616c696420746f6b656e2049440000000000000000600082015250565b6000613a03601883612c6c565b9150613a0e826139cd565b602082019050919050565b60006020820190508181036000830152613a32816139f6565b9050919050565b7f4552433732313a2061646472657373207a65726f206973206e6f74206120766160008201527f6c6964206f776e65720000000000000000000000000000000000000000000000602082015250565b6000613a95602983612c6c565b9150613aa082613a39565b604082019050919050565b60006020820190508181036000830152613ac481613a88565b9050919050565b600081519050613ada81612dd2565b92915050565b600060208284031215613af657613af5612b9c565b5b6000613b0484828501613acb565b91505092915050565b7f455243373231206e6f7420617070726f76656400000000000000000000000000600082015250565b6000613b43601383612c6c565b9150613b4e82613b0d565b602082019050919050565b60006020820190508181036000830152613b7281613b36565b9050919050565b6000604082019050613b8e6000830185612da8565b613b9b602083018461315d565b9392505050565b600081905092915050565b6000613bb882612c61565b613bc28185613ba2565b9350613bd2818560208601612c7d565b80840191505092915050565b6000613bea8285613bad565b9150613bf68284613bad565b91508190509392505050565b7f4d75737420706179206d696e74696e6720707269636500000000000000000000600082015250565b6000613c38601683612c6c565b9150613c4382613c02565b602082019050919050565b60006020820190508181036000830152613c6781613c2b565b9050919050565b7f4f776e61626c653a206e6577206f776e657220697320746865207a65726f206160008201527f6464726573730000000000000000000000000000000000000000000000000000602082015250565b6000613cca602683612c6c565b9150613cd582613c6e565b604082019050919050565b60006020820190508181036000830152613cf981613cbd565b9050919050565b7f4552433732313a207472616e736665722066726f6d20696e636f72726563742060008201527f6f776e6572000000000000000000000000000000000000000000000000000000602082015250565b6000613d5c602583612c6c565b9150613d6782613d00565b604082019050919050565b60006020820190508181036000830152613d8b81613d4f565b9050919050565b7f4552433732313a207472616e7366657220746f20746865207a65726f2061646460008201527f7265737300000000000000000000000000000000000000000000000000000000602082015250565b6000613dee602483612c6c565b9150613df982613d92565b604082019050919050565b60006020820190508181036000830152613e1d81613de1565b9050919050565b7f4f776e61626c653a2063616c6c6572206973206e6f7420746865206f776e6572600082015250565b6000613e5a602083612c6c565b9150613e6582613e24565b602082019050919050565b60006020820190508181036000830152613e8981613e4d565b9050919050565b7f4552433732313a20617070726f766520746f2063616c6c657200000000000000600082015250565b6000613ec6601983612c6c565b9150613ed182613e90565b602082019050919050565b60006020820190508181036000830152613ef581613eb9565b9050919050565b7f4552433732313a207472616e7366657220746f206e6f6e20455243373231526560008201527f63656976657220696d706c656d656e7465720000000000000000000000000000602082015250565b6000613f58603283612c6c565b9150613f6382613efc565b604082019050919050565b60006020820190508181036000830152613f8781613f4b565b9050919050565b7f4552433732313a206d696e7420746f20746865207a65726f2061646472657373600082015250565b6000613fc4602083612c6c565b9150613fcf82613f8e565b602082019050919050565b60006020820190508181036000830152613ff381613fb7565b9050919050565b7f4552433732313a20746f6b656e20616c7265616479206d696e74656400000000600082015250565b6000614030601c83612c6c565b915061403b82613ffa565b602082019050919050565b6000602082019050818103600083015261405f81614023565b9050919050565b7f45524337323155524953746f726167653a2055524920736574206f66206e6f6e60008201527f6578697374656e7420746f6b656e000000000000000000000000000000000000602082015250565b60006140c2602e83612c6c565b91506140cd82614066565b604082019050919050565b600060208201905081810360008301526140f1816140b5565b9050919050565b60008190508160005260206000209050919050565b60006020601f8301049050919050565b600082821b905092915050565b60006008830261415a7fffffffffffffffffffffffffffffffffffffffffffffffffffffffffffffffff8261411d565b614164868361411d565b95508019841693508086168417925050509392505050565b6000819050919050565b60006141a161419c61419784612d13565b61417c565b612d13565b9050919050565b6000819050919050565b6141bb83614186565b6141cf6141c7826141a8565b84845461412a565b825550505050565b600090565b6141e46141d7565b6141ef8184846141b2565b505050565b5b81811015614213576142086000826141dc565b6001810190506141f5565b5050565b601f82111561425857614229816140f8565b6142328461410d565b81016020851015614241578190505b61425561424d8561410d565b8301826141f4565b50505b505050565b600082821c905092915050565b600061427b6000198460080261425d565b1980831691505092915050565b6000614294838361426a565b9150826002028217905092915050565b6142ad82612c61565b67ffffffffffffffff8111156142c6576142c5613291565b5b6142d08254613598565b6142db828285614217565b600060209050601f83116001811461430e57600084156142fc578287015190505b6143068582614288565b86555061436e565b601f19841661431c866140f8565b60005b828110156143445784890151825560018201915060208501945060208101905061431f565b86831015614361578489015161435d601f89168261426a565b8355505b6001600288020188555050505b505050505050565b600081519050919050565b600082825260208201905092915050565b600061439d82614376565b6143a78185614381565b93506143b7818560208601612c7d565b6143c081612ca7565b840191505092915050565b60006080820190506143e06000830187612da8565b6143ed6020830186612da8565b6143fa604083018561315d565b818103606083015261440c8184614392565b905095945050505050565b60008151905061442681612bd2565b92915050565b60006020828403121561444257614441612b9c565b5b600061445084828501614417565b91505092915050565b7f4e487b7100000000000000000000000000000000000000000000000000000000600052601260045260246000fdfea264697066735822122074985eba9e457475aa5fcd16e5852025644c55aeecdea402c8a025b6d068983364736f6c63430008110033","opcodes":"PUSH1 0x80 PUSH1 0x40 MSTORE CALLVALUE DUP1 ISZERO PUSH3 0x11 JUMPI PUSH1 0x0 DUP1 REVERT JUMPDEST POP PUSH1 0x40 MLOAD PUSH3 0x4ACA CODESIZE SUB DUP1 PUSH3 0x4ACA DUP4 CODECOPY DUP2 DUP2 ADD PUSH1 0x40 MSTORE DUP2 ADD SWAP1 PUSH3 0x37 SWAP2 SWAP1 PUSH3 0x269 JUMP JUMPDEST PUSH1 0x40 MLOAD DUP1 PUSH1 0x40 ADD PUSH1 0x40 MSTORE DUP1 PUSH1 0x7 DUP2 MSTORE PUSH1 0x20 ADD PUSH32 0x456173794E465400000000000000000000000000000000000000000000000000 DUP2 MSTORE POP PUSH1 0x40 MLOAD DUP1 PUSH1 0x40 ADD PUSH1 0x40 MSTORE DUP1 PUSH1 0x3 DUP2 MSTORE PUSH1 0x20 ADD PUSH32 0x4E46540000000000000000000000000000000000000000000000000000000000 DUP2 MSTORE POP DUP2 PUSH1 0x0 SWAP1 DUP2 PUSH3 0xB4 SWAP2 SWAP1 PUSH3 0x515 JUMP JUMPDEST POP DUP1 PUSH1 0x1 SWAP1 DUP2 PUSH3 0xC6 SWAP2 SWAP1 PUSH3 0x515 JUMP JUMPDEST POP POP POP PUSH3 0xE9 PUSH3 0xDD PUSH3 0x131 PUSH1 0x20 SHL PUSH1 0x20 SHR JUMP JUMPDEST PUSH3 0x139 PUSH1 0x20 SHL PUSH1 0x20 SHR JUMP JUMPDEST DUP1 PUSH1 0xA PUSH1 0x0 PUSH2 0x100 EXP DUP2 SLOAD DUP2 PUSH20 0xFFFFFFFFFFFFFFFFFFFFFFFFFFFFFFFFFFFFFFFF MUL NOT AND SWAP1 DUP4 PUSH20 0xFFFFFFFFFFFFFFFFFFFFFFFFFFFFFFFFFFFFFFFF AND MUL OR SWAP1 SSTORE POP POP PUSH3 0x5FC JUMP JUMPDEST PUSH1 0x0 CALLER SWAP1 POP SWAP1 JUMP JUMPDEST PUSH1 0x0 PUSH1 0x7 PUSH1 0x0 SWAP1 SLOAD SWAP1 PUSH2 0x100 EXP SWAP1 DIV PUSH20 0xFFFFFFFFFFFFFFFFFFFFFFFFFFFFFFFFFFFFFFFF AND SWAP1 POP DUP2 PUSH1 0x7 PUSH1 0x0 PUSH2 0x100 EXP DUP2 SLOAD DUP2 PUSH20 0xFFFFFFFFFFFFFFFFFFFFFFFFFFFFFFFFFFFFFFFF MUL NOT AND SWAP1 DUP4 PUSH20 0xFFFFFFFFFFFFFFFFFFFFFFFFFFFFFFFFFFFFFFFF AND MUL OR SWAP1 SSTORE POP DUP2 PUSH20 0xFFFFFFFFFFFFFFFFFFFFFFFFFFFFFFFFFFFFFFFF AND DUP2 PUSH20 0xFFFFFFFFFFFFFFFFFFFFFFFFFFFFFFFFFFFFFFFF AND PUSH32 0x8BE0079C531659141344CD1FD0A4F28419497F9722A3DAAFE3B4186F6B6457E0 PUSH1 0x40 MLOAD PUSH1 0x40 MLOAD DUP1 SWAP2 SUB SWAP1 LOG3 POP POP JUMP JUMPDEST PUSH1 0x0 DUP1 REVERT JUMPDEST PUSH1 0x0 PUSH20 0xFFFFFFFFFFFFFFFFFFFFFFFFFFFFFFFFFFFFFFFF DUP3 AND SWAP1 POP SWAP2 SWAP1 POP JUMP JUMPDEST PUSH1 0x0 PUSH3 0x231 DUP3 PUSH3 0x204 JUMP JUMPDEST SWAP1 POP SWAP2 SWAP1 POP JUMP JUMPDEST PUSH3 0x243 DUP2 PUSH3 0x224 JUMP JUMPDEST DUP2 EQ PUSH3 0x24F JUMPI PUSH1 0x0 DUP1 REVERT JUMPDEST POP JUMP JUMPDEST PUSH1 0x0 DUP2 MLOAD SWAP1 POP PUSH3 0x263 DUP2 PUSH3 0x238 JUMP JUMPDEST SWAP3 SWAP2 POP POP JUMP JUMPDEST PUSH1 0x0 PUSH1 0x20 DUP3 DUP5 SUB SLT ISZERO PUSH3 0x282 JUMPI PUSH3 0x281 PUSH3 0x1FF JUMP JUMPDEST JUMPDEST PUSH1 0x0 PUSH3 0x292 DUP5 DUP3 DUP6 ADD PUSH3 0x252 JUMP JUMPDEST SWAP2 POP POP SWAP3 SWAP2 POP POP JUMP JUMPDEST PUSH1 0x0 DUP2 MLOAD SWAP1 POP SWAP2 SWAP1 POP JUMP JUMPDEST PUSH32 0x4E487B7100000000000000000000000000000000000000000000000000000000 PUSH1 0x0 MSTORE PUSH1 0x41 PUSH1 0x4 MSTORE PUSH1 0x24 PUSH1 0x0 REVERT JUMPDEST PUSH32 0x4E487B7100000000000000000000000000000000000000000000000000000000 PUSH1 0x0 MSTORE PUSH1 0x22 PUSH1 0x4 MSTORE PUSH1 0x24 PUSH1 0x0 REVERT JUMPDEST PUSH1 0x0 PUSH1 0x2 DUP3 DIV SWAP1 POP PUSH1 0x1 DUP3 AND DUP1 PUSH3 0x31D JUMPI PUSH1 0x7F DUP3 AND SWAP2 POP JUMPDEST PUSH1 0x20 DUP3 LT DUP2 SUB PUSH3 0x333 JUMPI PUSH3 0x332 PUSH3 0x2D5 JUMP JUMPDEST JUMPDEST POP SWAP2 SWAP1 POP JUMP JUMPDEST PUSH1 0x0 DUP2 SWAP1 POP DUP2 PUSH1 0x0 MSTORE PUSH1 0x20 PUSH1 0x0 KECCAK256 SWAP1 POP SWAP2 SWAP1 POP JUMP JUMPDEST PUSH1 0x0 PUSH1 0x20 PUSH1 0x1F DUP4 ADD DIV SWAP1 POP SWAP2 SWAP1 POP JUMP JUMPDEST PUSH1 0x0 DUP3 DUP3 SHL SWAP1 POP SWAP3 SWAP2 POP POP JUMP JUMPDEST PUSH1 0x0 PUSH1 0x8 DUP4 MUL PUSH3 0x39D PUSH32 0xFFFFFFFFFFFFFFFFFFFFFFFFFFFFFFFFFFFFFFFFFFFFFFFFFFFFFFFFFFFFFFFF DUP3 PUSH3 0x35E JUMP JUMPDEST PUSH3 0x3A9 DUP7 DUP4 PUSH3 0x35E JUMP JUMPDEST SWAP6 POP DUP1 NOT DUP5 AND SWAP4 POP DUP1 DUP7 AND DUP5 OR SWAP3 POP POP POP SWAP4 SWAP3 POP POP POP JUMP JUMPDEST PUSH1 0x0 DUP2 SWAP1 POP SWAP2 SWAP1 POP JUMP JUMPDEST PUSH1 0x0 DUP2 SWAP1 POP SWAP2 SWAP1 POP JUMP JUMPDEST PUSH1 0x0 PUSH3 0x3F6 PUSH3 0x3F0 PUSH3 0x3EA DUP5 PUSH3 0x3C1 JUMP JUMPDEST PUSH3 0x3CB JUMP JUMPDEST PUSH3 0x3C1 JUMP JUMPDEST SWAP1 POP SWAP2 SWAP1 POP JUMP JUMPDEST PUSH1 0x0 DUP2 SWAP1 POP SWAP2 SWAP1 POP JUMP JUMPDEST PUSH3 0x412 DUP4 PUSH3 0x3D5 JUMP JUMPDEST PUSH3 0x42A PUSH3 0x421 DUP3 PUSH3 0x3FD JUMP JUMPDEST DUP5 DUP5 SLOAD PUSH3 0x36B JUMP JUMPDEST DUP3 SSTORE POP POP POP POP JUMP JUMPDEST PUSH1 0x0 SWAP1 JUMP JUMPDEST PUSH3 0x441 PUSH3 0x432 JUMP JUMPDEST PUSH3 0x44E DUP2 DUP5 DUP5 PUSH3 0x407 JUMP JUMPDEST POP POP POP JUMP JUMPDEST JUMPDEST DUP2 DUP2 LT ISZERO PUSH3 0x476 JUMPI PUSH3 0x46A PUSH1 0x0 DUP3 PUSH3 0x437 JUMP JUMPDEST PUSH1 0x1 DUP2 ADD SWAP1 POP PUSH3 0x454 JUMP JUMPDEST POP POP JUMP JUMPDEST PUSH1 0x1F DUP3 GT ISZERO PUSH3 0x4C5 JUMPI PUSH3 0x48F DUP2 PUSH3 0x339 JUMP JUMPDEST PUSH3 0x49A DUP5 PUSH3 0x34E JUMP JUMPDEST DUP2 ADD PUSH1 0x20 DUP6 LT ISZERO PUSH3 0x4AA JUMPI DUP2 SWAP1 POP JUMPDEST PUSH3 0x4C2 PUSH3 0x4B9 DUP6 PUSH3 0x34E JUMP JUMPDEST DUP4 ADD DUP3 PUSH3 0x453 JUMP JUMPDEST POP POP JUMPDEST POP POP POP JUMP JUMPDEST PUSH1 0x0 DUP3 DUP3 SHR SWAP1 POP SWAP3 SWAP2 POP POP JUMP JUMPDEST PUSH1 0x0 PUSH3 0x4EA PUSH1 0x0 NOT DUP5 PUSH1 0x8 MUL PUSH3 0x4CA JUMP JUMPDEST NOT DUP1 DUP4 AND SWAP2 POP POP SWAP3 SWAP2 POP POP JUMP JUMPDEST PUSH1 0x0 PUSH3 0x505 DUP4 DUP4 PUSH3 0x4D7 JUMP JUMPDEST SWAP2 POP DUP3 PUSH1 0x2 MUL DUP3 OR SWAP1 POP SWAP3 SWAP2 POP POP JUMP JUMPDEST PUSH3 0x520 DUP3 PUSH3 0x29B JUMP JUMPDEST PUSH8 0xFFFFFFFFFFFFFFFF DUP2 GT ISZERO PUSH3 0x53C JUMPI PUSH3 0x53B PUSH3 0x2A6 JUMP JUMPDEST JUMPDEST PUSH3 0x548 DUP3 SLOAD PUSH3 0x304 JUMP JUMPDEST PUSH3 0x555 DUP3 DUP3 DUP6 PUSH3 0x47A JUMP JUMPDEST PUSH1 0x0 PUSH1 0x20 SWAP1 POP PUSH1 0x1F DUP4 GT PUSH1 0x1 DUP2 EQ PUSH3 0x58D JUMPI PUSH1 0x0 DUP5 ISZERO PUSH3 0x578 JUMPI DUP3 DUP8 ADD MLOAD SWAP1 POP JUMPDEST PUSH3 0x584 DUP6 DUP3 PUSH3 0x4F7 JUMP JUMPDEST DUP7 SSTORE POP PUSH3 0x5F4 JUMP JUMPDEST PUSH1 0x1F NOT DUP5 AND PUSH3 0x59D DUP7 PUSH3 0x339 JUMP JUMPDEST PUSH1 0x0 JUMPDEST DUP3 DUP2 LT ISZERO PUSH3 0x5C7 JUMPI DUP5 DUP10 ADD MLOAD DUP3 SSTORE PUSH1 0x1 DUP3 ADD SWAP2 POP PUSH1 0x20 DUP6 ADD SWAP5 POP PUSH1 0x20 DUP2 ADD SWAP1 POP PUSH3 0x5A0 JUMP JUMPDEST DUP7 DUP4 LT ISZERO PUSH3 0x5E7 JUMPI DUP5 DUP10 ADD MLOAD PUSH3 0x5E3 PUSH1 0x1F DUP10 AND DUP3 PUSH3 0x4D7 JUMP JUMPDEST DUP4 SSTORE POP JUMPDEST PUSH1 0x1 PUSH1 0x2 DUP9 MUL ADD DUP9 SSTORE POP POP POP JUMPDEST POP POP POP POP POP POP JUMP JUMPDEST PUSH2 0x44BE DUP1 PUSH3 0x60C PUSH1 0x0 CODECOPY PUSH1 0x0 RETURN INVALID PUSH1 0x80 PUSH1 0x40 MSTORE PUSH1 0x4 CALLDATASIZE LT PUSH2 0x166 JUMPI PUSH1 0x0 CALLDATALOAD PUSH1 0xE0 SHR DUP1 PUSH4 0x63D9D166 GT PUSH2 0xD1 JUMPI DUP1 PUSH4 0xB2EAE0FD GT PUSH2 0x8A JUMPI DUP1 PUSH4 0xD85D3D27 GT PUSH2 0x64 JUMPI DUP1 PUSH4 0xD85D3D27 EQ PUSH2 0x53A JUMPI DUP1 PUSH4 0xD96A094A EQ PUSH2 0x556 JUMPI DUP1 PUSH4 0xE985E9C5 EQ PUSH2 0x572 JUMPI DUP1 PUSH4 0xF2FDE38B EQ PUSH2 0x5AF JUMPI PUSH2 0x166 JUMP JUMPDEST DUP1 PUSH4 0xB2EAE0FD EQ PUSH2 0x4AB JUMPI DUP1 PUSH4 0xB88D4FDE EQ PUSH2 0x4D4 JUMPI DUP1 PUSH4 0xC87B56DD EQ PUSH2 0x4FD JUMPI PUSH2 0x166 JUMP JUMPDEST DUP1 PUSH4 0x63D9D166 EQ PUSH2 0x3AD JUMPI DUP1 PUSH4 0x70A08231 EQ PUSH2 0x3D8 JUMPI DUP1 PUSH4 0x715018A6 EQ PUSH2 0x415 JUMPI DUP1 PUSH4 0x8DA5CB5B EQ PUSH2 0x42C JUMPI DUP1 PUSH4 0x95D89B41 EQ PUSH2 0x457 JUMPI DUP1 PUSH4 0xA22CB465 EQ PUSH2 0x482 JUMPI PUSH2 0x166 JUMP JUMPDEST DUP1 PUSH4 0x29AA3A42 GT PUSH2 0x123 JUMPI DUP1 PUSH4 0x29AA3A42 EQ PUSH2 0x29F JUMPI DUP1 PUSH4 0x31F7D964 EQ PUSH2 0x2CA JUMPI DUP1 PUSH4 0x3983A260 EQ PUSH2 0x2F5 JUMPI DUP1 PUSH4 0x42842E0E EQ PUSH2 0x31E JUMPI DUP1 PUSH4 0x598647F8 EQ PUSH2 0x347 JUMPI DUP1 PUSH4 0x6352211E EQ PUSH2 0x370 JUMPI PUSH2 0x166 JUMP JUMPDEST DUP1 PUSH4 0x1FFC9A7 EQ PUSH2 0x16B JUMPI DUP1 PUSH4 0x6FDDE03 EQ PUSH2 0x1A8 JUMPI DUP1 PUSH4 0x81812FC EQ PUSH2 0x1D3 JUMPI DUP1 PUSH4 0x95EA7B3 EQ PUSH2 0x210 JUMPI DUP1 PUSH4 0x131D9A27 EQ PUSH2 0x239 JUMPI DUP1 PUSH4 0x23B872DD EQ PUSH2 0x276 JUMPI JUMPDEST PUSH1 0x0 DUP1 REVERT JUMPDEST CALLVALUE DUP1 ISZERO PUSH2 0x177 JUMPI PUSH1 0x0 DUP1 REVERT JUMPDEST POP PUSH2 0x192 PUSH1 0x4 DUP1 CALLDATASIZE SUB DUP2 ADD SWAP1 PUSH2 0x18D SWAP2 SWAP1 PUSH2 0x2BFE JUMP JUMPDEST PUSH2 0x5D8 JUMP JUMPDEST PUSH1 0x40 MLOAD PUSH2 0x19F SWAP2 SWAP1 PUSH2 0x2C46 JUMP JUMPDEST PUSH1 0x40 MLOAD DUP1 SWAP2 SUB SWAP1 RETURN JUMPDEST CALLVALUE DUP1 ISZERO PUSH2 0x1B4 JUMPI PUSH1 0x0 DUP1 REVERT JUMPDEST POP PUSH2 0x1BD PUSH2 0x6BA JUMP JUMPDEST PUSH1 0x40 MLOAD PUSH2 0x1CA SWAP2 SWAP1 PUSH2 0x2CF1 JUMP JUMPDEST PUSH1 0x40 MLOAD DUP1 SWAP2 SUB SWAP1 RETURN JUMPDEST CALLVALUE DUP1 ISZERO PUSH2 0x1DF JUMPI PUSH1 0x0 DUP1 REVERT JUMPDEST POP PUSH2 0x1FA PUSH1 0x4 DUP1 CALLDATASIZE SUB DUP2 ADD SWAP1 PUSH2 0x1F5 SWAP2 SWAP1 PUSH2 0x2D49 JUMP JUMPDEST PUSH2 0x74C JUMP JUMPDEST PUSH1 0x40 MLOAD PUSH2 0x207 SWAP2 SWAP1 PUSH2 0x2DB7 JUMP JUMPDEST PUSH1 0x40 MLOAD DUP1 SWAP2 SUB SWAP1 RETURN JUMPDEST CALLVALUE DUP1 ISZERO PUSH2 0x21C JUMPI PUSH1 0x0 DUP1 REVERT JUMPDEST POP PUSH2 0x237 PUSH1 0x4 DUP1 CALLDATASIZE SUB DUP2 ADD SWAP1 PUSH2 0x232 SWAP2 SWAP1 PUSH2 0x2DFE JUMP JUMPDEST PUSH2 0x792 JUMP JUMPDEST STOP JUMPDEST CALLVALUE DUP1 ISZERO PUSH2 0x245 JUMPI PUSH1 0x0 DUP1 REVERT JUMPDEST POP PUSH2 0x260 PUSH1 0x4 DUP1 CALLDATASIZE SUB DUP2 ADD SWAP1 PUSH2 0x25B SWAP2 SWAP1 PUSH2 0x2D49 JUMP JUMPDEST PUSH2 0x8A9 JUMP JUMPDEST PUSH1 0x40 MLOAD PUSH2 0x26D SWAP2 SWAP1 PUSH2 0x2F3A JUMP JUMPDEST PUSH1 0x40 MLOAD DUP1 SWAP2 SUB SWAP1 RETURN JUMPDEST CALLVALUE DUP1 ISZERO PUSH2 0x282 JUMPI PUSH1 0x0 DUP1 REVERT JUMPDEST POP PUSH2 0x29D PUSH1 0x4 DUP1 CALLDATASIZE SUB DUP2 ADD SWAP1 PUSH2 0x298 SWAP2 SWAP1 PUSH2 0x2F5C JUMP JUMPDEST PUSH2 0x97B JUMP JUMPDEST STOP JUMPDEST CALLVALUE DUP1 ISZERO PUSH2 0x2AB JUMPI PUSH1 0x0 DUP1 REVERT JUMPDEST POP PUSH2 0x2B4 PUSH2 0x9DB JUMP JUMPDEST PUSH1 0x40 MLOAD PUSH2 0x2C1 SWAP2 SWAP1 PUSH2 0x30FB JUMP JUMPDEST PUSH1 0x40 MLOAD DUP1 SWAP2 SUB SWAP1 RETURN JUMPDEST CALLVALUE DUP1 ISZERO PUSH2 0x2D6 JUMPI PUSH1 0x0 DUP1 REVERT JUMPDEST POP PUSH2 0x2DF PUSH2 0xB29 JUMP JUMPDEST PUSH1 0x40 MLOAD PUSH2 0x2EC SWAP2 SWAP1 PUSH2 0x2DB7 JUMP JUMPDEST PUSH1 0x40 MLOAD DUP1 SWAP2 SUB SWAP1 RETURN JUMPDEST CALLVALUE DUP1 ISZERO PUSH2 0x301 JUMPI PUSH1 0x0 DUP1 REVERT JUMPDEST POP PUSH2 0x31C PUSH1 0x4 DUP1 CALLDATASIZE SUB DUP2 ADD SWAP1 PUSH2 0x317 SWAP2 SWAP1 PUSH2 0x311D JUMP JUMPDEST PUSH2 0xB4F JUMP JUMPDEST STOP JUMPDEST CALLVALUE DUP1 ISZERO PUSH2 0x32A JUMPI PUSH1 0x0 DUP1 REVERT JUMPDEST POP PUSH2 0x345 PUSH1 0x4 DUP1 CALLDATASIZE SUB DUP2 ADD SWAP1 PUSH2 0x340 SWAP2 SWAP1 PUSH2 0x2F5C JUMP JUMPDEST PUSH2 0xF6A JUMP JUMPDEST STOP JUMPDEST CALLVALUE DUP1 ISZERO PUSH2 0x353 JUMPI PUSH1 0x0 DUP1 REVERT JUMPDEST POP PUSH2 0x36E PUSH1 0x4 DUP1 CALLDATASIZE SUB DUP2 ADD SWAP1 PUSH2 0x369 SWAP2 SWAP1 PUSH2 0x311D JUMP JUMPDEST PUSH2 0xF8A JUMP JUMPDEST STOP JUMPDEST CALLVALUE DUP1 ISZERO PUSH2 0x37C JUMPI PUSH1 0x0 DUP1 REVERT JUMPDEST POP PUSH2 0x397 PUSH1 0x4 DUP1 CALLDATASIZE SUB DUP2 ADD SWAP1 PUSH2 0x392 SWAP2 SWAP1 PUSH2 0x2D49 JUMP JUMPDEST PUSH2 0x1128 JUMP JUMPDEST PUSH1 0x40 MLOAD PUSH2 0x3A4 SWAP2 SWAP1 PUSH2 0x2DB7 JUMP JUMPDEST PUSH1 0x40 MLOAD DUP1 SWAP2 SUB SWAP1 RETURN JUMPDEST CALLVALUE DUP1 ISZERO PUSH2 0x3B9 JUMPI PUSH1 0x0 DUP1 REVERT JUMPDEST POP PUSH2 0x3C2 PUSH2 0x11AE JUMP JUMPDEST PUSH1 0x40 MLOAD PUSH2 0x3CF SWAP2 SWAP1 PUSH2 0x316C JUMP JUMPDEST PUSH1 0x40 MLOAD DUP1 SWAP2 SUB SWAP1 RETURN JUMPDEST CALLVALUE DUP1 ISZERO PUSH2 0x3E4 JUMPI PUSH1 0x0 DUP1 REVERT JUMPDEST POP PUSH2 0x3FF PUSH1 0x4 DUP1 CALLDATASIZE SUB DUP2 ADD SWAP1 PUSH2 0x3FA SWAP2 SWAP1 PUSH2 0x3187 JUMP JUMPDEST PUSH2 0x11B9 JUMP JUMPDEST PUSH1 0x40 MLOAD PUSH2 0x40C SWAP2 SWAP1 PUSH2 0x316C JUMP JUMPDEST PUSH1 0x40 MLOAD DUP1 SWAP2 SUB SWAP1 RETURN JUMPDEST CALLVALUE DUP1 ISZERO PUSH2 0x421 JUMPI PUSH1 0x0 DUP1 REVERT JUMPDEST POP PUSH2 0x42A PUSH2 0x1270 JUMP JUMPDEST STOP JUMPDEST CALLVALUE DUP1 ISZERO PUSH2 0x438 JUMPI PUSH1 0x0 DUP1 REVERT JUMPDEST POP PUSH2 0x441 PUSH2 0x1284 JUMP JUMPDEST PUSH1 0x40 MLOAD PUSH2 0x44E SWAP2 SWAP1 PUSH2 0x2DB7 JUMP JUMPDEST PUSH1 0x40 MLOAD DUP1 SWAP2 SUB SWAP1 RETURN JUMPDEST CALLVALUE DUP1 ISZERO PUSH2 0x463 JUMPI PUSH1 0x0 DUP1 REVERT JUMPDEST POP PUSH2 0x46C PUSH2 0x12AE JUMP JUMPDEST PUSH1 0x40 MLOAD PUSH2 0x479 SWAP2 SWAP1 PUSH2 0x2CF1 JUMP JUMPDEST PUSH1 0x40 MLOAD DUP1 SWAP2 SUB SWAP1 RETURN JUMPDEST CALLVALUE DUP1 ISZERO PUSH2 0x48E JUMPI PUSH1 0x0 DUP1 REVERT JUMPDEST POP PUSH2 0x4A9 PUSH1 0x4 DUP1 CALLDATASIZE SUB DUP2 ADD SWAP1 PUSH2 0x4A4 SWAP2 SWAP1 PUSH2 0x31E0 JUMP JUMPDEST PUSH2 0x1340 JUMP JUMPDEST STOP JUMPDEST CALLVALUE DUP1 ISZERO PUSH2 0x4B7 JUMPI PUSH1 0x0 DUP1 REVERT JUMPDEST POP PUSH2 0x4D2 PUSH1 0x4 DUP1 CALLDATASIZE SUB DUP2 ADD SWAP1 PUSH2 0x4CD SWAP2 SWAP1 PUSH2 0x3220 JUMP JUMPDEST PUSH2 0x1356 JUMP JUMPDEST STOP JUMPDEST CALLVALUE DUP1 ISZERO PUSH2 0x4E0 JUMPI PUSH1 0x0 DUP1 REVERT JUMPDEST POP PUSH2 0x4FB PUSH1 0x4 DUP1 CALLDATASIZE SUB DUP2 ADD SWAP1 PUSH2 0x4F6 SWAP2 SWAP1 PUSH2 0x33BC JUMP JUMPDEST PUSH2 0x1614 JUMP JUMPDEST STOP JUMPDEST CALLVALUE DUP1 ISZERO PUSH2 0x509 JUMPI PUSH1 0x0 DUP1 REVERT JUMPDEST POP PUSH2 0x524 PUSH1 0x4 DUP1 CALLDATASIZE SUB DUP2 ADD SWAP1 PUSH2 0x51F SWAP2 SWAP1 PUSH2 0x2D49 JUMP JUMPDEST PUSH2 0x1676 JUMP JUMPDEST PUSH1 0x40 MLOAD PUSH2 0x531 SWAP2 SWAP1 PUSH2 0x2CF1 JUMP JUMPDEST PUSH1 0x40 MLOAD DUP1 SWAP2 SUB SWAP1 RETURN JUMPDEST PUSH2 0x554 PUSH1 0x4 DUP1 CALLDATASIZE SUB DUP2 ADD SWAP1 PUSH2 0x54F SWAP2 SWAP1 PUSH2 0x34E0 JUMP JUMPDEST PUSH2 0x1788 JUMP JUMPDEST STOP JUMPDEST PUSH2 0x570 PUSH1 0x4 DUP1 CALLDATASIZE SUB DUP2 ADD SWAP1 PUSH2 0x56B SWAP2 SWAP1 PUSH2 0x2D49 JUMP JUMPDEST PUSH2 0x1805 JUMP JUMPDEST STOP JUMPDEST CALLVALUE DUP1 ISZERO PUSH2 0x57E JUMPI PUSH1 0x0 DUP1 REVERT JUMPDEST POP PUSH2 0x599 PUSH1 0x4 DUP1 CALLDATASIZE SUB DUP2 ADD SWAP1 PUSH2 0x594 SWAP2 SWAP1 PUSH2 0x3529 JUMP JUMPDEST PUSH2 0x1AF3 JUMP JUMPDEST PUSH1 0x40 MLOAD PUSH2 0x5A6 SWAP2 SWAP1 PUSH2 0x2C46 JUMP JUMPDEST PUSH1 0x40 MLOAD DUP1 SWAP2 SUB SWAP1 RETURN JUMPDEST CALLVALUE DUP1 ISZERO PUSH2 0x5BB JUMPI PUSH1 0x0 DUP1 REVERT JUMPDEST POP PUSH2 0x5D6 PUSH1 0x4 DUP1 CALLDATASIZE SUB DUP2 ADD SWAP1 PUSH2 0x5D1 SWAP2 SWAP1 PUSH2 0x3187 JUMP JUMPDEST PUSH2 0x1B87 JUMP JUMPDEST STOP JUMPDEST PUSH1 0x0 PUSH32 0x80AC58CD00000000000000000000000000000000000000000000000000000000 PUSH28 0xFFFFFFFFFFFFFFFFFFFFFFFFFFFFFFFFFFFFFFFFFFFFFFFFFFFFFFFF NOT AND DUP3 PUSH28 0xFFFFFFFFFFFFFFFFFFFFFFFFFFFFFFFFFFFFFFFFFFFFFFFFFFFFFFFF NOT AND EQ DUP1 PUSH2 0x6A3 JUMPI POP PUSH32 0x5B5E139F00000000000000000000000000000000000000000000000000000000 PUSH28 0xFFFFFFFFFFFFFFFFFFFFFFFFFFFFFFFFFFFFFFFFFFFFFFFFFFFFFFFF NOT AND DUP3 PUSH28 0xFFFFFFFFFFFFFFFFFFFFFFFFFFFFFFFFFFFFFFFFFFFFFFFFFFFFFFFF NOT AND EQ JUMPDEST DUP1 PUSH2 0x6B3 JUMPI POP PUSH2 0x6B2 DUP3 PUSH2 0x1C0A JUMP JUMPDEST JUMPDEST SWAP1 POP SWAP2 SWAP1 POP JUMP JUMPDEST PUSH1 0x60 PUSH1 0x0 DUP1 SLOAD PUSH2 0x6C9 SWAP1 PUSH2 0x3598 JUMP JUMPDEST DUP1 PUSH1 0x1F ADD PUSH1 0x20 DUP1 SWAP2 DIV MUL PUSH1 0x20 ADD PUSH1 0x40 MLOAD SWAP1 DUP2 ADD PUSH1 0x40 MSTORE DUP1 SWAP3 SWAP2 SWAP1 DUP2 DUP2 MSTORE PUSH1 0x20 ADD DUP3 DUP1 SLOAD PUSH2 0x6F5 SWAP1 PUSH2 0x3598 JUMP JUMPDEST DUP1 ISZERO PUSH2 0x742 JUMPI DUP1 PUSH1 0x1F LT PUSH2 0x717 JUMPI PUSH2 0x100 DUP1 DUP4 SLOAD DIV MUL DUP4 MSTORE SWAP2 PUSH1 0x20 ADD SWAP2 PUSH2 0x742 JUMP JUMPDEST DUP3 ADD SWAP2 SWAP1 PUSH1 0x0 MSTORE PUSH1 0x20 PUSH1 0x0 KECCAK256 SWAP1 JUMPDEST DUP2 SLOAD DUP2 MSTORE SWAP1 PUSH1 0x1 ADD SWAP1 PUSH1 0x20 ADD DUP1 DUP4 GT PUSH2 0x725 JUMPI DUP3 SWAP1 SUB PUSH1 0x1F AND DUP3 ADD SWAP2 JUMPDEST POP POP POP POP POP SWAP1 POP SWAP1 JUMP JUMPDEST PUSH1 0x0 PUSH2 0x757 DUP3 PUSH2 0x1C74 JUMP JUMPDEST PUSH1 0x4 PUSH1 0x0 DUP4 DUP2 MSTORE PUSH1 0x20 ADD SWAP1 DUP2 MSTORE PUSH1 0x20 ADD PUSH1 0x0 KECCAK256 PUSH1 0x0 SWAP1 SLOAD SWAP1 PUSH2 0x100 EXP SWAP1 DIV PUSH20 0xFFFFFFFFFFFFFFFFFFFFFFFFFFFFFFFFFFFFFFFF AND SWAP1 POP SWAP2 SWAP1 POP JUMP JUMPDEST PUSH1 0x0 PUSH2 0x79D DUP3 PUSH2 0x1128 JUMP JUMPDEST SWAP1 POP DUP1 PUSH20 0xFFFFFFFFFFFFFFFFFFFFFFFFFFFFFFFFFFFFFFFF AND DUP4 PUSH20 0xFFFFFFFFFFFFFFFFFFFFFFFFFFFFFFFFFFFFFFFF AND SUB PUSH2 0x80D JUMPI PUSH1 0x40 MLOAD PUSH32 0x8C379A000000000000000000000000000000000000000000000000000000000 DUP2 MSTORE PUSH1 0x4 ADD PUSH2 0x804 SWAP1 PUSH2 0x363B JUMP JUMPDEST PUSH1 0x40 MLOAD DUP1 SWAP2 SUB SWAP1 REVERT JUMPDEST DUP1 PUSH20 0xFFFFFFFFFFFFFFFFFFFFFFFFFFFFFFFFFFFFFFFF AND PUSH2 0x82C PUSH2 0x1CBF JUMP JUMPDEST PUSH20 0xFFFFFFFFFFFFFFFFFFFFFFFFFFFFFFFFFFFFFFFF AND EQ DUP1 PUSH2 0x85B JUMPI POP PUSH2 0x85A DUP2 PUSH2 0x855 PUSH2 0x1CBF JUMP JUMPDEST PUSH2 0x1AF3 JUMP JUMPDEST JUMPDEST PUSH2 0x89A JUMPI PUSH1 0x40 MLOAD PUSH32 0x8C379A000000000000000000000000000000000000000000000000000000000 DUP2 MSTORE PUSH1 0x4 ADD PUSH2 0x891 SWAP1 PUSH2 0x36CD JUMP JUMPDEST PUSH1 0x40 MLOAD DUP1 SWAP2 SUB SWAP1 REVERT JUMPDEST PUSH2 0x8A4 DUP4 DUP4 PUSH2 0x1CC7 JUMP JUMPDEST POP POP POP JUMP JUMPDEST PUSH1 0x60 PUSH1 0xB PUSH1 0x0 DUP4 DUP2 MSTORE PUSH1 0x20 ADD SWAP1 DUP2 MSTORE PUSH1 0x20 ADD PUSH1 0x0 KECCAK256 DUP1 SLOAD DUP1 PUSH1 0x20 MUL PUSH1 0x20 ADD PUSH1 0x40 MLOAD SWAP1 DUP2 ADD PUSH1 0x40 MSTORE DUP1 SWAP3 SWAP2 SWAP1 DUP2 DUP2 MSTORE PUSH1 0x20 ADD PUSH1 0x0 SWAP1 JUMPDEST DUP3 DUP3 LT ISZERO PUSH2 0x970 JUMPI DUP4 DUP3 SWAP1 PUSH1 0x0 MSTORE PUSH1 0x20 PUSH1 0x0 KECCAK256 SWAP1 PUSH1 0x2 MUL ADD PUSH1 0x40 MLOAD DUP1 PUSH1 0x40 ADD PUSH1 0x40 MSTORE SWAP1 DUP2 PUSH1 0x0 DUP3 ADD SLOAD DUP2 MSTORE PUSH1 0x20 ADD PUSH1 0x1 DUP3 ADD PUSH1 0x0 SWAP1 SLOAD SWAP1 PUSH2 0x100 EXP SWAP1 DIV PUSH20 0xFFFFFFFFFFFFFFFFFFFFFFFFFFFFFFFFFFFFFFFF AND PUSH20 0xFFFFFFFFFFFFFFFFFFFFFFFFFFFFFFFFFFFFFFFF AND PUSH20 0xFFFFFFFFFFFFFFFFFFFFFFFFFFFFFFFFFFFFFFFF AND DUP2 MSTORE POP POP DUP2 MSTORE PUSH1 0x20 ADD SWAP1 PUSH1 0x1 ADD SWAP1 PUSH2 0x8DE JUMP JUMPDEST POP POP POP POP SWAP1 POP SWAP2 SWAP1 POP JUMP JUMPDEST PUSH2 0x98C PUSH2 0x986 PUSH2 0x1CBF JUMP JUMPDEST DUP3 PUSH2 0x1D80 JUMP JUMPDEST PUSH2 0x9CB JUMPI PUSH1 0x40 MLOAD PUSH32 0x8C379A000000000000000000000000000000000000000000000000000000000 DUP2 MSTORE PUSH1 0x4 ADD PUSH2 0x9C2 SWAP1 PUSH2 0x375F JUMP JUMPDEST PUSH1 0x40 MLOAD DUP1 SWAP2 SUB SWAP1 REVERT JUMPDEST PUSH2 0x9D6 DUP4 DUP4 DUP4 PUSH2 0x1E15 JUMP JUMPDEST POP POP POP JUMP JUMPDEST PUSH1 0x60 PUSH1 0xC DUP1 SLOAD DUP1 PUSH1 0x20 MUL PUSH1 0x20 ADD PUSH1 0x40 MLOAD SWAP1 DUP2 ADD PUSH1 0x40 MSTORE DUP1 SWAP3 SWAP2 SWAP1 DUP2 DUP2 MSTORE PUSH1 0x20 ADD PUSH1 0x0 SWAP1 JUMPDEST DUP3 DUP3 LT ISZERO PUSH2 0xB20 JUMPI DUP4 DUP3 SWAP1 PUSH1 0x0 MSTORE PUSH1 0x20 PUSH1 0x0 KECCAK256 SWAP1 PUSH1 0x7 MUL ADD PUSH1 0x40 MLOAD DUP1 PUSH1 0xE0 ADD PUSH1 0x40 MSTORE SWAP1 DUP2 PUSH1 0x0 DUP3 ADD SLOAD DUP2 MSTORE PUSH1 0x20 ADD PUSH1 0x1 DUP3 ADD PUSH1 0x0 SWAP1 SLOAD SWAP1 PUSH2 0x100 EXP SWAP1 DIV PUSH20 0xFFFFFFFFFFFFFFFFFFFFFFFFFFFFFFFFFFFFFFFF AND PUSH20 0xFFFFFFFFFFFFFFFFFFFFFFFFFFFFFFFFFFFFFFFF AND PUSH20 0xFFFFFFFFFFFFFFFFFFFFFFFFFFFFFFFFFFFFFFFF AND DUP2 MSTORE PUSH1 0x20 ADD PUSH1 0x2 DUP3 ADD PUSH1 0x0 SWAP1 SLOAD SWAP1 PUSH2 0x100 EXP SWAP1 DIV PUSH20 0xFFFFFFFFFFFFFFFFFFFFFFFFFFFFFFFFFFFFFFFF AND PUSH20 0xFFFFFFFFFFFFFFFFFFFFFFFFFFFFFFFFFFFFFFFF AND PUSH20 0xFFFFFFFFFFFFFFFFFFFFFFFFFFFFFFFFFFFFFFFF AND DUP2 MSTORE PUSH1 0x20 ADD PUSH1 0x3 DUP3 ADD SLOAD DUP2 MSTORE PUSH1 0x20 ADD PUSH1 0x4 DUP3 ADD SLOAD DUP2 MSTORE PUSH1 0x20 ADD PUSH1 0x5 DUP3 ADD PUSH1 0x0 SWAP1 SLOAD SWAP1 PUSH2 0x100 EXP SWAP1 DIV PUSH1 0xFF AND ISZERO ISZERO ISZERO ISZERO DUP2 MSTORE PUSH1 0x20 ADD PUSH1 0x6 DUP3 ADD SLOAD DUP2 MSTORE POP POP DUP2 MSTORE PUSH1 0x20 ADD SWAP1 PUSH1 0x1 ADD SWAP1 PUSH2 0x9FF JUMP JUMPDEST POP POP POP POP SWAP1 POP SWAP1 JUMP JUMPDEST PUSH1 0xA PUSH1 0x0 SWAP1 SLOAD SWAP1 PUSH2 0x100 EXP SWAP1 DIV PUSH20 0xFFFFFFFFFFFFFFFFFFFFFFFFFFFFFFFFFFFFFFFF AND DUP2 JUMP JUMPDEST DUP2 PUSH1 0x0 PUSH1 0xC PUSH1 0x1 DUP4 PUSH2 0xB61 SWAP2 SWAP1 PUSH2 0x37AE JUMP JUMPDEST DUP2 SLOAD DUP2 LT PUSH2 0xB72 JUMPI PUSH2 0xB71 PUSH2 0x37E2 JUMP JUMPDEST JUMPDEST SWAP1 PUSH1 0x0 MSTORE PUSH1 0x20 PUSH1 0x0 KECCAK256 SWAP1 PUSH1 0x7 MUL ADD PUSH1 0x1 ADD PUSH1 0x0 SWAP1 SLOAD SWAP1 PUSH2 0x100 EXP SWAP1 DIV PUSH20 0xFFFFFFFFFFFFFFFFFFFFFFFFFFFFFFFFFFFFFFFF AND SWAP1 POP DUP1 PUSH20 0xFFFFFFFFFFFFFFFFFFFFFFFFFFFFFFFFFFFFFFFF AND CALLER PUSH20 0xFFFFFFFFFFFFFFFFFFFFFFFFFFFFFFFFFFFFFFFF AND EQ PUSH2 0xC14 JUMPI PUSH1 0x40 MLOAD PUSH32 0x8C379A000000000000000000000000000000000000000000000000000000000 DUP2 MSTORE PUSH1 0x4 ADD PUSH2 0xC0B SWAP1 PUSH2 0x385D JUMP JUMPDEST PUSH1 0x40 MLOAD DUP1 SWAP2 SUB SWAP1 REVERT JUMPDEST PUSH1 0x0 PUSH1 0xC PUSH1 0x1 DUP7 PUSH2 0xC25 SWAP2 SWAP1 PUSH2 0x37AE JUMP JUMPDEST DUP2 SLOAD DUP2 LT PUSH2 0xC36 JUMPI PUSH2 0xC35 PUSH2 0x37E2 JUMP JUMPDEST JUMPDEST SWAP1 PUSH1 0x0 MSTORE PUSH1 0x20 PUSH1 0x0 KECCAK256 SWAP1 PUSH1 0x7 MUL ADD PUSH1 0x40 MLOAD DUP1 PUSH1 0xE0 ADD PUSH1 0x40 MSTORE SWAP1 DUP2 PUSH1 0x0 DUP3 ADD SLOAD DUP2 MSTORE PUSH1 0x20 ADD PUSH1 0x1 DUP3 ADD PUSH1 0x0 SWAP1 SLOAD SWAP1 PUSH2 0x100 EXP SWAP1 DIV PUSH20 0xFFFFFFFFFFFFFFFFFFFFFFFFFFFFFFFFFFFFFFFF AND PUSH20 0xFFFFFFFFFFFFFFFFFFFFFFFFFFFFFFFFFFFFFFFF AND PUSH20 0xFFFFFFFFFFFFFFFFFFFFFFFFFFFFFFFFFFFFFFFF AND DUP2 MSTORE PUSH1 0x20 ADD PUSH1 0x2 DUP3 ADD PUSH1 0x0 SWAP1 SLOAD SWAP1 PUSH2 0x100 EXP SWAP1 DIV PUSH20 0xFFFFFFFFFFFFFFFFFFFFFFFFFFFFFFFFFFFFFFFF AND PUSH20 0xFFFFFFFFFFFFFFFFFFFFFFFFFFFFFFFFFFFFFFFF AND PUSH20 0xFFFFFFFFFFFFFFFFFFFFFFFFFFFFFFFFFFFFFFFF AND DUP2 MSTORE PUSH1 0x20 ADD PUSH1 0x3 DUP3 ADD SLOAD DUP2 MSTORE PUSH1 0x20 ADD PUSH1 0x4 DUP3 ADD SLOAD DUP2 MSTORE PUSH1 0x20 ADD PUSH1 0x5 DUP3 ADD PUSH1 0x0 SWAP1 SLOAD SWAP1 PUSH2 0x100 EXP SWAP1 DIV PUSH1 0xFF AND ISZERO ISZERO ISZERO ISZERO DUP2 MSTORE PUSH1 0x20 ADD PUSH1 0x6 DUP3 ADD SLOAD DUP2 MSTORE POP POP SWAP1 POP PUSH1 0x0 PUSH1 0xB PUSH1 0x0 DUP8 DUP2 MSTORE PUSH1 0x20 ADD SWAP1 DUP2 MSTORE PUSH1 0x20 ADD PUSH1 0x0 KECCAK256 DUP6 DUP2 SLOAD DUP2 LT PUSH2 0xD67 JUMPI PUSH2 0xD66 PUSH2 0x37E2 JUMP JUMPDEST JUMPDEST SWAP1 PUSH1 0x0 MSTORE PUSH1 0x20 PUSH1 0x0 KECCAK256 SWAP1 PUSH1 0x2 MUL ADD PUSH1 0x40 MLOAD DUP1 PUSH1 0x40 ADD PUSH1 0x40 MSTORE SWAP1 DUP2 PUSH1 0x0 DUP3 ADD SLOAD DUP2 MSTORE PUSH1 0x20 ADD PUSH1 0x1 DUP3 ADD PUSH1 0x0 SWAP1 SLOAD SWAP1 PUSH2 0x100 EXP SWAP1 DIV PUSH20 0xFFFFFFFFFFFFFFFFFFFFFFFFFFFFFFFFFFFFFFFF AND PUSH20 0xFFFFFFFFFFFFFFFFFFFFFFFFFFFFFFFFFFFFFFFF AND PUSH20 0xFFFFFFFFFFFFFFFFFFFFFFFFFFFFFFFFFFFFFFFF AND DUP2 MSTORE POP POP SWAP1 POP DUP2 PUSH1 0x40 ADD MLOAD PUSH20 0xFFFFFFFFFFFFFFFFFFFFFFFFFFFFFFFFFFFFFFFF AND PUSH4 0x42842E0E CALLER DUP4 PUSH1 0x20 ADD MLOAD DUP6 PUSH1 0x60 ADD MLOAD PUSH1 0x40 MLOAD DUP5 PUSH4 0xFFFFFFFF AND PUSH1 0xE0 SHL DUP2 MSTORE PUSH1 0x4 ADD PUSH2 0xE2B SWAP4 SWAP3 SWAP2 SWAP1 PUSH2 0x387D JUMP JUMPDEST PUSH1 0x0 PUSH1 0x40 MLOAD DUP1 DUP4 SUB DUP2 PUSH1 0x0 DUP8 DUP1 EXTCODESIZE ISZERO DUP1 ISZERO PUSH2 0xE45 JUMPI PUSH1 0x0 DUP1 REVERT JUMPDEST POP GAS CALL ISZERO DUP1 ISZERO PUSH2 0xE59 JUMPI RETURNDATASIZE PUSH1 0x0 DUP1 RETURNDATACOPY RETURNDATASIZE PUSH1 0x0 REVERT JUMPDEST POP POP POP POP PUSH1 0xA PUSH1 0x0 SWAP1 SLOAD SWAP1 PUSH2 0x100 EXP SWAP1 DIV PUSH20 0xFFFFFFFFFFFFFFFFFFFFFFFFFFFFFFFFFFFFFFFF AND PUSH20 0xFFFFFFFFFFFFFFFFFFFFFFFFFFFFFFFFFFFFFFFF AND PUSH4 0x23B872DD DUP3 PUSH1 0x20 ADD MLOAD DUP5 PUSH1 0x20 ADD MLOAD DUP5 PUSH1 0x0 ADD MLOAD PUSH1 0x40 MLOAD DUP5 PUSH4 0xFFFFFFFF AND PUSH1 0xE0 SHL DUP2 MSTORE PUSH1 0x4 ADD PUSH2 0xEC8 SWAP4 SWAP3 SWAP2 SWAP1 PUSH2 0x387D JUMP JUMPDEST PUSH1 0x20 PUSH1 0x40 MLOAD DUP1 DUP4 SUB DUP2 PUSH1 0x0 DUP8 GAS CALL ISZERO DUP1 ISZERO PUSH2 0xEE7 JUMPI RETURNDATASIZE PUSH1 0x0 DUP1 RETURNDATACOPY RETURNDATASIZE PUSH1 0x0 REVERT JUMPDEST POP POP POP POP PUSH1 0x40 MLOAD RETURNDATASIZE PUSH1 0x1F NOT PUSH1 0x1F DUP3 ADD AND DUP3 ADD DUP1 PUSH1 0x40 MSTORE POP DUP2 ADD SWAP1 PUSH2 0xF0B SWAP2 SWAP1 PUSH2 0x38C9 JUMP JUMPDEST POP DUP1 PUSH1 0x20 ADD MLOAD PUSH20 0xFFFFFFFFFFFFFFFFFFFFFFFFFFFFFFFFFFFFFFFF AND PUSH32 0xA0B4F52B19DEE1CF7F60B707F83166A1359F5EEE5AC1629D3D50C691A264795E DUP4 PUSH1 0x60 ADD MLOAD PUSH1 0x40 MLOAD PUSH2 0xF5A SWAP2 SWAP1 PUSH2 0x316C JUMP JUMPDEST PUSH1 0x40 MLOAD DUP1 SWAP2 SUB SWAP1 LOG2 POP POP POP POP POP POP JUMP JUMPDEST PUSH2 0xF85 DUP4 DUP4 DUP4 PUSH1 0x40 MLOAD DUP1 PUSH1 0x20 ADD PUSH1 0x40 MSTORE DUP1 PUSH1 0x0 DUP2 MSTORE POP PUSH2 0x1614 JUMP JUMPDEST POP POP POP JUMP JUMPDEST DUP1 PUSH1 0xA PUSH1 0x0 SWAP1 SLOAD SWAP1 PUSH2 0x100 EXP SWAP1 DIV PUSH20 0xFFFFFFFFFFFFFFFFFFFFFFFFFFFFFFFFFFFFFFFF AND PUSH20 0xFFFFFFFFFFFFFFFFFFFFFFFFFFFFFFFFFFFFFFFF AND PUSH4 0xDD62ED3E CALLER ADDRESS PUSH1 0x40 MLOAD DUP4 PUSH4 0xFFFFFFFF AND PUSH1 0xE0 SHL DUP2 MSTORE PUSH1 0x4 ADD PUSH2 0xFE8 SWAP3 SWAP2 SWAP1 PUSH2 0x38F6 JUMP JUMPDEST PUSH1 0x20 PUSH1 0x40 MLOAD DUP1 DUP4 SUB DUP2 DUP7 GAS STATICCALL ISZERO DUP1 ISZERO PUSH2 0x1005 JUMPI RETURNDATASIZE PUSH1 0x0 DUP1 RETURNDATACOPY RETURNDATASIZE PUSH1 0x0 REVERT JUMPDEST POP POP POP POP PUSH1 0x40 MLOAD RETURNDATASIZE PUSH1 0x1F NOT PUSH1 0x1F DUP3 ADD AND DUP3 ADD DUP1 PUSH1 0x40 MSTORE POP DUP2 ADD SWAP1 PUSH2 0x1029 SWAP2 SWAP1 PUSH2 0x3934 JUMP JUMPDEST LT ISZERO PUSH2 0x106A JUMPI PUSH1 0x40 MLOAD PUSH32 0x8C379A000000000000000000000000000000000000000000000000000000000 DUP2 MSTORE PUSH1 0x4 ADD PUSH2 0x1061 SWAP1 PUSH2 0x39AD JUMP JUMPDEST PUSH1 0x40 MLOAD DUP1 SWAP2 SUB SWAP1 REVERT JUMPDEST PUSH1 0xB PUSH1 0x0 DUP4 DUP2 MSTORE PUSH1 0x20 ADD SWAP1 DUP2 MSTORE PUSH1 0x20 ADD PUSH1 0x0 KECCAK256 PUSH1 0x40 MLOAD DUP1 PUSH1 0x40 ADD PUSH1 0x40 MSTORE DUP1 DUP4 DUP2 MSTORE PUSH1 0x20 ADD CALLER PUSH20 0xFFFFFFFFFFFFFFFFFFFFFFFFFFFFFFFFFFFFFFFF AND DUP2 MSTORE POP SWAP1 DUP1 PUSH1 0x1 DUP2 SLOAD ADD DUP1 DUP3 SSTORE DUP1 SWAP2 POP POP PUSH1 0x1 SWAP1 SUB SWAP1 PUSH1 0x0 MSTORE PUSH1 0x20 PUSH1 0x0 KECCAK256 SWAP1 PUSH1 0x2 MUL ADD PUSH1 0x0 SWAP1 SWAP2 SWAP1 SWAP2 SWAP1 SWAP2 POP PUSH1 0x0 DUP3 ADD MLOAD DUP2 PUSH1 0x0 ADD SSTORE PUSH1 0x20 DUP3 ADD MLOAD DUP2 PUSH1 0x1 ADD PUSH1 0x0 PUSH2 0x100 EXP DUP2 SLOAD DUP2 PUSH20 0xFFFFFFFFFFFFFFFFFFFFFFFFFFFFFFFFFFFFFFFF MUL NOT AND SWAP1 DUP4 PUSH20 0xFFFFFFFFFFFFFFFFFFFFFFFFFFFFFFFFFFFFFFFF AND MUL OR SWAP1 SSTORE POP POP POP POP POP JUMP JUMPDEST PUSH1 0x0 DUP1 PUSH2 0x1134 DUP4 PUSH2 0x210A JUMP JUMPDEST SWAP1 POP PUSH1 0x0 PUSH20 0xFFFFFFFFFFFFFFFFFFFFFFFFFFFFFFFFFFFFFFFF AND DUP2 PUSH20 0xFFFFFFFFFFFFFFFFFFFFFFFFFFFFFFFFFFFFFFFF AND SUB PUSH2 0x11A5 JUMPI PUSH1 0x40 MLOAD PUSH32 0x8C379A000000000000000000000000000000000000000000000000000000000 DUP2 MSTORE PUSH1 0x4 ADD PUSH2 0x119C SWAP1 PUSH2 0x3A19 JUMP JUMPDEST PUSH1 0x40 MLOAD DUP1 SWAP2 SUB SWAP1 REVERT JUMPDEST DUP1 SWAP2 POP POP SWAP2 SWAP1 POP JUMP JUMPDEST PUSH7 0x2386F26FC10000 DUP2 JUMP JUMPDEST PUSH1 0x0 DUP1 PUSH20 0xFFFFFFFFFFFFFFFFFFFFFFFFFFFFFFFFFFFFFFFF AND DUP3 PUSH20 0xFFFFFFFFFFFFFFFFFFFFFFFFFFFFFFFFFFFFFFFF AND SUB PUSH2 0x1229 JUMPI PUSH1 0x40 MLOAD PUSH32 0x8C379A000000000000000000000000000000000000000000000000000000000 DUP2 MSTORE PUSH1 0x4 ADD PUSH2 0x1220 SWAP1 PUSH2 0x3AAB JUMP JUMPDEST PUSH1 0x40 MLOAD DUP1 SWAP2 SUB SWAP1 REVERT JUMPDEST PUSH1 0x3 PUSH1 0x0 DUP4 PUSH20 0xFFFFFFFFFFFFFFFFFFFFFFFFFFFFFFFFFFFFFFFF AND PUSH20 0xFFFFFFFFFFFFFFFFFFFFFFFFFFFFFFFFFFFFFFFF AND DUP2 MSTORE PUSH1 0x20 ADD SWAP1 DUP2 MSTORE PUSH1 0x20 ADD PUSH1 0x0 KECCAK256 SLOAD SWAP1 POP SWAP2 SWAP1 POP JUMP JUMPDEST PUSH2 0x1278 PUSH2 0x2147 JUMP JUMPDEST PUSH2 0x1282 PUSH1 0x0 PUSH2 0x21C5 JUMP JUMPDEST JUMP JUMPDEST PUSH1 0x0 PUSH1 0x7 PUSH1 0x0 SWAP1 SLOAD SWAP1 PUSH2 0x100 EXP SWAP1 DIV PUSH20 0xFFFFFFFFFFFFFFFFFFFFFFFFFFFFFFFFFFFFFFFF AND SWAP1 POP SWAP1 JUMP JUMPDEST PUSH1 0x60 PUSH1 0x1 DUP1 SLOAD PUSH2 0x12BD SWAP1 PUSH2 0x3598 JUMP JUMPDEST DUP1 PUSH1 0x1F ADD PUSH1 0x20 DUP1 SWAP2 DIV MUL PUSH1 0x20 ADD PUSH1 0x40 MLOAD SWAP1 DUP2 ADD PUSH1 0x40 MSTORE DUP1 SWAP3 SWAP2 SWAP1 DUP2 DUP2 MSTORE PUSH1 0x20 ADD DUP3 DUP1 SLOAD PUSH2 0x12E9 SWAP1 PUSH2 0x3598 JUMP JUMPDEST DUP1 ISZERO PUSH2 0x1336 JUMPI DUP1 PUSH1 0x1F LT PUSH2 0x130B JUMPI PUSH2 0x100 DUP1 DUP4 SLOAD DIV MUL DUP4 MSTORE SWAP2 PUSH1 0x20 ADD SWAP2 PUSH2 0x1336 JUMP JUMPDEST DUP3 ADD SWAP2 SWAP1 PUSH1 0x0 MSTORE PUSH1 0x20 PUSH1 0x0 KECCAK256 SWAP1 JUMPDEST DUP2 SLOAD DUP2 MSTORE SWAP1 PUSH1 0x1 ADD SWAP1 PUSH1 0x20 ADD DUP1 DUP4 GT PUSH2 0x1319 JUMPI DUP3 SWAP1 SUB PUSH1 0x1F AND DUP3 ADD SWAP2 JUMPDEST POP POP POP POP POP SWAP1 POP SWAP1 JUMP JUMPDEST PUSH2 0x1352 PUSH2 0x134B PUSH2 0x1CBF JUMP JUMPDEST DUP4 DUP4 PUSH2 0x228B JUMP JUMPDEST POP POP JUMP JUMPDEST ADDRESS PUSH20 0xFFFFFFFFFFFFFFFFFFFFFFFFFFFFFFFFFFFFFFFF AND DUP5 PUSH20 0xFFFFFFFFFFFFFFFFFFFFFFFFFFFFFFFFFFFFFFFF AND PUSH4 0x81812FC DUP6 PUSH1 0x40 MLOAD DUP3 PUSH4 0xFFFFFFFF AND PUSH1 0xE0 SHL DUP2 MSTORE PUSH1 0x4 ADD PUSH2 0x13A6 SWAP2 SWAP1 PUSH2 0x316C JUMP JUMPDEST PUSH1 0x20 PUSH1 0x40 MLOAD DUP1 DUP4 SUB DUP2 DUP7 GAS STATICCALL ISZERO DUP1 ISZERO PUSH2 0x13C3 JUMPI RETURNDATASIZE PUSH1 0x0 DUP1 RETURNDATACOPY RETURNDATASIZE PUSH1 0x0 REVERT JUMPDEST POP POP POP POP PUSH1 0x40 MLOAD RETURNDATASIZE PUSH1 0x1F NOT PUSH1 0x1F DUP3 ADD AND DUP3 ADD DUP1 PUSH1 0x40 MSTORE POP DUP2 ADD SWAP1 PUSH2 0x13E7 SWAP2 SWAP1 PUSH2 0x3AE0 JUMP JUMPDEST PUSH20 0xFFFFFFFFFFFFFFFFFFFFFFFFFFFFFFFFFFFFFFFF AND EQ PUSH2 0x143D JUMPI PUSH1 0x40 MLOAD PUSH32 0x8C379A000000000000000000000000000000000000000000000000000000000 DUP2 MSTORE PUSH1 0x4 ADD PUSH2 0x1434 SWAP1 PUSH2 0x3B59 JUMP JUMPDEST PUSH1 0x40 MLOAD DUP1 SWAP2 SUB SWAP1 REVERT JUMPDEST PUSH2 0x1447 PUSH1 0x8 PUSH2 0x23F7 JUMP JUMPDEST PUSH1 0xC PUSH1 0x40 MLOAD DUP1 PUSH1 0xE0 ADD PUSH1 0x40 MSTORE DUP1 PUSH2 0x145E PUSH1 0x8 PUSH2 0x240D JUMP JUMPDEST DUP2 MSTORE PUSH1 0x20 ADD CALLER PUSH20 0xFFFFFFFFFFFFFFFFFFFFFFFFFFFFFFFFFFFFFFFF AND DUP2 MSTORE PUSH1 0x20 ADD DUP7 PUSH20 0xFFFFFFFFFFFFFFFFFFFFFFFFFFFFFFFFFFFFFFFF AND DUP2 MSTORE PUSH1 0x20 ADD DUP6 DUP2 MSTORE PUSH1 0x20 ADD DUP5 DUP2 MSTORE PUSH1 0x20 ADD PUSH1 0x0 ISZERO ISZERO DUP2 MSTORE PUSH1 0x20 ADD DUP4 DUP2 MSTORE POP SWAP1 DUP1 PUSH1 0x1 DUP2 SLOAD ADD DUP1 DUP3 SSTORE DUP1 SWAP2 POP POP PUSH1 0x1 SWAP1 SUB SWAP1 PUSH1 0x0 MSTORE PUSH1 0x20 PUSH1 0x0 KECCAK256 SWAP1 PUSH1 0x7 MUL ADD PUSH1 0x0 SWAP1 SWAP2 SWAP1 SWAP2 SWAP1 SWAP2 POP PUSH1 0x0 DUP3 ADD MLOAD DUP2 PUSH1 0x0 ADD SSTORE PUSH1 0x20 DUP3 ADD MLOAD DUP2 PUSH1 0x1 ADD PUSH1 0x0 PUSH2 0x100 EXP DUP2 SLOAD DUP2 PUSH20 0xFFFFFFFFFFFFFFFFFFFFFFFFFFFFFFFFFFFFFFFF MUL NOT AND SWAP1 DUP4 PUSH20 0xFFFFFFFFFFFFFFFFFFFFFFFFFFFFFFFFFFFFFFFF AND MUL OR SWAP1 SSTORE POP PUSH1 0x40 DUP3 ADD MLOAD DUP2 PUSH1 0x2 ADD PUSH1 0x0 PUSH2 0x100 EXP DUP2 SLOAD DUP2 PUSH20 0xFFFFFFFFFFFFFFFFFFFFFFFFFFFFFFFFFFFFFFFF MUL NOT AND SWAP1 DUP4 PUSH20 0xFFFFFFFFFFFFFFFFFFFFFFFFFFFFFFFFFFFFFFFF AND MUL OR SWAP1 SSTORE POP PUSH1 0x60 DUP3 ADD MLOAD DUP2 PUSH1 0x3 ADD SSTORE PUSH1 0x80 DUP3 ADD MLOAD DUP2 PUSH1 0x4 ADD SSTORE PUSH1 0xA0 DUP3 ADD MLOAD DUP2 PUSH1 0x5 ADD PUSH1 0x0 PUSH2 0x100 EXP DUP2 SLOAD DUP2 PUSH1 0xFF MUL NOT AND SWAP1 DUP4 ISZERO ISZERO MUL OR SWAP1 SSTORE POP PUSH1 0xC0 DUP3 ADD MLOAD DUP2 PUSH1 0x6 ADD SSTORE POP POP CALLER PUSH20 0xFFFFFFFFFFFFFFFFFFFFFFFFFFFFFFFFFFFFFFFF AND PUSH32 0x9106FC29572932D03FED1EA084E9A3F7650762E052171C610567A0C85D4F2147 DUP6 PUSH2 0x15F8 PUSH1 0x8 PUSH2 0x240D JUMP JUMPDEST PUSH1 0x40 MLOAD PUSH2 0x1606 SWAP3 SWAP2 SWAP1 PUSH2 0x3B79 JUMP JUMPDEST PUSH1 0x40 MLOAD DUP1 SWAP2 SUB SWAP1 LOG2 POP POP POP POP JUMP JUMPDEST PUSH2 0x1625 PUSH2 0x161F PUSH2 0x1CBF JUMP JUMPDEST DUP4 PUSH2 0x1D80 JUMP JUMPDEST PUSH2 0x1664 JUMPI PUSH1 0x40 MLOAD PUSH32 0x8C379A000000000000000000000000000000000000000000000000000000000 DUP2 MSTORE PUSH1 0x4 ADD PUSH2 0x165B SWAP1 PUSH2 0x375F JUMP JUMPDEST PUSH1 0x40 MLOAD DUP1 SWAP2 SUB SWAP1 REVERT JUMPDEST PUSH2 0x1670 DUP5 DUP5 DUP5 DUP5 PUSH2 0x241B JUMP JUMPDEST POP POP POP POP JUMP JUMPDEST PUSH1 0x60 PUSH2 0x1681 DUP3 PUSH2 0x1C74 JUMP JUMPDEST PUSH1 0x0 PUSH1 0x6 PUSH1 0x0 DUP5 DUP2 MSTORE PUSH1 0x20 ADD SWAP1 DUP2 MSTORE PUSH1 0x20 ADD PUSH1 0x0 KECCAK256 DUP1 SLOAD PUSH2 0x16A1 SWAP1 PUSH2 0x3598 JUMP JUMPDEST DUP1 PUSH1 0x1F ADD PUSH1 0x20 DUP1 SWAP2 DIV MUL PUSH1 0x20 ADD PUSH1 0x40 MLOAD SWAP1 DUP2 ADD PUSH1 0x40 MSTORE DUP1 SWAP3 SWAP2 SWAP1 DUP2 DUP2 MSTORE PUSH1 0x20 ADD DUP3 DUP1 SLOAD PUSH2 0x16CD SWAP1 PUSH2 0x3598 JUMP JUMPDEST DUP1 ISZERO PUSH2 0x171A JUMPI DUP1 PUSH1 0x1F LT PUSH2 0x16EF JUMPI PUSH2 0x100 DUP1 DUP4 SLOAD DIV MUL DUP4 MSTORE SWAP2 PUSH1 0x20 ADD SWAP2 PUSH2 0x171A JUMP JUMPDEST DUP3 ADD SWAP2 SWAP1 PUSH1 0x0 MSTORE PUSH1 0x20 PUSH1 0x0 KECCAK256 SWAP1 JUMPDEST DUP2 SLOAD DUP2 MSTORE SWAP1 PUSH1 0x1 ADD SWAP1 PUSH1 0x20 ADD DUP1 DUP4 GT PUSH2 0x16FD JUMPI DUP3 SWAP1 SUB PUSH1 0x1F AND DUP3 ADD SWAP2 JUMPDEST POP POP POP POP POP SWAP1 POP PUSH1 0x0 PUSH2 0x172B PUSH2 0x2477 JUMP JUMPDEST SWAP1 POP PUSH1 0x0 DUP2 MLOAD SUB PUSH2 0x1740 JUMPI DUP2 SWAP3 POP POP POP PUSH2 0x1783 JUMP JUMPDEST PUSH1 0x0 DUP3 MLOAD GT ISZERO PUSH2 0x1775 JUMPI DUP1 DUP3 PUSH1 0x40 MLOAD PUSH1 0x20 ADD PUSH2 0x175D SWAP3 SWAP2 SWAP1 PUSH2 0x3BDE JUMP JUMPDEST PUSH1 0x40 MLOAD PUSH1 0x20 DUP2 DUP4 SUB SUB DUP2 MSTORE SWAP1 PUSH1 0x40 MSTORE SWAP3 POP POP POP PUSH2 0x1783 JUMP JUMPDEST PUSH2 0x177E DUP5 PUSH2 0x248E JUMP JUMPDEST SWAP3 POP POP POP JUMPDEST SWAP2 SWAP1 POP JUMP JUMPDEST PUSH7 0x2386F26FC10000 CALLVALUE LT ISZERO PUSH2 0x17D2 JUMPI PUSH1 0x40 MLOAD PUSH32 0x8C379A000000000000000000000000000000000000000000000000000000000 DUP2 MSTORE PUSH1 0x4 ADD PUSH2 0x17C9 SWAP1 PUSH2 0x3C4E JUMP JUMPDEST PUSH1 0x40 MLOAD DUP1 SWAP2 SUB SWAP1 REVERT JUMPDEST PUSH2 0x17DC PUSH1 0x9 PUSH2 0x23F7 JUMP JUMPDEST PUSH2 0x17EF CALLER PUSH2 0x17EA PUSH1 0x9 PUSH2 0x240D JUMP JUMPDEST PUSH2 0x24F6 JUMP JUMPDEST PUSH2 0x1802 PUSH2 0x17FC PUSH1 0x9 PUSH2 0x240D JUMP JUMPDEST DUP3 PUSH2 0x270F JUMP JUMPDEST POP JUMP JUMPDEST PUSH1 0x0 PUSH1 0xC PUSH1 0x1 DUP4 PUSH2 0x1816 SWAP2 SWAP1 PUSH2 0x37AE JUMP JUMPDEST DUP2 SLOAD DUP2 LT PUSH2 0x1827 JUMPI PUSH2 0x1826 PUSH2 0x37E2 JUMP JUMPDEST JUMPDEST SWAP1 PUSH1 0x0 MSTORE PUSH1 0x20 PUSH1 0x0 KECCAK256 SWAP1 PUSH1 0x7 MUL ADD PUSH1 0x40 MLOAD DUP1 PUSH1 0xE0 ADD PUSH1 0x40 MSTORE SWAP1 DUP2 PUSH1 0x0 DUP3 ADD SLOAD DUP2 MSTORE PUSH1 0x20 ADD PUSH1 0x1 DUP3 ADD PUSH1 0x0 SWAP1 SLOAD SWAP1 PUSH2 0x100 EXP SWAP1 DIV PUSH20 0xFFFFFFFFFFFFFFFFFFFFFFFFFFFFFFFFFFFFFFFF AND PUSH20 0xFFFFFFFFFFFFFFFFFFFFFFFFFFFFFFFFFFFFFFFF AND PUSH20 0xFFFFFFFFFFFFFFFFFFFFFFFFFFFFFFFFFFFFFFFF AND DUP2 MSTORE PUSH1 0x20 ADD PUSH1 0x2 DUP3 ADD PUSH1 0x0 SWAP1 SLOAD SWAP1 PUSH2 0x100 EXP SWAP1 DIV PUSH20 0xFFFFFFFFFFFFFFFFFFFFFFFFFFFFFFFFFFFFFFFF AND PUSH20 0xFFFFFFFFFFFFFFFFFFFFFFFFFFFFFFFFFFFFFFFF AND PUSH20 0xFFFFFFFFFFFFFFFFFFFFFFFFFFFFFFFFFFFFFFFF AND DUP2 MSTORE PUSH1 0x20 ADD PUSH1 0x3 DUP3 ADD SLOAD DUP2 MSTORE PUSH1 0x20 ADD PUSH1 0x4 DUP3 ADD SLOAD DUP2 MSTORE PUSH1 0x20 ADD PUSH1 0x5 DUP3 ADD PUSH1 0x0 SWAP1 SLOAD SWAP1 PUSH2 0x100 EXP SWAP1 DIV PUSH1 0xFF AND ISZERO ISZERO ISZERO ISZERO DUP2 MSTORE PUSH1 0x20 ADD PUSH1 0x6 DUP3 ADD SLOAD DUP2 MSTORE POP POP SWAP1 POP PUSH1 0xA PUSH1 0x0 SWAP1 SLOAD SWAP1 PUSH2 0x100 EXP SWAP1 DIV PUSH20 0xFFFFFFFFFFFFFFFFFFFFFFFFFFFFFFFFFFFFFFFF AND PUSH20 0xFFFFFFFFFFFFFFFFFFFFFFFFFFFFFFFFFFFFFFFF AND PUSH4 0x23B872DD CALLER DUP4 PUSH1 0x20 ADD MLOAD DUP5 PUSH1 0x80 ADD MLOAD PUSH1 0x40 MLOAD DUP5 PUSH4 0xFFFFFFFF AND PUSH1 0xE0 SHL DUP2 MSTORE PUSH1 0x4 ADD PUSH2 0x1998 SWAP4 SWAP3 SWAP2 SWAP1 PUSH2 0x387D JUMP JUMPDEST PUSH1 0x20 PUSH1 0x40 MLOAD DUP1 DUP4 SUB DUP2 PUSH1 0x0 DUP8 GAS CALL ISZERO DUP1 ISZERO PUSH2 0x19B7 JUMPI RETURNDATASIZE PUSH1 0x0 DUP1 RETURNDATACOPY RETURNDATASIZE PUSH1 0x0 REVERT JUMPDEST POP POP POP POP PUSH1 0x40 MLOAD RETURNDATASIZE PUSH1 0x1F NOT PUSH1 0x1F DUP3 ADD AND DUP3 ADD DUP1 PUSH1 0x40 MSTORE POP DUP2 ADD SWAP1 PUSH2 0x19DB SWAP2 SWAP1 PUSH2 0x38C9 JUMP JUMPDEST POP DUP1 PUSH1 0x40 ADD MLOAD PUSH20 0xFFFFFFFFFFFFFFFFFFFFFFFFFFFFFFFFFFFFFFFF AND PUSH4 0x42842E0E DUP3 PUSH1 0x20 ADD MLOAD CALLER DUP5 PUSH1 0x60 ADD MLOAD PUSH1 0x40 MLOAD DUP5 PUSH4 0xFFFFFFFF AND PUSH1 0xE0 SHL DUP2 MSTORE PUSH1 0x4 ADD PUSH2 0x1A25 SWAP4 SWAP3 SWAP2 SWAP1 PUSH2 0x387D JUMP JUMPDEST PUSH1 0x0 PUSH1 0x40 MLOAD DUP1 DUP4 SUB DUP2 PUSH1 0x0 DUP8 DUP1 EXTCODESIZE ISZERO DUP1 ISZERO PUSH2 0x1A3F JUMPI PUSH1 0x0 DUP1 REVERT JUMPDEST POP GAS CALL ISZERO DUP1 ISZERO PUSH2 0x1A53 JUMPI RETURNDATASIZE PUSH1 0x0 DUP1 RETURNDATACOPY RETURNDATASIZE PUSH1 0x0 REVERT JUMPDEST POP POP POP POP PUSH1 0x1 PUSH1 0xC PUSH1 0x1 DUP5 PUSH2 0x1A68 SWAP2 SWAP1 PUSH2 0x37AE JUMP JUMPDEST DUP2 SLOAD DUP2 LT PUSH2 0x1A79 JUMPI PUSH2 0x1A78 PUSH2 0x37E2 JUMP JUMPDEST JUMPDEST SWAP1 PUSH1 0x0 MSTORE PUSH1 0x20 PUSH1 0x0 KECCAK256 SWAP1 PUSH1 0x7 MUL ADD PUSH1 0x5 ADD PUSH1 0x0 PUSH2 0x100 EXP DUP2 SLOAD DUP2 PUSH1 0xFF MUL NOT AND SWAP1 DUP4 ISZERO ISZERO MUL OR SWAP1 SSTORE POP CALLER PUSH20 0xFFFFFFFFFFFFFFFFFFFFFFFFFFFFFFFFFFFFFFFF AND PUSH32 0xA0B4F52B19DEE1CF7F60B707F83166A1359F5EEE5AC1629D3D50C691A264795E DUP4 PUSH1 0x40 MLOAD PUSH2 0x1AE7 SWAP2 SWAP1 PUSH2 0x316C JUMP JUMPDEST PUSH1 0x40 MLOAD DUP1 SWAP2 SUB SWAP1 LOG2 POP POP JUMP JUMPDEST PUSH1 0x0 PUSH1 0x5 PUSH1 0x0 DUP5 PUSH20 0xFFFFFFFFFFFFFFFFFFFFFFFFFFFFFFFFFFFFFFFF AND PUSH20 0xFFFFFFFFFFFFFFFFFFFFFFFFFFFFFFFFFFFFFFFF AND DUP2 MSTORE PUSH1 0x20 ADD SWAP1 DUP2 MSTORE PUSH1 0x20 ADD PUSH1 0x0 KECCAK256 PUSH1 0x0 DUP4 PUSH20 0xFFFFFFFFFFFFFFFFFFFFFFFFFFFFFFFFFFFFFFFF AND PUSH20 0xFFFFFFFFFFFFFFFFFFFFFFFFFFFFFFFFFFFFFFFF AND DUP2 MSTORE PUSH1 0x20 ADD SWAP1 DUP2 MSTORE PUSH1 0x20 ADD PUSH1 0x0 KECCAK256 PUSH1 0x0 SWAP1 SLOAD SWAP1 PUSH2 0x100 EXP SWAP1 DIV PUSH1 0xFF AND SWAP1 POP SWAP3 SWAP2 POP POP JUMP JUMPDEST PUSH2 0x1B8F PUSH2 0x2147 JUMP JUMPDEST PUSH1 0x0 PUSH20 0xFFFFFFFFFFFFFFFFFFFFFFFFFFFFFFFFFFFFFFFF AND DUP2 PUSH20 0xFFFFFFFFFFFFFFFFFFFFFFFFFFFFFFFFFFFFFFFF AND SUB PUSH2 0x1BFE JUMPI PUSH1 0x40 MLOAD PUSH32 0x8C379A000000000000000000000000000000000000000000000000000000000 DUP2 MSTORE PUSH1 0x4 ADD PUSH2 0x1BF5 SWAP1 PUSH2 0x3CE0 JUMP JUMPDEST PUSH1 0x40 MLOAD DUP1 SWAP2 SUB SWAP1 REVERT JUMPDEST PUSH2 0x1C07 DUP2 PUSH2 0x21C5 JUMP JUMPDEST POP JUMP JUMPDEST PUSH1 0x0 PUSH32 0x1FFC9A700000000000000000000000000000000000000000000000000000000 PUSH28 0xFFFFFFFFFFFFFFFFFFFFFFFFFFFFFFFFFFFFFFFFFFFFFFFFFFFFFFFF NOT AND DUP3 PUSH28 0xFFFFFFFFFFFFFFFFFFFFFFFFFFFFFFFFFFFFFFFFFFFFFFFFFFFFFFFF NOT AND EQ SWAP1 POP SWAP2 SWAP1 POP JUMP JUMPDEST PUSH2 0x1C7D DUP2 PUSH2 0x277C JUMP JUMPDEST PUSH2 0x1CBC JUMPI PUSH1 0x40 MLOAD PUSH32 0x8C379A000000000000000000000000000000000000000000000000000000000 DUP2 MSTORE PUSH1 0x4 ADD PUSH2 0x1CB3 SWAP1 PUSH2 0x3A19 JUMP JUMPDEST PUSH1 0x40 MLOAD DUP1 SWAP2 SUB SWAP1 REVERT JUMPDEST POP JUMP JUMPDEST PUSH1 0x0 CALLER SWAP1 POP SWAP1 JUMP JUMPDEST DUP2 PUSH1 0x4 PUSH1 0x0 DUP4 DUP2 MSTORE PUSH1 0x20 ADD SWAP1 DUP2 MSTORE PUSH1 0x20 ADD PUSH1 0x0 KECCAK256 PUSH1 0x0 PUSH2 0x100 EXP DUP2 SLOAD DUP2 PUSH20 0xFFFFFFFFFFFFFFFFFFFFFFFFFFFFFFFFFFFFFFFF MUL NOT AND SWAP1 DUP4 PUSH20 0xFFFFFFFFFFFFFFFFFFFFFFFFFFFFFFFFFFFFFFFF AND MUL OR SWAP1 SSTORE POP DUP1 DUP3 PUSH20 0xFFFFFFFFFFFFFFFFFFFFFFFFFFFFFFFFFFFFFFFF AND PUSH2 0x1D3A DUP4 PUSH2 0x1128 JUMP JUMPDEST PUSH20 0xFFFFFFFFFFFFFFFFFFFFFFFFFFFFFFFFFFFFFFFF AND PUSH32 0x8C5BE1E5EBEC7D5BD14F71427D1E84F3DD0314C0F7B2291E5B200AC8C7C3B925 PUSH1 0x40 MLOAD PUSH1 0x40 MLOAD DUP1 SWAP2 SUB SWAP1 LOG4 POP POP JUMP JUMPDEST PUSH1 0x0 DUP1 PUSH2 0x1D8C DUP4 PUSH2 0x1128 JUMP JUMPDEST SWAP1 POP DUP1 PUSH20 0xFFFFFFFFFFFFFFFFFFFFFFFFFFFFFFFFFFFFFFFF AND DUP5 PUSH20 0xFFFFFFFFFFFFFFFFFFFFFFFFFFFFFFFFFFFFFFFF AND EQ DUP1 PUSH2 0x1DCE JUMPI POP PUSH2 0x1DCD DUP2 DUP6 PUSH2 0x1AF3 JUMP JUMPDEST JUMPDEST DUP1 PUSH2 0x1E0C JUMPI POP DUP4 PUSH20 0xFFFFFFFFFFFFFFFFFFFFFFFFFFFFFFFFFFFFFFFF AND PUSH2 0x1DF4 DUP5 PUSH2 0x74C JUMP JUMPDEST PUSH20 0xFFFFFFFFFFFFFFFFFFFFFFFFFFFFFFFFFFFFFFFF AND EQ JUMPDEST SWAP2 POP POP SWAP3 SWAP2 POP POP JUMP JUMPDEST DUP3 PUSH20 0xFFFFFFFFFFFFFFFFFFFFFFFFFFFFFFFFFFFFFFFF AND PUSH2 0x1E35 DUP3 PUSH2 0x1128 JUMP JUMPDEST PUSH20 0xFFFFFFFFFFFFFFFFFFFFFFFFFFFFFFFFFFFFFFFF AND EQ PUSH2 0x1E8B JUMPI PUSH1 0x40 MLOAD PUSH32 0x8C379A000000000000000000000000000000000000000000000000000000000 DUP2 MSTORE PUSH1 0x4 ADD PUSH2 0x1E82 SWAP1 PUSH2 0x3D72 JUMP JUMPDEST PUSH1 0x40 MLOAD DUP1 SWAP2 SUB SWAP1 REVERT JUMPDEST PUSH1 0x0 PUSH20 0xFFFFFFFFFFFFFFFFFFFFFFFFFFFFFFFFFFFFFFFF AND DUP3 PUSH20 0xFFFFFFFFFFFFFFFFFFFFFFFFFFFFFFFFFFFFFFFF AND SUB PUSH2 0x1EFA JUMPI PUSH1 0x40 MLOAD PUSH32 0x8C379A000000000000000000000000000000000000000000000000000000000 DUP2 MSTORE PUSH1 0x4 ADD PUSH2 0x1EF1 SWAP1 PUSH2 0x3E04 JUMP JUMPDEST PUSH1 0x40 MLOAD DUP1 SWAP2 SUB SWAP1 REVERT JUMPDEST PUSH2 0x1F05 DUP4 DUP4 DUP4 PUSH2 0x27BD JUMP JUMPDEST DUP3 PUSH20 0xFFFFFFFFFFFFFFFFFFFFFFFFFFFFFFFFFFFFFFFF AND PUSH2 0x1F25 DUP3 PUSH2 0x1128 JUMP JUMPDEST PUSH20 0xFFFFFFFFFFFFFFFFFFFFFFFFFFFFFFFFFFFFFFFF AND EQ PUSH2 0x1F7B JUMPI PUSH1 0x40 MLOAD PUSH32 0x8C379A000000000000000000000000000000000000000000000000000000000 DUP2 MSTORE PUSH1 0x4 ADD PUSH2 0x1F72 SWAP1 PUSH2 0x3D72 JUMP JUMPDEST PUSH1 0x40 MLOAD DUP1 SWAP2 SUB SWAP1 REVERT JUMPDEST PUSH1 0x4 PUSH1 0x0 DUP3 DUP2 MSTORE PUSH1 0x20 ADD SWAP1 DUP2 MSTORE PUSH1 0x20 ADD PUSH1 0x0 KECCAK256 PUSH1 0x0 PUSH2 0x100 EXP DUP2 SLOAD SWAP1 PUSH20 0xFFFFFFFFFFFFFFFFFFFFFFFFFFFFFFFFFFFFFFFF MUL NOT AND SWAP1 SSTORE PUSH1 0x1 PUSH1 0x3 PUSH1 0x0 DUP6 PUSH20 0xFFFFFFFFFFFFFFFFFFFFFFFFFFFFFFFFFFFFFFFF AND PUSH20 0xFFFFFFFFFFFFFFFFFFFFFFFFFFFFFFFFFFFFFFFF AND DUP2 MSTORE PUSH1 0x20 ADD SWAP1 DUP2 MSTORE PUSH1 0x20 ADD PUSH1 0x0 KECCAK256 PUSH1 0x0 DUP3 DUP3 SLOAD SUB SWAP3 POP POP DUP2 SWAP1 SSTORE POP PUSH1 0x1 PUSH1 0x3 PUSH1 0x0 DUP5 PUSH20 0xFFFFFFFFFFFFFFFFFFFFFFFFFFFFFFFFFFFFFFFF AND PUSH20 0xFFFFFFFFFFFFFFFFFFFFFFFFFFFFFFFFFFFFFFFF AND DUP2 MSTORE PUSH1 0x20 ADD SWAP1 DUP2 MSTORE PUSH1 0x20 ADD PUSH1 0x0 KECCAK256 PUSH1 0x0 DUP3 DUP3 SLOAD ADD SWAP3 POP POP DUP2 SWAP1 SSTORE POP DUP2 PUSH1 0x2 PUSH1 0x0 DUP4 DUP2 MSTORE PUSH1 0x20 ADD SWAP1 DUP2 MSTORE PUSH1 0x20 ADD PUSH1 0x0 KECCAK256 PUSH1 0x0 PUSH2 0x100 EXP DUP2 SLOAD DUP2 PUSH20 0xFFFFFFFFFFFFFFFFFFFFFFFFFFFFFFFFFFFFFFFF MUL NOT AND SWAP1 DUP4 PUSH20 0xFFFFFFFFFFFFFFFFFFFFFFFFFFFFFFFFFFFFFFFF AND MUL OR SWAP1 SSTORE POP DUP1 DUP3 PUSH20 0xFFFFFFFFFFFFFFFFFFFFFFFFFFFFFFFFFFFFFFFF AND DUP5 PUSH20 0xFFFFFFFFFFFFFFFFFFFFFFFFFFFFFFFFFFFFFFFF AND PUSH32 0xDDF252AD1BE2C89B69C2B068FC378DAA952BA7F163C4A11628F55A4DF523B3EF PUSH1 0x40 MLOAD PUSH1 0x40 MLOAD DUP1 SWAP2 SUB SWAP1 LOG4 PUSH2 0x2105 DUP4 DUP4 DUP4 PUSH2 0x27C2 JUMP JUMPDEST POP POP POP JUMP JUMPDEST PUSH1 0x0 PUSH1 0x2 PUSH1 0x0 DUP4 DUP2 MSTORE PUSH1 0x20 ADD SWAP1 DUP2 MSTORE PUSH1 0x20 ADD PUSH1 0x0 KECCAK256 PUSH1 0x0 SWAP1 SLOAD SWAP1 PUSH2 0x100 EXP SWAP1 DIV PUSH20 0xFFFFFFFFFFFFFFFFFFFFFFFFFFFFFFFFFFFFFFFF AND SWAP1 POP SWAP2 SWAP1 POP JUMP JUMPDEST PUSH2 0x214F PUSH2 0x1CBF JUMP JUMPDEST PUSH20 0xFFFFFFFFFFFFFFFFFFFFFFFFFFFFFFFFFFFFFFFF AND PUSH2 0x216D PUSH2 0x1284 JUMP JUMPDEST PUSH20 0xFFFFFFFFFFFFFFFFFFFFFFFFFFFFFFFFFFFFFFFF AND EQ PUSH2 0x21C3 JUMPI PUSH1 0x40 MLOAD PUSH32 0x8C379A000000000000000000000000000000000000000000000000000000000 DUP2 MSTORE PUSH1 0x4 ADD PUSH2 0x21BA SWAP1 PUSH2 0x3E70 JUMP JUMPDEST PUSH1 0x40 MLOAD DUP1 SWAP2 SUB SWAP1 REVERT JUMPDEST JUMP JUMPDEST PUSH1 0x0 PUSH1 0x7 PUSH1 0x0 SWAP1 SLOAD SWAP1 PUSH2 0x100 EXP SWAP1 DIV PUSH20 0xFFFFFFFFFFFFFFFFFFFFFFFFFFFFFFFFFFFFFFFF AND SWAP1 POP DUP2 PUSH1 0x7 PUSH1 0x0 PUSH2 0x100 EXP DUP2 SLOAD DUP2 PUSH20 0xFFFFFFFFFFFFFFFFFFFFFFFFFFFFFFFFFFFFFFFF MUL NOT AND SWAP1 DUP4 PUSH20 0xFFFFFFFFFFFFFFFFFFFFFFFFFFFFFFFFFFFFFFFF AND MUL OR SWAP1 SSTORE POP DUP2 PUSH20 0xFFFFFFFFFFFFFFFFFFFFFFFFFFFFFFFFFFFFFFFF AND DUP2 PUSH20 0xFFFFFFFFFFFFFFFFFFFFFFFFFFFFFFFFFFFFFFFF AND PUSH32 0x8BE0079C531659141344CD1FD0A4F28419497F9722A3DAAFE3B4186F6B6457E0 PUSH1 0x40 MLOAD PUSH1 0x40 MLOAD DUP1 SWAP2 SUB SWAP1 LOG3 POP POP JUMP JUMPDEST DUP2 PUSH20 0xFFFFFFFFFFFFFFFFFFFFFFFFFFFFFFFFFFFFFFFF AND DUP4 PUSH20 0xFFFFFFFFFFFFFFFFFFFFFFFFFFFFFFFFFFFFFFFF AND SUB PUSH2 0x22F9 JUMPI PUSH1 0x40 MLOAD PUSH32 0x8C379A000000000000000000000000000000000000000000000000000000000 DUP2 MSTORE PUSH1 0x4 ADD PUSH2 0x22F0 SWAP1 PUSH2 0x3EDC JUMP JUMPDEST PUSH1 0x40 MLOAD DUP1 SWAP2 SUB SWAP1 REVERT JUMPDEST DUP1 PUSH1 0x5 PUSH1 0x0 DUP6 PUSH20 0xFFFFFFFFFFFFFFFFFFFFFFFFFFFFFFFFFFFFFFFF AND PUSH20 0xFFFFFFFFFFFFFFFFFFFFFFFFFFFFFFFFFFFFFFFF AND DUP2 MSTORE PUSH1 0x20 ADD SWAP1 DUP2 MSTORE PUSH1 0x20 ADD PUSH1 0x0 KECCAK256 PUSH1 0x0 DUP5 PUSH20 0xFFFFFFFFFFFFFFFFFFFFFFFFFFFFFFFFFFFFFFFF AND PUSH20 0xFFFFFFFFFFFFFFFFFFFFFFFFFFFFFFFFFFFFFFFF AND DUP2 MSTORE PUSH1 0x20 ADD SWAP1 DUP2 MSTORE PUSH1 0x20 ADD PUSH1 0x0 KECCAK256 PUSH1 0x0 PUSH2 0x100 EXP DUP2 SLOAD DUP2 PUSH1 0xFF MUL NOT AND SWAP1 DUP4 ISZERO ISZERO MUL OR SWAP1 SSTORE POP DUP2 PUSH20 0xFFFFFFFFFFFFFFFFFFFFFFFFFFFFFFFFFFFFFFFF AND DUP4 PUSH20 0xFFFFFFFFFFFFFFFFFFFFFFFFFFFFFFFFFFFFFFFF AND PUSH32 0x17307EAB39AB6107E8899845AD3D59BD9653F200F220920489CA2B5937696C31 DUP4 PUSH1 0x40 MLOAD PUSH2 0x23EA SWAP2 SWAP1 PUSH2 0x2C46 JUMP JUMPDEST PUSH1 0x40 MLOAD DUP1 SWAP2 SUB SWAP1 LOG3 POP POP POP JUMP JUMPDEST PUSH1 0x1 DUP2 PUSH1 0x0 ADD PUSH1 0x0 DUP3 DUP3 SLOAD ADD SWAP3 POP POP DUP2 SWAP1 SSTORE POP POP JUMP JUMPDEST PUSH1 0x0 DUP2 PUSH1 0x0 ADD SLOAD SWAP1 POP SWAP2 SWAP1 POP JUMP JUMPDEST PUSH2 0x2426 DUP5 DUP5 DUP5 PUSH2 0x1E15 JUMP JUMPDEST PUSH2 0x2432 DUP5 DUP5 DUP5 DUP5 PUSH2 0x27C7 JUMP JUMPDEST PUSH2 0x2471 JUMPI PUSH1 0x40 MLOAD PUSH32 0x8C379A000000000000000000000000000000000000000000000000000000000 DUP2 MSTORE PUSH1 0x4 ADD PUSH2 0x2468 SWAP1 PUSH2 0x3F6E JUMP JUMPDEST PUSH1 0x40 MLOAD DUP1 SWAP2 SUB SWAP1 REVERT JUMPDEST POP POP POP POP JUMP JUMPDEST PUSH1 0x60 PUSH1 0x40 MLOAD DUP1 PUSH1 0x20 ADD PUSH1 0x40 MSTORE DUP1 PUSH1 0x0 DUP2 MSTORE POP SWAP1 POP SWAP1 JUMP JUMPDEST PUSH1 0x60 PUSH2 0x2499 DUP3 PUSH2 0x1C74 JUMP JUMPDEST PUSH1 0x0 PUSH2 0x24A3 PUSH2 0x2477 JUMP JUMPDEST SWAP1 POP PUSH1 0x0 DUP2 MLOAD GT PUSH2 0x24C3 JUMPI PUSH1 0x40 MLOAD DUP1 PUSH1 0x20 ADD PUSH1 0x40 MSTORE DUP1 PUSH1 0x0 DUP2 MSTORE POP PUSH2 0x24EE JUMP JUMPDEST DUP1 PUSH2 0x24CD DUP5 PUSH2 0x294E JUMP JUMPDEST PUSH1 0x40 MLOAD PUSH1 0x20 ADD PUSH2 0x24DE SWAP3 SWAP2 SWAP1 PUSH2 0x3BDE JUMP JUMPDEST PUSH1 0x40 MLOAD PUSH1 0x20 DUP2 DUP4 SUB SUB DUP2 MSTORE SWAP1 PUSH1 0x40 MSTORE JUMPDEST SWAP2 POP POP SWAP2 SWAP1 POP JUMP JUMPDEST PUSH1 0x0 PUSH20 0xFFFFFFFFFFFFFFFFFFFFFFFFFFFFFFFFFFFFFFFF AND DUP3 PUSH20 0xFFFFFFFFFFFFFFFFFFFFFFFFFFFFFFFFFFFFFFFF AND SUB PUSH2 0x2565 JUMPI PUSH1 0x40 MLOAD PUSH32 0x8C379A000000000000000000000000000000000000000000000000000000000 DUP2 MSTORE PUSH1 0x4 ADD PUSH2 0x255C SWAP1 PUSH2 0x3FDA JUMP JUMPDEST PUSH1 0x40 MLOAD DUP1 SWAP2 SUB SWAP1 REVERT JUMPDEST PUSH2 0x256E DUP2 PUSH2 0x277C JUMP JUMPDEST ISZERO PUSH2 0x25AE JUMPI PUSH1 0x40 MLOAD PUSH32 0x8C379A000000000000000000000000000000000000000000000000000000000 DUP2 MSTORE PUSH1 0x4 ADD PUSH2 0x25A5 SWAP1 PUSH2 0x4046 JUMP JUMPDEST PUSH1 0x40 MLOAD DUP1 SWAP2 SUB SWAP1 REVERT JUMPDEST PUSH2 0x25BA PUSH1 0x0 DUP4 DUP4 PUSH2 0x27BD JUMP JUMPDEST PUSH2 0x25C3 DUP2 PUSH2 0x277C JUMP JUMPDEST ISZERO PUSH2 0x2603 JUMPI PUSH1 0x40 MLOAD PUSH32 0x8C379A000000000000000000000000000000000000000000000000000000000 DUP2 MSTORE PUSH1 0x4 ADD PUSH2 0x25FA SWAP1 PUSH2 0x4046 JUMP JUMPDEST PUSH1 0x40 MLOAD DUP1 SWAP2 SUB SWAP1 REVERT JUMPDEST PUSH1 0x1 PUSH1 0x3 PUSH1 0x0 DUP5 PUSH20 0xFFFFFFFFFFFFFFFFFFFFFFFFFFFFFFFFFFFFFFFF AND PUSH20 0xFFFFFFFFFFFFFFFFFFFFFFFFFFFFFFFFFFFFFFFF AND DUP2 MSTORE PUSH1 0x20 ADD SWAP1 DUP2 MSTORE PUSH1 0x20 ADD PUSH1 0x0 KECCAK256 PUSH1 0x0 DUP3 DUP3 SLOAD ADD SWAP3 POP POP DUP2 SWAP1 SSTORE POP DUP2 PUSH1 0x2 PUSH1 0x0 DUP4 DUP2 MSTORE PUSH1 0x20 ADD SWAP1 DUP2 MSTORE PUSH1 0x20 ADD PUSH1 0x0 KECCAK256 PUSH1 0x0 PUSH2 0x100 EXP DUP2 SLOAD DUP2 PUSH20 0xFFFFFFFFFFFFFFFFFFFFFFFFFFFFFFFFFFFFFFFF MUL NOT AND SWAP1 DUP4 PUSH20 0xFFFFFFFFFFFFFFFFFFFFFFFFFFFFFFFFFFFFFFFF AND MUL OR SWAP1 SSTORE POP DUP1 DUP3 PUSH20 0xFFFFFFFFFFFFFFFFFFFFFFFFFFFFFFFFFFFFFFFF AND PUSH1 0x0 PUSH20 0xFFFFFFFFFFFFFFFFFFFFFFFFFFFFFFFFFFFFFFFF AND PUSH32 0xDDF252AD1BE2C89B69C2B068FC378DAA952BA7F163C4A11628F55A4DF523B3EF PUSH1 0x40 MLOAD PUSH1 0x40 MLOAD DUP1 SWAP2 SUB SWAP1 LOG4 PUSH2 0x270B PUSH1 0x0 DUP4 DUP4 PUSH2 0x27C2 JUMP JUMPDEST POP POP JUMP JUMPDEST PUSH2 0x2718 DUP3 PUSH2 0x277C JUMP JUMPDEST PUSH2 0x2757 JUMPI PUSH1 0x40 MLOAD PUSH32 0x8C379A000000000000000000000000000000000000000000000000000000000 DUP2 MSTORE PUSH1 0x4 ADD PUSH2 0x274E SWAP1 PUSH2 0x40D8 JUMP JUMPDEST PUSH1 0x40 MLOAD DUP1 SWAP2 SUB SWAP1 REVERT JUMPDEST DUP1 PUSH1 0x6 PUSH1 0x0 DUP5 DUP2 MSTORE PUSH1 0x20 ADD SWAP1 DUP2 MSTORE PUSH1 0x20 ADD PUSH1 0x0 KECCAK256 SWAP1 DUP2 PUSH2 0x2777 SWAP2 SWAP1 PUSH2 0x42A4 JUMP JUMPDEST POP POP POP JUMP JUMPDEST PUSH1 0x0 DUP1 PUSH20 0xFFFFFFFFFFFFFFFFFFFFFFFFFFFFFFFFFFFFFFFF AND PUSH2 0x279E DUP4 PUSH2 0x210A JUMP JUMPDEST PUSH20 0xFFFFFFFFFFFFFFFFFFFFFFFFFFFFFFFFFFFFFFFF AND EQ ISZERO SWAP1 POP SWAP2 SWAP1 POP JUMP JUMPDEST POP POP POP JUMP JUMPDEST POP POP POP JUMP JUMPDEST PUSH1 0x0 PUSH2 0x27E8 DUP5 PUSH20 0xFFFFFFFFFFFFFFFFFFFFFFFFFFFFFFFFFFFFFFFF AND PUSH2 0x2A1C JUMP JUMPDEST ISZERO PUSH2 0x2941 JUMPI DUP4 PUSH20 0xFFFFFFFFFFFFFFFFFFFFFFFFFFFFFFFFFFFFFFFF AND PUSH4 0x150B7A02 PUSH2 0x2811 PUSH2 0x1CBF JUMP JUMPDEST DUP8 DUP7 DUP7 PUSH1 0x40 MLOAD DUP6 PUSH4 0xFFFFFFFF AND PUSH1 0xE0 SHL DUP2 MSTORE PUSH1 0x4 ADD PUSH2 0x2833 SWAP5 SWAP4 SWAP3 SWAP2 SWAP1 PUSH2 0x43CB JUMP JUMPDEST PUSH1 0x20 PUSH1 0x40 MLOAD DUP1 DUP4 SUB DUP2 PUSH1 0x0 DUP8 GAS CALL SWAP3 POP POP POP DUP1 ISZERO PUSH2 0x286F JUMPI POP PUSH1 0x40 MLOAD RETURNDATASIZE PUSH1 0x1F NOT PUSH1 0x1F DUP3 ADD AND DUP3 ADD DUP1 PUSH1 0x40 MSTORE POP DUP2 ADD SWAP1 PUSH2 0x286C SWAP2 SWAP1 PUSH2 0x442C JUMP JUMPDEST PUSH1 0x1 JUMPDEST PUSH2 0x28F1 JUMPI RETURNDATASIZE DUP1 PUSH1 0x0 DUP2 EQ PUSH2 0x289F JUMPI PUSH1 0x40 MLOAD SWAP2 POP PUSH1 0x1F NOT PUSH1 0x3F RETURNDATASIZE ADD AND DUP3 ADD PUSH1 0x40 MSTORE RETURNDATASIZE DUP3 MSTORE RETURNDATASIZE PUSH1 0x0 PUSH1 0x20 DUP5 ADD RETURNDATACOPY PUSH2 0x28A4 JUMP JUMPDEST PUSH1 0x60 SWAP2 POP JUMPDEST POP PUSH1 0x0 DUP2 MLOAD SUB PUSH2 0x28E9 JUMPI PUSH1 0x40 MLOAD PUSH32 0x8C379A000000000000000000000000000000000000000000000000000000000 DUP2 MSTORE PUSH1 0x4 ADD PUSH2 0x28E0 SWAP1 PUSH2 0x3F6E JUMP JUMPDEST PUSH1 0x40 MLOAD DUP1 SWAP2 SUB SWAP1 REVERT JUMPDEST DUP1 MLOAD DUP2 PUSH1 0x20 ADD REVERT JUMPDEST PUSH4 0x150B7A02 PUSH1 0xE0 SHL PUSH28 0xFFFFFFFFFFFFFFFFFFFFFFFFFFFFFFFFFFFFFFFFFFFFFFFFFFFFFFFF NOT AND DUP2 PUSH28 0xFFFFFFFFFFFFFFFFFFFFFFFFFFFFFFFFFFFFFFFFFFFFFFFFFFFFFFFF NOT AND EQ SWAP2 POP POP PUSH2 0x2946 JUMP JUMPDEST PUSH1 0x1 SWAP1 POP JUMPDEST SWAP5 SWAP4 POP POP POP POP JUMP JUMPDEST PUSH1 0x60 PUSH1 0x0 PUSH1 0x1 PUSH2 0x295D DUP5 PUSH2 0x2A3F JUMP JUMPDEST ADD SWAP1 POP PUSH1 0x0 DUP2 PUSH8 0xFFFFFFFFFFFFFFFF DUP2 GT ISZERO PUSH2 0x297C JUMPI PUSH2 0x297B PUSH2 0x3291 JUMP JUMPDEST JUMPDEST PUSH1 0x40 MLOAD SWAP1 DUP1 DUP3 MSTORE DUP1 PUSH1 0x1F ADD PUSH1 0x1F NOT AND PUSH1 0x20 ADD DUP3 ADD PUSH1 0x40 MSTORE DUP1 ISZERO PUSH2 0x29AE JUMPI DUP2 PUSH1 0x20 ADD PUSH1 0x1 DUP3 MUL DUP1 CALLDATASIZE DUP4 CALLDATACOPY DUP1 DUP3 ADD SWAP2 POP POP SWAP1 POP JUMPDEST POP SWAP1 POP PUSH1 0x0 DUP3 PUSH1 0x20 ADD DUP3 ADD SWAP1 POP JUMPDEST PUSH1 0x1 ISZERO PUSH2 0x2A11 JUMPI DUP1 DUP1 PUSH1 0x1 SWAP1 SUB SWAP2 POP POP PUSH32 0x3031323334353637383961626364656600000000000000000000000000000000 PUSH1 0xA DUP7 MOD BYTE DUP2 MSTORE8 PUSH1 0xA DUP6 DUP2 PUSH2 0x2A05 JUMPI PUSH2 0x2A04 PUSH2 0x4459 JUMP JUMPDEST JUMPDEST DIV SWAP5 POP PUSH1 0x0 DUP6 SUB PUSH2 0x29BC JUMPI JUMPDEST DUP2 SWAP4 POP POP POP POP SWAP2 SWAP1 POP JUMP JUMPDEST PUSH1 0x0 DUP1 DUP3 PUSH20 0xFFFFFFFFFFFFFFFFFFFFFFFFFFFFFFFFFFFFFFFF AND EXTCODESIZE GT SWAP1 POP SWAP2 SWAP1 POP JUMP JUMPDEST PUSH1 0x0 DUP1 PUSH1 0x0 SWAP1 POP PUSH27 0x184F03E93FF9F4DAA797ED6E38ED64BF6A1F010000000000000000 DUP4 LT PUSH2 0x2A9D JUMPI PUSH27 0x184F03E93FF9F4DAA797ED6E38ED64BF6A1F010000000000000000 DUP4 DUP2 PUSH2 0x2A93 JUMPI PUSH2 0x2A92 PUSH2 0x4459 JUMP JUMPDEST JUMPDEST DIV SWAP3 POP PUSH1 0x40 DUP2 ADD SWAP1 POP JUMPDEST PUSH14 0x4EE2D6D415B85ACEF8100000000 DUP4 LT PUSH2 0x2ADA JUMPI PUSH14 0x4EE2D6D415B85ACEF8100000000 DUP4 DUP2 PUSH2 0x2AD0 JUMPI PUSH2 0x2ACF PUSH2 0x4459 JUMP JUMPDEST JUMPDEST DIV SWAP3 POP PUSH1 0x20 DUP2 ADD SWAP1 POP JUMPDEST PUSH7 0x2386F26FC10000 DUP4 LT PUSH2 0x2B09 JUMPI PUSH7 0x2386F26FC10000 DUP4 DUP2 PUSH2 0x2AFF JUMPI PUSH2 0x2AFE PUSH2 0x4459 JUMP JUMPDEST JUMPDEST DIV SWAP3 POP PUSH1 0x10 DUP2 ADD SWAP1 POP JUMPDEST PUSH4 0x5F5E100 DUP4 LT PUSH2 0x2B32 JUMPI PUSH4 0x5F5E100 DUP4 DUP2 PUSH2 0x2B28 JUMPI PUSH2 0x2B27 PUSH2 0x4459 JUMP JUMPDEST JUMPDEST DIV SWAP3 POP PUSH1 0x8 DUP2 ADD SWAP1 POP JUMPDEST PUSH2 0x2710 DUP4 LT PUSH2 0x2B57 JUMPI PUSH2 0x2710 DUP4 DUP2 PUSH2 0x2B4D JUMPI PUSH2 0x2B4C PUSH2 0x4459 JUMP JUMPDEST JUMPDEST DIV SWAP3 POP PUSH1 0x4 DUP2 ADD SWAP1 POP JUMPDEST PUSH1 0x64 DUP4 LT PUSH2 0x2B7A JUMPI PUSH1 0x64 DUP4 DUP2 PUSH2 0x2B70 JUMPI PUSH2 0x2B6F PUSH2 0x4459 JUMP JUMPDEST JUMPDEST DIV SWAP3 POP PUSH1 0x2 DUP2 ADD SWAP1 POP JUMPDEST PUSH1 0xA DUP4 LT PUSH2 0x2B89 JUMPI PUSH1 0x1 DUP2 ADD SWAP1 POP JUMPDEST DUP1 SWAP2 POP POP SWAP2 SWAP1 POP JUMP JUMPDEST PUSH1 0x0 PUSH1 0x40 MLOAD SWAP1 POP SWAP1 JUMP JUMPDEST PUSH1 0x0 DUP1 REVERT JUMPDEST PUSH1 0x0 DUP1 REVERT JUMPDEST PUSH1 0x0 PUSH32 0xFFFFFFFF00000000000000000000000000000000000000000000000000000000 DUP3 AND SWAP1 POP SWAP2 SWAP1 POP JUMP JUMPDEST PUSH2 0x2BDB DUP2 PUSH2 0x2BA6 JUMP JUMPDEST DUP2 EQ PUSH2 0x2BE6 JUMPI PUSH1 0x0 DUP1 REVERT JUMPDEST POP JUMP JUMPDEST PUSH1 0x0 DUP2 CALLDATALOAD SWAP1 POP PUSH2 0x2BF8 DUP2 PUSH2 0x2BD2 JUMP JUMPDEST SWAP3 SWAP2 POP POP JUMP JUMPDEST PUSH1 0x0 PUSH1 0x20 DUP3 DUP5 SUB SLT ISZERO PUSH2 0x2C14 JUMPI PUSH2 0x2C13 PUSH2 0x2B9C JUMP JUMPDEST JUMPDEST PUSH1 0x0 PUSH2 0x2C22 DUP5 DUP3 DUP6 ADD PUSH2 0x2BE9 JUMP JUMPDEST SWAP2 POP POP SWAP3 SWAP2 POP POP JUMP JUMPDEST PUSH1 0x0 DUP2 ISZERO ISZERO SWAP1 POP SWAP2 SWAP1 POP JUMP JUMPDEST PUSH2 0x2C40 DUP2 PUSH2 0x2C2B JUMP JUMPDEST DUP3 MSTORE POP POP JUMP JUMPDEST PUSH1 0x0 PUSH1 0x20 DUP3 ADD SWAP1 POP PUSH2 0x2C5B PUSH1 0x0 DUP4 ADD DUP5 PUSH2 0x2C37 JUMP JUMPDEST SWAP3 SWAP2 POP POP JUMP JUMPDEST PUSH1 0x0 DUP2 MLOAD SWAP1 POP SWAP2 SWAP1 POP JUMP JUMPDEST PUSH1 0x0 DUP3 DUP3 MSTORE PUSH1 0x20 DUP3 ADD SWAP1 POP SWAP3 SWAP2 POP POP JUMP JUMPDEST PUSH1 0x0 JUMPDEST DUP4 DUP2 LT ISZERO PUSH2 0x2C9B JUMPI DUP1 DUP3 ADD MLOAD DUP2 DUP5 ADD MSTORE PUSH1 0x20 DUP2 ADD SWAP1 POP PUSH2 0x2C80 JUMP JUMPDEST PUSH1 0x0 DUP5 DUP5 ADD MSTORE POP POP POP POP JUMP JUMPDEST PUSH1 0x0 PUSH1 0x1F NOT PUSH1 0x1F DUP4 ADD AND SWAP1 POP SWAP2 SWAP1 POP JUMP JUMPDEST PUSH1 0x0 PUSH2 0x2CC3 DUP3 PUSH2 0x2C61 JUMP JUMPDEST PUSH2 0x2CCD DUP2 DUP6 PUSH2 0x2C6C JUMP JUMPDEST SWAP4 POP PUSH2 0x2CDD DUP2 DUP6 PUSH1 0x20 DUP7 ADD PUSH2 0x2C7D JUMP JUMPDEST PUSH2 0x2CE6 DUP2 PUSH2 0x2CA7 JUMP JUMPDEST DUP5 ADD SWAP2 POP POP SWAP3 SWAP2 POP POP JUMP JUMPDEST PUSH1 0x0 PUSH1 0x20 DUP3 ADD SWAP1 POP DUP2 DUP2 SUB PUSH1 0x0 DUP4 ADD MSTORE PUSH2 0x2D0B DUP2 DUP5 PUSH2 0x2CB8 JUMP JUMPDEST SWAP1 POP SWAP3 SWAP2 POP POP JUMP JUMPDEST PUSH1 0x0 DUP2 SWAP1 POP SWAP2 SWAP1 POP JUMP JUMPDEST PUSH2 0x2D26 DUP2 PUSH2 0x2D13 JUMP JUMPDEST DUP2 EQ PUSH2 0x2D31 JUMPI PUSH1 0x0 DUP1 REVERT JUMPDEST POP JUMP JUMPDEST PUSH1 0x0 DUP2 CALLDATALOAD SWAP1 POP PUSH2 0x2D43 DUP2 PUSH2 0x2D1D JUMP JUMPDEST SWAP3 SWAP2 POP POP JUMP JUMPDEST PUSH1 0x0 PUSH1 0x20 DUP3 DUP5 SUB SLT ISZERO PUSH2 0x2D5F JUMPI PUSH2 0x2D5E PUSH2 0x2B9C JUMP JUMPDEST JUMPDEST PUSH1 0x0 PUSH2 0x2D6D DUP5 DUP3 DUP6 ADD PUSH2 0x2D34 JUMP JUMPDEST SWAP2 POP POP SWAP3 SWAP2 POP POP JUMP JUMPDEST PUSH1 0x0 PUSH20 0xFFFFFFFFFFFFFFFFFFFFFFFFFFFFFFFFFFFFFFFF DUP3 AND SWAP1 POP SWAP2 SWAP1 POP JUMP JUMPDEST PUSH1 0x0 PUSH2 0x2DA1 DUP3 PUSH2 0x2D76 JUMP JUMPDEST SWAP1 POP SWAP2 SWAP1 POP JUMP JUMPDEST PUSH2 0x2DB1 DUP2 PUSH2 0x2D96 JUMP JUMPDEST DUP3 MSTORE POP POP JUMP JUMPDEST PUSH1 0x0 PUSH1 0x20 DUP3 ADD SWAP1 POP PUSH2 0x2DCC PUSH1 0x0 DUP4 ADD DUP5 PUSH2 0x2DA8 JUMP JUMPDEST SWAP3 SWAP2 POP POP JUMP JUMPDEST PUSH2 0x2DDB DUP2 PUSH2 0x2D96 JUMP JUMPDEST DUP2 EQ PUSH2 0x2DE6 JUMPI PUSH1 0x0 DUP1 REVERT JUMPDEST POP JUMP JUMPDEST PUSH1 0x0 DUP2 CALLDATALOAD SWAP1 POP PUSH2 0x2DF8 DUP2 PUSH2 0x2DD2 JUMP JUMPDEST SWAP3 SWAP2 POP POP JUMP JUMPDEST PUSH1 0x0 DUP1 PUSH1 0x40 DUP4 DUP6 SUB SLT ISZERO PUSH2 0x2E15 JUMPI PUSH2 0x2E14 PUSH2 0x2B9C JUMP JUMPDEST JUMPDEST PUSH1 0x0 PUSH2 0x2E23 DUP6 DUP3 DUP7 ADD PUSH2 0x2DE9 JUMP JUMPDEST SWAP3 POP POP PUSH1 0x20 PUSH2 0x2E34 DUP6 DUP3 DUP7 ADD PUSH2 0x2D34 JUMP JUMPDEST SWAP2 POP POP SWAP3 POP SWAP3 SWAP1 POP JUMP JUMPDEST PUSH1 0x0 DUP2 MLOAD SWAP1 POP SWAP2 SWAP1 POP JUMP JUMPDEST PUSH1 0x0 DUP3 DUP3 MSTORE PUSH1 0x20 DUP3 ADD SWAP1 POP SWAP3 SWAP2 POP POP JUMP JUMPDEST PUSH1 0x0 DUP2 SWAP1 POP PUSH1 0x20 DUP3 ADD SWAP1 POP SWAP2 SWAP1 POP JUMP JUMPDEST PUSH2 0x2E73 DUP2 PUSH2 0x2D13 JUMP JUMPDEST DUP3 MSTORE POP POP JUMP JUMPDEST PUSH2 0x2E82 DUP2 PUSH2 0x2D96 JUMP JUMPDEST DUP3 MSTORE POP POP JUMP JUMPDEST PUSH1 0x40 DUP3 ADD PUSH1 0x0 DUP3 ADD MLOAD PUSH2 0x2E9E PUSH1 0x0 DUP6 ADD DUP3 PUSH2 0x2E6A JUMP JUMPDEST POP PUSH1 0x20 DUP3 ADD MLOAD PUSH2 0x2EB1 PUSH1 0x20 DUP6 ADD DUP3 PUSH2 0x2E79 JUMP JUMPDEST POP POP POP POP JUMP JUMPDEST PUSH1 0x0 PUSH2 0x2EC3 DUP4 DUP4 PUSH2 0x2E88 JUMP JUMPDEST PUSH1 0x40 DUP4 ADD SWAP1 POP SWAP3 SWAP2 POP POP JUMP JUMPDEST PUSH1 0x0 PUSH1 0x20 DUP3 ADD SWAP1 POP SWAP2 SWAP1 POP JUMP JUMPDEST PUSH1 0x0 PUSH2 0x2EE7 DUP3 PUSH2 0x2E3E JUMP JUMPDEST PUSH2 0x2EF1 DUP2 DUP6 PUSH2 0x2E49 JUMP JUMPDEST SWAP4 POP PUSH2 0x2EFC DUP4 PUSH2 0x2E5A JUMP JUMPDEST DUP1 PUSH1 0x0 JUMPDEST DUP4 DUP2 LT ISZERO PUSH2 0x2F2D JUMPI DUP2 MLOAD PUSH2 0x2F14 DUP9 DUP3 PUSH2 0x2EB7 JUMP JUMPDEST SWAP8 POP PUSH2 0x2F1F DUP4 PUSH2 0x2ECF JUMP JUMPDEST SWAP3 POP POP PUSH1 0x1 DUP2 ADD SWAP1 POP PUSH2 0x2F00 JUMP JUMPDEST POP DUP6 SWAP4 POP POP POP POP SWAP3 SWAP2 POP POP JUMP JUMPDEST PUSH1 0x0 PUSH1 0x20 DUP3 ADD SWAP1 POP DUP2 DUP2 SUB PUSH1 0x0 DUP4 ADD MSTORE PUSH2 0x2F54 DUP2 DUP5 PUSH2 0x2EDC JUMP JUMPDEST SWAP1 POP SWAP3 SWAP2 POP POP JUMP JUMPDEST PUSH1 0x0 DUP1 PUSH1 0x0 PUSH1 0x60 DUP5 DUP7 SUB SLT ISZERO PUSH2 0x2F75 JUMPI PUSH2 0x2F74 PUSH2 0x2B9C JUMP JUMPDEST JUMPDEST PUSH1 0x0 PUSH2 0x2F83 DUP7 DUP3 DUP8 ADD PUSH2 0x2DE9 JUMP JUMPDEST SWAP4 POP POP PUSH1 0x20 PUSH2 0x2F94 DUP7 DUP3 DUP8 ADD PUSH2 0x2DE9 JUMP JUMPDEST SWAP3 POP POP PUSH1 0x40 PUSH2 0x2FA5 DUP7 DUP3 DUP8 ADD PUSH2 0x2D34 JUMP JUMPDEST SWAP2 POP POP SWAP3 POP SWAP3 POP SWAP3 JUMP JUMPDEST PUSH1 0x0 DUP2 MLOAD SWAP1 POP SWAP2 SWAP1 POP JUMP JUMPDEST PUSH1 0x0 DUP3 DUP3 MSTORE PUSH1 0x20 DUP3 ADD SWAP1 POP SWAP3 SWAP2 POP POP JUMP JUMPDEST PUSH1 0x0 DUP2 SWAP1 POP PUSH1 0x20 DUP3 ADD SWAP1 POP SWAP2 SWAP1 POP JUMP JUMPDEST PUSH2 0x2FE4 DUP2 PUSH2 0x2C2B JUMP JUMPDEST DUP3 MSTORE POP POP JUMP JUMPDEST PUSH1 0xE0 DUP3 ADD PUSH1 0x0 DUP3 ADD MLOAD PUSH2 0x3000 PUSH1 0x0 DUP6 ADD DUP3 PUSH2 0x2E6A JUMP JUMPDEST POP PUSH1 0x20 DUP3 ADD MLOAD PUSH2 0x3013 PUSH1 0x20 DUP6 ADD DUP3 PUSH2 0x2E79 JUMP JUMPDEST POP PUSH1 0x40 DUP3 ADD MLOAD PUSH2 0x3026 PUSH1 0x40 DUP6 ADD DUP3 PUSH2 0x2E79 JUMP JUMPDEST POP PUSH1 0x60 DUP3 ADD MLOAD PUSH2 0x3039 PUSH1 0x60 DUP6 ADD DUP3 PUSH2 0x2E6A JUMP JUMPDEST POP PUSH1 0x80 DUP3 ADD MLOAD PUSH2 0x304C PUSH1 0x80 DUP6 ADD DUP3 PUSH2 0x2E6A JUMP JUMPDEST POP PUSH1 0xA0 DUP3 ADD MLOAD PUSH2 0x305F PUSH1 0xA0 DUP6 ADD DUP3 PUSH2 0x2FDB JUMP JUMPDEST POP PUSH1 0xC0 DUP3 ADD MLOAD PUSH2 0x3072 PUSH1 0xC0 DUP6 ADD DUP3 PUSH2 0x2E6A JUMP JUMPDEST POP POP POP POP JUMP JUMPDEST PUSH1 0x0 PUSH2 0x3084 DUP4 DUP4 PUSH2 0x2FEA JUMP JUMPDEST PUSH1 0xE0 DUP4 ADD SWAP1 POP SWAP3 SWAP2 POP POP JUMP JUMPDEST PUSH1 0x0 PUSH1 0x20 DUP3 ADD SWAP1 POP SWAP2 SWAP1 POP JUMP JUMPDEST PUSH1 0x0 PUSH2 0x30A8 DUP3 PUSH2 0x2FAF JUMP JUMPDEST PUSH2 0x30B2 DUP2 DUP6 PUSH2 0x2FBA JUMP JUMPDEST SWAP4 POP PUSH2 0x30BD DUP4 PUSH2 0x2FCB JUMP JUMPDEST DUP1 PUSH1 0x0 JUMPDEST DUP4 DUP2 LT ISZERO PUSH2 0x30EE JUMPI DUP2 MLOAD PUSH2 0x30D5 DUP9 DUP3 PUSH2 0x3078 JUMP JUMPDEST SWAP8 POP PUSH2 0x30E0 DUP4 PUSH2 0x3090 JUMP JUMPDEST SWAP3 POP POP PUSH1 0x1 DUP2 ADD SWAP1 POP PUSH2 0x30C1 JUMP JUMPDEST POP DUP6 SWAP4 POP POP POP POP SWAP3 SWAP2 POP POP JUMP JUMPDEST PUSH1 0x0 PUSH1 0x20 DUP3 ADD SWAP1 POP DUP2 DUP2 SUB PUSH1 0x0 DUP4 ADD MSTORE PUSH2 0x3115 DUP2 DUP5 PUSH2 0x309D JUMP JUMPDEST SWAP1 POP SWAP3 SWAP2 POP POP JUMP JUMPDEST PUSH1 0x0 DUP1 PUSH1 0x40 DUP4 DUP6 SUB SLT ISZERO PUSH2 0x3134 JUMPI PUSH2 0x3133 PUSH2 0x2B9C JUMP JUMPDEST JUMPDEST PUSH1 0x0 PUSH2 0x3142 DUP6 DUP3 DUP7 ADD PUSH2 0x2D34 JUMP JUMPDEST SWAP3 POP POP PUSH1 0x20 PUSH2 0x3153 DUP6 DUP3 DUP7 ADD PUSH2 0x2D34 JUMP JUMPDEST SWAP2 POP POP SWAP3 POP SWAP3 SWAP1 POP JUMP JUMPDEST PUSH2 0x3166 DUP2 PUSH2 0x2D13 JUMP JUMPDEST DUP3 MSTORE POP POP JUMP JUMPDEST PUSH1 0x0 PUSH1 0x20 DUP3 ADD SWAP1 POP PUSH2 0x3181 PUSH1 0x0 DUP4 ADD DUP5 PUSH2 0x315D JUMP JUMPDEST SWAP3 SWAP2 POP POP JUMP JUMPDEST PUSH1 0x0 PUSH1 0x20 DUP3 DUP5 SUB SLT ISZERO PUSH2 0x319D JUMPI PUSH2 0x319C PUSH2 0x2B9C JUMP JUMPDEST JUMPDEST PUSH1 0x0 PUSH2 0x31AB DUP5 DUP3 DUP6 ADD PUSH2 0x2DE9 JUMP JUMPDEST SWAP2 POP POP SWAP3 SWAP2 POP POP JUMP JUMPDEST PUSH2 0x31BD DUP2 PUSH2 0x2C2B JUMP JUMPDEST DUP2 EQ PUSH2 0x31C8 JUMPI PUSH1 0x0 DUP1 REVERT JUMPDEST POP JUMP JUMPDEST PUSH1 0x0 DUP2 CALLDATALOAD SWAP1 POP PUSH2 0x31DA DUP2 PUSH2 0x31B4 JUMP JUMPDEST SWAP3 SWAP2 POP POP JUMP JUMPDEST PUSH1 0x0 DUP1 PUSH1 0x40 DUP4 DUP6 SUB SLT ISZERO PUSH2 0x31F7 JUMPI PUSH2 0x31F6 PUSH2 0x2B9C JUMP JUMPDEST JUMPDEST PUSH1 0x0 PUSH2 0x3205 DUP6 DUP3 DUP7 ADD PUSH2 0x2DE9 JUMP JUMPDEST SWAP3 POP POP PUSH1 0x20 PUSH2 0x3216 DUP6 DUP3 DUP7 ADD PUSH2 0x31CB JUMP JUMPDEST SWAP2 POP POP SWAP3 POP SWAP3 SWAP1 POP JUMP JUMPDEST PUSH1 0x0 DUP1 PUSH1 0x0 DUP1 PUSH1 0x80 DUP6 DUP8 SUB SLT ISZERO PUSH2 0x323A JUMPI PUSH2 0x3239 PUSH2 0x2B9C JUMP JUMPDEST JUMPDEST PUSH1 0x0 PUSH2 0x3248 DUP8 DUP3 DUP9 ADD PUSH2 0x2DE9 JUMP JUMPDEST SWAP5 POP POP PUSH1 0x20 PUSH2 0x3259 DUP8 DUP3 DUP9 ADD PUSH2 0x2D34 JUMP JUMPDEST SWAP4 POP POP PUSH1 0x40 PUSH2 0x326A DUP8 DUP3 DUP9 ADD PUSH2 0x2D34 JUMP JUMPDEST SWAP3 POP POP PUSH1 0x60 PUSH2 0x327B DUP8 DUP3 DUP9 ADD PUSH2 0x2D34 JUMP JUMPDEST SWAP2 POP POP SWAP3 SWAP6 SWAP2 SWAP5 POP SWAP3 POP JUMP JUMPDEST PUSH1 0x0 DUP1 REVERT JUMPDEST PUSH1 0x0 DUP1 REVERT JUMPDEST PUSH32 0x4E487B7100000000000000000000000000000000000000000000000000000000 PUSH1 0x0 MSTORE PUSH1 0x41 PUSH1 0x4 MSTORE PUSH1 0x24 PUSH1 0x0 REVERT JUMPDEST PUSH2 0x32C9 DUP3 PUSH2 0x2CA7 JUMP JUMPDEST DUP2 ADD DUP2 DUP2 LT PUSH8 0xFFFFFFFFFFFFFFFF DUP3 GT OR ISZERO PUSH2 0x32E8 JUMPI PUSH2 0x32E7 PUSH2 0x3291 JUMP JUMPDEST JUMPDEST DUP1 PUSH1 0x40 MSTORE POP POP POP JUMP JUMPDEST PUSH1 0x0 PUSH2 0x32FB PUSH2 0x2B92 JUMP JUMPDEST SWAP1 POP PUSH2 0x3307 DUP3 DUP3 PUSH2 0x32C0 JUMP JUMPDEST SWAP2 SWAP1 POP JUMP JUMPDEST PUSH1 0x0 PUSH8 0xFFFFFFFFFFFFFFFF DUP3 GT ISZERO PUSH2 0x3327 JUMPI PUSH2 0x3326 PUSH2 0x3291 JUMP JUMPDEST JUMPDEST PUSH2 0x3330 DUP3 PUSH2 0x2CA7 JUMP JUMPDEST SWAP1 POP PUSH1 0x20 DUP2 ADD SWAP1 POP SWAP2 SWAP1 POP JUMP JUMPDEST DUP3 DUP2 DUP4 CALLDATACOPY PUSH1 0x0 DUP4 DUP4 ADD MSTORE POP POP POP JUMP JUMPDEST PUSH1 0x0 PUSH2 0x335F PUSH2 0x335A DUP5 PUSH2 0x330C JUMP JUMPDEST PUSH2 0x32F1 JUMP JUMPDEST SWAP1 POP DUP3 DUP2 MSTORE PUSH1 0x20 DUP2 ADD DUP5 DUP5 DUP5 ADD GT ISZERO PUSH2 0x337B JUMPI PUSH2 0x337A PUSH2 0x328C JUMP JUMPDEST JUMPDEST PUSH2 0x3386 DUP5 DUP3 DUP6 PUSH2 0x333D JUMP JUMPDEST POP SWAP4 SWAP3 POP POP POP JUMP JUMPDEST PUSH1 0x0 DUP3 PUSH1 0x1F DUP4 ADD SLT PUSH2 0x33A3 JUMPI PUSH2 0x33A2 PUSH2 0x3287 JUMP JUMPDEST JUMPDEST DUP2 CALLDATALOAD PUSH2 0x33B3 DUP5 DUP3 PUSH1 0x20 DUP7 ADD PUSH2 0x334C JUMP JUMPDEST SWAP2 POP POP SWAP3 SWAP2 POP POP JUMP JUMPDEST PUSH1 0x0 DUP1 PUSH1 0x0 DUP1 PUSH1 0x80 DUP6 DUP8 SUB SLT ISZERO PUSH2 0x33D6 JUMPI PUSH2 0x33D5 PUSH2 0x2B9C JUMP JUMPDEST JUMPDEST PUSH1 0x0 PUSH2 0x33E4 DUP8 DUP3 DUP9 ADD PUSH2 0x2DE9 JUMP JUMPDEST SWAP5 POP POP PUSH1 0x20 PUSH2 0x33F5 DUP8 DUP3 DUP9 ADD PUSH2 0x2DE9 JUMP JUMPDEST SWAP4 POP POP PUSH1 0x40 PUSH2 0x3406 DUP8 DUP3 DUP9 ADD PUSH2 0x2D34 JUMP JUMPDEST SWAP3 POP POP PUSH1 0x60 DUP6 ADD CALLDATALOAD PUSH8 0xFFFFFFFFFFFFFFFF DUP2 GT ISZERO PUSH2 0x3427 JUMPI PUSH2 0x3426 PUSH2 0x2BA1 JUMP JUMPDEST JUMPDEST PUSH2 0x3433 DUP8 DUP3 DUP9 ADD PUSH2 0x338E JUMP JUMPDEST SWAP2 POP POP SWAP3 SWAP6 SWAP2 SWAP5 POP SWAP3 POP JUMP JUMPDEST PUSH1 0x0 PUSH8 0xFFFFFFFFFFFFFFFF DUP3 GT ISZERO PUSH2 0x345A JUMPI PUSH2 0x3459 PUSH2 0x3291 JUMP JUMPDEST JUMPDEST PUSH2 0x3463 DUP3 PUSH2 0x2CA7 JUMP JUMPDEST SWAP1 POP PUSH1 0x20 DUP2 ADD SWAP1 POP SWAP2 SWAP1 POP JUMP JUMPDEST PUSH1 0x0 PUSH2 0x3483 PUSH2 0x347E DUP5 PUSH2 0x343F JUMP JUMPDEST PUSH2 0x32F1 JUMP JUMPDEST SWAP1 POP DUP3 DUP2 MSTORE PUSH1 0x20 DUP2 ADD DUP5 DUP5 DUP5 ADD GT ISZERO PUSH2 0x349F JUMPI PUSH2 0x349E PUSH2 0x328C JUMP JUMPDEST JUMPDEST PUSH2 0x34AA DUP5 DUP3 DUP6 PUSH2 0x333D JUMP JUMPDEST POP SWAP4 SWAP3 POP POP POP JUMP JUMPDEST PUSH1 0x0 DUP3 PUSH1 0x1F DUP4 ADD SLT PUSH2 0x34C7 JUMPI PUSH2 0x34C6 PUSH2 0x3287 JUMP JUMPDEST JUMPDEST DUP2 CALLDATALOAD PUSH2 0x34D7 DUP5 DUP3 PUSH1 0x20 DUP7 ADD PUSH2 0x3470 JUMP JUMPDEST SWAP2 POP POP SWAP3 SWAP2 POP POP JUMP JUMPDEST PUSH1 0x0 PUSH1 0x20 DUP3 DUP5 SUB SLT ISZERO PUSH2 0x34F6 JUMPI PUSH2 0x34F5 PUSH2 0x2B9C JUMP JUMPDEST JUMPDEST PUSH1 0x0 DUP3 ADD CALLDATALOAD PUSH8 0xFFFFFFFFFFFFFFFF DUP2 GT ISZERO PUSH2 0x3514 JUMPI PUSH2 0x3513 PUSH2 0x2BA1 JUMP JUMPDEST JUMPDEST PUSH2 0x3520 DUP5 DUP3 DUP6 ADD PUSH2 0x34B2 JUMP JUMPDEST SWAP2 POP POP SWAP3 SWAP2 POP POP JUMP JUMPDEST PUSH1 0x0 DUP1 PUSH1 0x40 DUP4 DUP6 SUB SLT ISZERO PUSH2 0x3540 JUMPI PUSH2 0x353F PUSH2 0x2B9C JUMP JUMPDEST JUMPDEST PUSH1 0x0 PUSH2 0x354E DUP6 DUP3 DUP7 ADD PUSH2 0x2DE9 JUMP JUMPDEST SWAP3 POP POP PUSH1 0x20 PUSH2 0x355F DUP6 DUP3 DUP7 ADD PUSH2 0x2DE9 JUMP JUMPDEST SWAP2 POP POP SWAP3 POP SWAP3 SWAP1 POP JUMP JUMPDEST PUSH32 0x4E487B7100000000000000000000000000000000000000000000000000000000 PUSH1 0x0 MSTORE PUSH1 0x22 PUSH1 0x4 MSTORE PUSH1 0x24 PUSH1 0x0 REVERT JUMPDEST PUSH1 0x0 PUSH1 0x2 DUP3 DIV SWAP1 POP PUSH1 0x1 DUP3 AND DUP1 PUSH2 0x35B0 JUMPI PUSH1 0x7F DUP3 AND SWAP2 POP JUMPDEST PUSH1 0x20 DUP3 LT DUP2 SUB PUSH2 0x35C3 JUMPI PUSH2 0x35C2 PUSH2 0x3569 JUMP JUMPDEST JUMPDEST POP SWAP2 SWAP1 POP JUMP JUMPDEST PUSH32 0x4552433732313A20617070726F76616C20746F2063757272656E74206F776E65 PUSH1 0x0 DUP3 ADD MSTORE PUSH32 0x7200000000000000000000000000000000000000000000000000000000000000 PUSH1 0x20 DUP3 ADD MSTORE POP JUMP JUMPDEST PUSH1 0x0 PUSH2 0x3625 PUSH1 0x21 DUP4 PUSH2 0x2C6C JUMP JUMPDEST SWAP2 POP PUSH2 0x3630 DUP3 PUSH2 0x35C9 JUMP JUMPDEST PUSH1 0x40 DUP3 ADD SWAP1 POP SWAP2 SWAP1 POP JUMP JUMPDEST PUSH1 0x0 PUSH1 0x20 DUP3 ADD SWAP1 POP DUP2 DUP2 SUB PUSH1 0x0 DUP4 ADD MSTORE PUSH2 0x3654 DUP2 PUSH2 0x3618 JUMP JUMPDEST SWAP1 POP SWAP2 SWAP1 POP JUMP JUMPDEST PUSH32 0x4552433732313A20617070726F76652063616C6C6572206973206E6F7420746F PUSH1 0x0 DUP3 ADD MSTORE PUSH32 0x6B656E206F776E6572206F7220617070726F76656420666F7220616C6C000000 PUSH1 0x20 DUP3 ADD MSTORE POP JUMP JUMPDEST PUSH1 0x0 PUSH2 0x36B7 PUSH1 0x3D DUP4 PUSH2 0x2C6C JUMP JUMPDEST SWAP2 POP PUSH2 0x36C2 DUP3 PUSH2 0x365B JUMP JUMPDEST PUSH1 0x40 DUP3 ADD SWAP1 POP SWAP2 SWAP1 POP JUMP JUMPDEST PUSH1 0x0 PUSH1 0x20 DUP3 ADD SWAP1 POP DUP2 DUP2 SUB PUSH1 0x0 DUP4 ADD MSTORE PUSH2 0x36E6 DUP2 PUSH2 0x36AA JUMP JUMPDEST SWAP1 POP SWAP2 SWAP1 POP JUMP JUMPDEST PUSH32 0x4552433732313A2063616C6C6572206973206E6F7420746F6B656E206F776E65 PUSH1 0x0 DUP3 ADD MSTORE PUSH32 0x72206F7220617070726F76656400000000000000000000000000000000000000 PUSH1 0x20 DUP3 ADD MSTORE POP JUMP JUMPDEST PUSH1 0x0 PUSH2 0x3749 PUSH1 0x2D DUP4 PUSH2 0x2C6C JUMP JUMPDEST SWAP2 POP PUSH2 0x3754 DUP3 PUSH2 0x36ED JUMP JUMPDEST PUSH1 0x40 DUP3 ADD SWAP1 POP SWAP2 SWAP1 POP JUMP JUMPDEST PUSH1 0x0 PUSH1 0x20 DUP3 ADD SWAP1 POP DUP2 DUP2 SUB PUSH1 0x0 DUP4 ADD MSTORE PUSH2 0x3778 DUP2 PUSH2 0x373C JUMP JUMPDEST SWAP1 POP SWAP2 SWAP1 POP JUMP JUMPDEST PUSH32 0x4E487B7100000000000000000000000000000000000000000000000000000000 PUSH1 0x0 MSTORE PUSH1 0x11 PUSH1 0x4 MSTORE PUSH1 0x24 PUSH1 0x0 REVERT JUMPDEST PUSH1 0x0 PUSH2 0x37B9 DUP3 PUSH2 0x2D13 JUMP JUMPDEST SWAP2 POP PUSH2 0x37C4 DUP4 PUSH2 0x2D13 JUMP JUMPDEST SWAP3 POP DUP3 DUP3 SUB SWAP1 POP DUP2 DUP2 GT ISZERO PUSH2 0x37DC JUMPI PUSH2 0x37DB PUSH2 0x377F JUMP JUMPDEST JUMPDEST SWAP3 SWAP2 POP POP JUMP JUMPDEST PUSH32 0x4E487B7100000000000000000000000000000000000000000000000000000000 PUSH1 0x0 MSTORE PUSH1 0x32 PUSH1 0x4 MSTORE PUSH1 0x24 PUSH1 0x0 REVERT JUMPDEST PUSH32 0x6D73672E73656E646572213D73656C6C65720000000000000000000000000000 PUSH1 0x0 DUP3 ADD MSTORE POP JUMP JUMPDEST PUSH1 0x0 PUSH2 0x3847 PUSH1 0x12 DUP4 PUSH2 0x2C6C JUMP JUMPDEST SWAP2 POP PUSH2 0x3852 DUP3 PUSH2 0x3811 JUMP JUMPDEST PUSH1 0x20 DUP3 ADD SWAP1 POP SWAP2 SWAP1 POP JUMP JUMPDEST PUSH1 0x0 PUSH1 0x20 DUP3 ADD SWAP1 POP DUP2 DUP2 SUB PUSH1 0x0 DUP4 ADD MSTORE PUSH2 0x3876 DUP2 PUSH2 0x383A JUMP JUMPDEST SWAP1 POP SWAP2 SWAP1 POP JUMP JUMPDEST PUSH1 0x0 PUSH1 0x60 DUP3 ADD SWAP1 POP PUSH2 0x3892 PUSH1 0x0 DUP4 ADD DUP7 PUSH2 0x2DA8 JUMP JUMPDEST PUSH2 0x389F PUSH1 0x20 DUP4 ADD DUP6 PUSH2 0x2DA8 JUMP JUMPDEST PUSH2 0x38AC PUSH1 0x40 DUP4 ADD DUP5 PUSH2 0x315D JUMP JUMPDEST SWAP5 SWAP4 POP POP POP POP JUMP JUMPDEST PUSH1 0x0 DUP2 MLOAD SWAP1 POP PUSH2 0x38C3 DUP2 PUSH2 0x31B4 JUMP JUMPDEST SWAP3 SWAP2 POP POP JUMP JUMPDEST PUSH1 0x0 PUSH1 0x20 DUP3 DUP5 SUB SLT ISZERO PUSH2 0x38DF JUMPI PUSH2 0x38DE PUSH2 0x2B9C JUMP JUMPDEST JUMPDEST PUSH1 0x0 PUSH2 0x38ED DUP5 DUP3 DUP6 ADD PUSH2 0x38B4 JUMP JUMPDEST SWAP2 POP POP SWAP3 SWAP2 POP POP JUMP JUMPDEST PUSH1 0x0 PUSH1 0x40 DUP3 ADD SWAP1 POP PUSH2 0x390B PUSH1 0x0 DUP4 ADD DUP6 PUSH2 0x2DA8 JUMP JUMPDEST PUSH2 0x3918 PUSH1 0x20 DUP4 ADD DUP5 PUSH2 0x2DA8 JUMP JUMPDEST SWAP4 SWAP3 POP POP POP JUMP JUMPDEST PUSH1 0x0 DUP2 MLOAD SWAP1 POP PUSH2 0x392E DUP2 PUSH2 0x2D1D JUMP JUMPDEST SWAP3 SWAP2 POP POP JUMP JUMPDEST PUSH1 0x0 PUSH1 0x20 DUP3 DUP5 SUB SLT ISZERO PUSH2 0x394A JUMPI PUSH2 0x3949 PUSH2 0x2B9C JUMP JUMPDEST JUMPDEST PUSH1 0x0 PUSH2 0x3958 DUP5 DUP3 DUP6 ADD PUSH2 0x391F JUMP JUMPDEST SWAP2 POP POP SWAP3 SWAP2 POP POP JUMP JUMPDEST PUSH32 0x496E73756666696369656E7420455243323020616C6C6F77616E636500000000 PUSH1 0x0 DUP3 ADD MSTORE POP JUMP JUMPDEST PUSH1 0x0 PUSH2 0x3997 PUSH1 0x1C DUP4 PUSH2 0x2C6C JUMP JUMPDEST SWAP2 POP PUSH2 0x39A2 DUP3 PUSH2 0x3961 JUMP JUMPDEST PUSH1 0x20 DUP3 ADD SWAP1 POP SWAP2 SWAP1 POP JUMP JUMPDEST PUSH1 0x0 PUSH1 0x20 DUP3 ADD SWAP1 POP DUP2 DUP2 SUB PUSH1 0x0 DUP4 ADD MSTORE PUSH2 0x39C6 DUP2 PUSH2 0x398A JUMP JUMPDEST SWAP1 POP SWAP2 SWAP1 POP JUMP JUMPDEST PUSH32 0x4552433732313A20696E76616C696420746F6B656E2049440000000000000000 PUSH1 0x0 DUP3 ADD MSTORE POP JUMP JUMPDEST PUSH1 0x0 PUSH2 0x3A03 PUSH1 0x18 DUP4 PUSH2 0x2C6C JUMP JUMPDEST SWAP2 POP PUSH2 0x3A0E DUP3 PUSH2 0x39CD JUMP JUMPDEST PUSH1 0x20 DUP3 ADD SWAP1 POP SWAP2 SWAP1 POP JUMP JUMPDEST PUSH1 0x0 PUSH1 0x20 DUP3 ADD SWAP1 POP DUP2 DUP2 SUB PUSH1 0x0 DUP4 ADD MSTORE PUSH2 0x3A32 DUP2 PUSH2 0x39F6 JUMP JUMPDEST SWAP1 POP SWAP2 SWAP1 POP JUMP JUMPDEST PUSH32 0x4552433732313A2061646472657373207A65726F206973206E6F742061207661 PUSH1 0x0 DUP3 ADD MSTORE PUSH32 0x6C6964206F776E65720000000000000000000000000000000000000000000000 PUSH1 0x20 DUP3 ADD MSTORE POP JUMP JUMPDEST PUSH1 0x0 PUSH2 0x3A95 PUSH1 0x29 DUP4 PUSH2 0x2C6C JUMP JUMPDEST SWAP2 POP PUSH2 0x3AA0 DUP3 PUSH2 0x3A39 JUMP JUMPDEST PUSH1 0x40 DUP3 ADD SWAP1 POP SWAP2 SWAP1 POP JUMP JUMPDEST PUSH1 0x0 PUSH1 0x20 DUP3 ADD SWAP1 POP DUP2 DUP2 SUB PUSH1 0x0 DUP4 ADD MSTORE PUSH2 0x3AC4 DUP2 PUSH2 0x3A88 JUMP JUMPDEST SWAP1 POP SWAP2 SWAP1 POP JUMP JUMPDEST PUSH1 0x0 DUP2 MLOAD SWAP1 POP PUSH2 0x3ADA DUP2 PUSH2 0x2DD2 JUMP JUMPDEST SWAP3 SWAP2 POP POP JUMP JUMPDEST PUSH1 0x0 PUSH1 0x20 DUP3 DUP5 SUB SLT ISZERO PUSH2 0x3AF6 JUMPI PUSH2 0x3AF5 PUSH2 0x2B9C JUMP JUMPDEST JUMPDEST PUSH1 0x0 PUSH2 0x3B04 DUP5 DUP3 DUP6 ADD PUSH2 0x3ACB JUMP JUMPDEST SWAP2 POP POP SWAP3 SWAP2 POP POP JUMP JUMPDEST PUSH32 0x455243373231206E6F7420617070726F76656400000000000000000000000000 PUSH1 0x0 DUP3 ADD MSTORE POP JUMP JUMPDEST PUSH1 0x0 PUSH2 0x3B43 PUSH1 0x13 DUP4 PUSH2 0x2C6C JUMP JUMPDEST SWAP2 POP PUSH2 0x3B4E DUP3 PUSH2 0x3B0D JUMP JUMPDEST PUSH1 0x20 DUP3 ADD SWAP1 POP SWAP2 SWAP1 POP JUMP JUMPDEST PUSH1 0x0 PUSH1 0x20 DUP3 ADD SWAP1 POP DUP2 DUP2 SUB PUSH1 0x0 DUP4 ADD MSTORE PUSH2 0x3B72 DUP2 PUSH2 0x3B36 JUMP JUMPDEST SWAP1 POP SWAP2 SWAP1 POP JUMP JUMPDEST PUSH1 0x0 PUSH1 0x40 DUP3 ADD SWAP1 POP PUSH2 0x3B8E PUSH1 0x0 DUP4 ADD DUP6 PUSH2 0x2DA8 JUMP JUMPDEST PUSH2 0x3B9B PUSH1 0x20 DUP4 ADD DUP5 PUSH2 0x315D JUMP JUMPDEST SWAP4 SWAP3 POP POP POP JUMP JUMPDEST PUSH1 0x0 DUP2 SWAP1 POP SWAP3 SWAP2 POP POP JUMP JUMPDEST PUSH1 0x0 PUSH2 0x3BB8 DUP3 PUSH2 0x2C61 JUMP JUMPDEST PUSH2 0x3BC2 DUP2 DUP6 PUSH2 0x3BA2 JUMP JUMPDEST SWAP4 POP PUSH2 0x3BD2 DUP2 DUP6 PUSH1 0x20 DUP7 ADD PUSH2 0x2C7D JUMP JUMPDEST DUP1 DUP5 ADD SWAP2 POP POP SWAP3 SWAP2 POP POP JUMP JUMPDEST PUSH1 0x0 PUSH2 0x3BEA DUP3 DUP6 PUSH2 0x3BAD JUMP JUMPDEST SWAP2 POP PUSH2 0x3BF6 DUP3 DUP5 PUSH2 0x3BAD JUMP JUMPDEST SWAP2 POP DUP2 SWAP1 POP SWAP4 SWAP3 POP POP POP JUMP JUMPDEST PUSH32 0x4D75737420706179206D696E74696E6720707269636500000000000000000000 PUSH1 0x0 DUP3 ADD MSTORE POP JUMP JUMPDEST PUSH1 0x0 PUSH2 0x3C38 PUSH1 0x16 DUP4 PUSH2 0x2C6C JUMP JUMPDEST SWAP2 POP PUSH2 0x3C43 DUP3 PUSH2 0x3C02 JUMP JUMPDEST PUSH1 0x20 DUP3 ADD SWAP1 POP SWAP2 SWAP1 POP JUMP JUMPDEST PUSH1 0x0 PUSH1 0x20 DUP3 ADD SWAP1 POP DUP2 DUP2 SUB PUSH1 0x0 DUP4 ADD MSTORE PUSH2 0x3C67 DUP2 PUSH2 0x3C2B JUMP JUMPDEST SWAP1 POP SWAP2 SWAP1 POP JUMP JUMPDEST PUSH32 0x4F776E61626C653A206E6577206F776E657220697320746865207A65726F2061 PUSH1 0x0 DUP3 ADD MSTORE PUSH32 0x6464726573730000000000000000000000000000000000000000000000000000 PUSH1 0x20 DUP3 ADD MSTORE POP JUMP JUMPDEST PUSH1 0x0 PUSH2 0x3CCA PUSH1 0x26 DUP4 PUSH2 0x2C6C JUMP JUMPDEST SWAP2 POP PUSH2 0x3CD5 DUP3 PUSH2 0x3C6E JUMP JUMPDEST PUSH1 0x40 DUP3 ADD SWAP1 POP SWAP2 SWAP1 POP JUMP JUMPDEST PUSH1 0x0 PUSH1 0x20 DUP3 ADD SWAP1 POP DUP2 DUP2 SUB PUSH1 0x0 DUP4 ADD MSTORE PUSH2 0x3CF9 DUP2 PUSH2 0x3CBD JUMP JUMPDEST SWAP1 POP SWAP2 SWAP1 POP JUMP JUMPDEST PUSH32 0x4552433732313A207472616E736665722066726F6D20696E636F727265637420 PUSH1 0x0 DUP3 ADD MSTORE PUSH32 0x6F776E6572000000000000000000000000000000000000000000000000000000 PUSH1 0x20 DUP3 ADD MSTORE POP JUMP JUMPDEST PUSH1 0x0 PUSH2 0x3D5C PUSH1 0x25 DUP4 PUSH2 0x2C6C JUMP JUMPDEST SWAP2 POP PUSH2 0x3D67 DUP3 PUSH2 0x3D00 JUMP JUMPDEST PUSH1 0x40 DUP3 ADD SWAP1 POP SWAP2 SWAP1 POP JUMP JUMPDEST PUSH1 0x0 PUSH1 0x20 DUP3 ADD SWAP1 POP DUP2 DUP2 SUB PUSH1 0x0 DUP4 ADD MSTORE PUSH2 0x3D8B DUP2 PUSH2 0x3D4F JUMP JUMPDEST SWAP1 POP SWAP2 SWAP1 POP JUMP JUMPDEST PUSH32 0x4552433732313A207472616E7366657220746F20746865207A65726F20616464 PUSH1 0x0 DUP3 ADD MSTORE PUSH32 0x7265737300000000000000000000000000000000000000000000000000000000 PUSH1 0x20 DUP3 ADD MSTORE POP JUMP JUMPDEST PUSH1 0x0 PUSH2 0x3DEE PUSH1 0x24 DUP4 PUSH2 0x2C6C JUMP JUMPDEST SWAP2 POP PUSH2 0x3DF9 DUP3 PUSH2 0x3D92 JUMP JUMPDEST PUSH1 0x40 DUP3 ADD SWAP1 POP SWAP2 SWAP1 POP JUMP JUMPDEST PUSH1 0x0 PUSH1 0x20 DUP3 ADD SWAP1 POP DUP2 DUP2 SUB PUSH1 0x0 DUP4 ADD MSTORE PUSH2 0x3E1D DUP2 PUSH2 0x3DE1 JUMP JUMPDEST SWAP1 POP SWAP2 SWAP1 POP JUMP JUMPDEST PUSH32 0x4F776E61626C653A2063616C6C6572206973206E6F7420746865206F776E6572 PUSH1 0x0 DUP3 ADD MSTORE POP JUMP JUMPDEST PUSH1 0x0 PUSH2 0x3E5A PUSH1 0x20 DUP4 PUSH2 0x2C6C JUMP JUMPDEST SWAP2 POP PUSH2 0x3E65 DUP3 PUSH2 0x3E24 JUMP JUMPDEST PUSH1 0x20 DUP3 ADD SWAP1 POP SWAP2 SWAP1 POP JUMP JUMPDEST PUSH1 0x0 PUSH1 0x20 DUP3 ADD SWAP1 POP DUP2 DUP2 SUB PUSH1 0x0 DUP4 ADD MSTORE PUSH2 0x3E89 DUP2 PUSH2 0x3E4D JUMP JUMPDEST SWAP1 POP SWAP2 SWAP1 POP JUMP JUMPDEST PUSH32 0x4552433732313A20617070726F766520746F2063616C6C657200000000000000 PUSH1 0x0 DUP3 ADD MSTORE POP JUMP JUMPDEST PUSH1 0x0 PUSH2 0x3EC6 PUSH1 0x19 DUP4 PUSH2 0x2C6C JUMP JUMPDEST SWAP2 POP PUSH2 0x3ED1 DUP3 PUSH2 0x3E90 JUMP JUMPDEST PUSH1 0x20 DUP3 ADD SWAP1 POP SWAP2 SWAP1 POP JUMP JUMPDEST PUSH1 0x0 PUSH1 0x20 DUP3 ADD SWAP1 POP DUP2 DUP2 SUB PUSH1 0x0 DUP4 ADD MSTORE PUSH2 0x3EF5 DUP2 PUSH2 0x3EB9 JUMP JUMPDEST SWAP1 POP SWAP2 SWAP1 POP JUMP JUMPDEST PUSH32 0x4552433732313A207472616E7366657220746F206E6F6E204552433732315265 PUSH1 0x0 DUP3 ADD MSTORE PUSH32 0x63656976657220696D706C656D656E7465720000000000000000000000000000 PUSH1 0x20 DUP3 ADD MSTORE POP JUMP JUMPDEST PUSH1 0x0 PUSH2 0x3F58 PUSH1 0x32 DUP4 PUSH2 0x2C6C JUMP JUMPDEST SWAP2 POP PUSH2 0x3F63 DUP3 PUSH2 0x3EFC JUMP JUMPDEST PUSH1 0x40 DUP3 ADD SWAP1 POP SWAP2 SWAP1 POP JUMP JUMPDEST PUSH1 0x0 PUSH1 0x20 DUP3 ADD SWAP1 POP DUP2 DUP2 SUB PUSH1 0x0 DUP4 ADD MSTORE PUSH2 0x3F87 DUP2 PUSH2 0x3F4B JUMP JUMPDEST SWAP1 POP SWAP2 SWAP1 POP JUMP JUMPDEST PUSH32 0x4552433732313A206D696E7420746F20746865207A65726F2061646472657373 PUSH1 0x0 DUP3 ADD MSTORE POP JUMP JUMPDEST PUSH1 0x0 PUSH2 0x3FC4 PUSH1 0x20 DUP4 PUSH2 0x2C6C JUMP JUMPDEST SWAP2 POP PUSH2 0x3FCF DUP3 PUSH2 0x3F8E JUMP JUMPDEST PUSH1 0x20 DUP3 ADD SWAP1 POP SWAP2 SWAP1 POP JUMP JUMPDEST PUSH1 0x0 PUSH1 0x20 DUP3 ADD SWAP1 POP DUP2 DUP2 SUB PUSH1 0x0 DUP4 ADD MSTORE PUSH2 0x3FF3 DUP2 PUSH2 0x3FB7 JUMP JUMPDEST SWAP1 POP SWAP2 SWAP1 POP JUMP JUMPDEST PUSH32 0x4552433732313A20746F6B656E20616C7265616479206D696E74656400000000 PUSH1 0x0 DUP3 ADD MSTORE POP JUMP JUMPDEST PUSH1 0x0 PUSH2 0x4030 PUSH1 0x1C DUP4 PUSH2 0x2C6C JUMP JUMPDEST SWAP2 POP PUSH2 0x403B DUP3 PUSH2 0x3FFA JUMP JUMPDEST PUSH1 0x20 DUP3 ADD SWAP1 POP SWAP2 SWAP1 POP JUMP JUMPDEST PUSH1 0x0 PUSH1 0x20 DUP3 ADD SWAP1 POP DUP2 DUP2 SUB PUSH1 0x0 DUP4 ADD MSTORE PUSH2 0x405F DUP2 PUSH2 0x4023 JUMP JUMPDEST SWAP1 POP SWAP2 SWAP1 POP JUMP JUMPDEST PUSH32 0x45524337323155524953746F726167653A2055524920736574206F66206E6F6E PUSH1 0x0 DUP3 ADD MSTORE PUSH32 0x6578697374656E7420746F6B656E000000000000000000000000000000000000 PUSH1 0x20 DUP3 ADD MSTORE POP JUMP JUMPDEST PUSH1 0x0 PUSH2 0x40C2 PUSH1 0x2E DUP4 PUSH2 0x2C6C JUMP JUMPDEST SWAP2 POP PUSH2 0x40CD DUP3 PUSH2 0x4066 JUMP JUMPDEST PUSH1 0x40 DUP3 ADD SWAP1 POP SWAP2 SWAP1 POP JUMP JUMPDEST PUSH1 0x0 PUSH1 0x20 DUP3 ADD SWAP1 POP DUP2 DUP2 SUB PUSH1 0x0 DUP4 ADD MSTORE PUSH2 0x40F1 DUP2 PUSH2 0x40B5 JUMP JUMPDEST SWAP1 POP SWAP2 SWAP1 POP JUMP JUMPDEST PUSH1 0x0 DUP2 SWAP1 POP DUP2 PUSH1 0x0 MSTORE PUSH1 0x20 PUSH1 0x0 KECCAK256 SWAP1 POP SWAP2 SWAP1 POP JUMP JUMPDEST PUSH1 0x0 PUSH1 0x20 PUSH1 0x1F DUP4 ADD DIV SWAP1 POP SWAP2 SWAP1 POP JUMP JUMPDEST PUSH1 0x0 DUP3 DUP3 SHL SWAP1 POP SWAP3 SWAP2 POP POP JUMP JUMPDEST PUSH1 0x0 PUSH1 0x8 DUP4 MUL PUSH2 0x415A PUSH32 0xFFFFFFFFFFFFFFFFFFFFFFFFFFFFFFFFFFFFFFFFFFFFFFFFFFFFFFFFFFFFFFFF DUP3 PUSH2 0x411D JUMP JUMPDEST PUSH2 0x4164 DUP7 DUP4 PUSH2 0x411D JUMP JUMPDEST SWAP6 POP DUP1 NOT DUP5 AND SWAP4 POP DUP1 DUP7 AND DUP5 OR SWAP3 POP POP POP SWAP4 SWAP3 POP POP POP JUMP JUMPDEST PUSH1 0x0 DUP2 SWAP1 POP SWAP2 SWAP1 POP JUMP JUMPDEST PUSH1 0x0 PUSH2 0x41A1 PUSH2 0x419C PUSH2 0x4197 DUP5 PUSH2 0x2D13 JUMP JUMPDEST PUSH2 0x417C JUMP JUMPDEST PUSH2 0x2D13 JUMP JUMPDEST SWAP1 POP SWAP2 SWAP1 POP JUMP JUMPDEST PUSH1 0x0 DUP2 SWAP1 POP SWAP2 SWAP1 POP JUMP JUMPDEST PUSH2 0x41BB DUP4 PUSH2 0x4186 JUMP JUMPDEST PUSH2 0x41CF PUSH2 0x41C7 DUP3 PUSH2 0x41A8 JUMP JUMPDEST DUP5 DUP5 SLOAD PUSH2 0x412A JUMP JUMPDEST DUP3 SSTORE POP POP POP POP JUMP JUMPDEST PUSH1 0x0 SWAP1 JUMP JUMPDEST PUSH2 0x41E4 PUSH2 0x41D7 JUMP JUMPDEST PUSH2 0x41EF DUP2 DUP5 DUP5 PUSH2 0x41B2 JUMP JUMPDEST POP POP POP JUMP JUMPDEST JUMPDEST DUP2 DUP2 LT ISZERO PUSH2 0x4213 JUMPI PUSH2 0x4208 PUSH1 0x0 DUP3 PUSH2 0x41DC JUMP JUMPDEST PUSH1 0x1 DUP2 ADD SWAP1 POP PUSH2 0x41F5 JUMP JUMPDEST POP POP JUMP JUMPDEST PUSH1 0x1F DUP3 GT ISZERO PUSH2 0x4258 JUMPI PUSH2 0x4229 DUP2 PUSH2 0x40F8 JUMP JUMPDEST PUSH2 0x4232 DUP5 PUSH2 0x410D JUMP JUMPDEST DUP2 ADD PUSH1 0x20 DUP6 LT ISZERO PUSH2 0x4241 JUMPI DUP2 SWAP1 POP JUMPDEST PUSH2 0x4255 PUSH2 0x424D DUP6 PUSH2 0x410D JUMP JUMPDEST DUP4 ADD DUP3 PUSH2 0x41F4 JUMP JUMPDEST POP POP JUMPDEST POP POP POP JUMP JUMPDEST PUSH1 0x0 DUP3 DUP3 SHR SWAP1 POP SWAP3 SWAP2 POP POP JUMP JUMPDEST PUSH1 0x0 PUSH2 0x427B PUSH1 0x0 NOT DUP5 PUSH1 0x8 MUL PUSH2 0x425D JUMP JUMPDEST NOT DUP1 DUP4 AND SWAP2 POP POP SWAP3 SWAP2 POP POP JUMP JUMPDEST PUSH1 0x0 PUSH2 0x4294 DUP4 DUP4 PUSH2 0x426A JUMP JUMPDEST SWAP2 POP DUP3 PUSH1 0x2 MUL DUP3 OR SWAP1 POP SWAP3 SWAP2 POP POP JUMP JUMPDEST PUSH2 0x42AD DUP3 PUSH2 0x2C61 JUMP JUMPDEST PUSH8 0xFFFFFFFFFFFFFFFF DUP2 GT ISZERO PUSH2 0x42C6 JUMPI PUSH2 0x42C5 PUSH2 0x3291 JUMP JUMPDEST JUMPDEST PUSH2 0x42D0 DUP3 SLOAD PUSH2 0x3598 JUMP JUMPDEST PUSH2 0x42DB DUP3 DUP3 DUP6 PUSH2 0x4217 JUMP JUMPDEST PUSH1 0x0 PUSH1 0x20 SWAP1 POP PUSH1 0x1F DUP4 GT PUSH1 0x1 DUP2 EQ PUSH2 0x430E JUMPI PUSH1 0x0 DUP5 ISZERO PUSH2 0x42FC JUMPI DUP3 DUP8 ADD MLOAD SWAP1 POP JUMPDEST PUSH2 0x4306 DUP6 DUP3 PUSH2 0x4288 JUMP JUMPDEST DUP7 SSTORE POP PUSH2 0x436E JUMP JUMPDEST PUSH1 0x1F NOT DUP5 AND PUSH2 0x431C DUP7 PUSH2 0x40F8 JUMP JUMPDEST PUSH1 0x0 JUMPDEST DUP3 DUP2 LT ISZERO PUSH2 0x4344 JUMPI DUP5 DUP10 ADD MLOAD DUP3 SSTORE PUSH1 0x1 DUP3 ADD SWAP2 POP PUSH1 0x20 DUP6 ADD SWAP5 POP PUSH1 0x20 DUP2 ADD SWAP1 POP PUSH2 0x431F JUMP JUMPDEST DUP7 DUP4 LT ISZERO PUSH2 0x4361 JUMPI DUP5 DUP10 ADD MLOAD PUSH2 0x435D PUSH1 0x1F DUP10 AND DUP3 PUSH2 0x426A JUMP JUMPDEST DUP4 SSTORE POP JUMPDEST PUSH1 0x1 PUSH1 0x2 DUP9 MUL ADD DUP9 SSTORE POP POP POP JUMPDEST POP POP POP POP POP POP JUMP JUMPDEST PUSH1 0x0 DUP2 MLOAD SWAP1 POP SWAP2 SWAP1 POP JUMP JUMPDEST PUSH1 0x0 DUP3 DUP3 MSTORE PUSH1 0x20 DUP3 ADD SWAP1 POP SWAP3 SWAP2 POP POP JUMP JUMPDEST PUSH1 0x0 PUSH2 0x439D DUP3 PUSH2 0x4376 JUMP JUMPDEST PUSH2 0x43A7 DUP2 DUP6 PUSH2 0x4381 JUMP JUMPDEST SWAP4 POP PUSH2 0x43B7 DUP2 DUP6 PUSH1 0x20 DUP7 ADD PUSH2 0x2C7D JUMP JUMPDEST PUSH2 0x43C0 DUP2 PUSH2 0x2CA7 JUMP JUMPDEST DUP5 ADD SWAP2 POP POP SWAP3 SWAP2 POP POP JUMP JUMPDEST PUSH1 0x0 PUSH1 0x80 DUP3 ADD SWAP1 POP PUSH2 0x43E0 PUSH1 0x0 DUP4 ADD DUP8 PUSH2 0x2DA8 JUMP JUMPDEST PUSH2 0x43ED PUSH1 0x20 DUP4 ADD DUP7 PUSH2 0x2DA8 JUMP JUMPDEST PUSH2 0x43FA PUSH1 0x40 DUP4 ADD DUP6 PUSH2 0x315D JUMP JUMPDEST DUP2 DUP2 SUB PUSH1 0x60 DUP4 ADD MSTORE PUSH2 0x440C DUP2 DUP5 PUSH2 0x4392 JUMP JUMPDEST SWAP1 POP SWAP6 SWAP5 POP POP POP POP POP JUMP JUMPDEST PUSH1 0x0 DUP2 MLOAD SWAP1 POP PUSH2 0x4426 DUP2 PUSH2 0x2BD2 JUMP JUMPDEST SWAP3 SWAP2 POP POP JUMP JUMPDEST PUSH1 0x0 PUSH1 0x20 DUP3 DUP5 SUB SLT ISZERO PUSH2 0x4442 JUMPI PUSH2 0x4441 PUSH2 0x2B9C JUMP JUMPDEST JUMPDEST PUSH1 0x0 PUSH2 0x4450 DUP5 DUP3 DUP6 ADD PUSH2 0x4417 JUMP JUMPDEST SWAP2 POP POP SWAP3 SWAP2 POP POP JUMP JUMPDEST PUSH32 0x4E487B7100000000000000000000000000000000000000000000000000000000 PUSH1 0x0 MSTORE PUSH1 0x12 PUSH1 0x4 MSTORE PUSH1 0x24 PUSH1 0x0 REVERT INVALID LOG2 PUSH5 0x6970667358 0x22 SLT KECCAK256 PUSH21 0x985EBA9E457475AA5FCD16E5852025644C55AEECDE LOG4 MUL 0xC8 LOG0 0x25 0xB6 0xD0 PUSH9 0x983364736F6C634300 ADDMOD GT STOP CALLER "},"methodIdentifiers":{"MINTING_PRICE()":"63d9d166","NATIVE_TOKEN()":"31f7d964","approve(address,uint256)":"095ea7b3","balanceOf(address)":"70a08231","bid(uint256,uint256)":"598647f8","buy(uint256)":"d96a094a","closeAuction(uint256,uint256)":"3983a260","getApproved(uint256)":"081812fc","getBids(uint256)":"131d9a27","getMarketItems()":"29aa3a42","isApprovedForAll(address,address)":"e985e9c5","mint(string)":"d85d3d27","name()":"06fdde03","newMarketItem(address,uint256,uint256,uint256)":"b2eae0fd","owner()":"8da5cb5b","ownerOf(uint256)":"6352211e","renounceOwnership()":"715018a6","safeTransferFrom(address,address,uint256)":"42842e0e","safeTransferFrom(address,address,uint256,bytes)":"b88d4fde","setApprovalForAll(address,bool)":"a22cb465","supportsInterface(bytes4)":"01ffc9a7","symbol()":"95d89b41","tokenURI(uint256)":"c87b56dd","transferFrom(address,address,uint256)":"23b872dd","transferOwnership(address)":"f2fde38b"}}}}}