{
  "_format": "hh-sol-artifact-1",
  "contractName": "Collection1",
  "sourceName": "contracts/mock/NFTs.sol",
  "abi": [
    {
      "inputs": [],
      "stateMutability": "nonpayable",
      "type": "constructor"
    },
    {
      "anonymous": false,
      "inputs": [
        {
          "indexed": true,
          "internalType": "address",
          "name": "owner",
          "type": "address"
        },
        {
          "indexed": true,
          "internalType": "address",
          "name": "approved",
          "type": "address"
        },
        {
          "indexed": true,
          "internalType": "uint256",
          "name": "tokenId",
          "type": "uint256"
        }
      ],
      "name": "Approval",
      "type": "event"
    },
    {
      "anonymous": false,
      "inputs": [
        {
          "indexed": true,
          "internalType": "address",
          "name": "owner",
          "type": "address"
        },
        {
          "indexed": true,
          "internalType": "address",
          "name": "operator",
          "type": "address"
        },
        {
          "indexed": false,
          "internalType": "bool",
          "name": "approved",
          "type": "bool"
        }
      ],
      "name": "ApprovalForAll",
      "type": "event"
    },
    {
      "anonymous": false,
      "inputs": [
        {
          "indexed": true,
          "internalType": "address",
          "name": "from",
          "type": "address"
        },
        {
          "indexed": true,
          "internalType": "address",
          "name": "to",
          "type": "address"
        },
        {
          "indexed": true,
          "internalType": "uint256",
          "name": "tokenId",
          "type": "uint256"
        }
      ],
      "name": "Transfer",
      "type": "event"
    },
    {
      "inputs": [
        {
          "internalType": "address",
          "name": "to",
          "type": "address"
        },
        {
          "internalType": "uint256",
          "name": "tokenId",
          "type": "uint256"
        }
      ],
      "name": "approve",
      "outputs": [],
      "stateMutability": "nonpayable",
      "type": "function"
    },
    {
      "inputs": [
        {
          "internalType": "address",
          "name": "owner",
          "type": "address"
        }
      ],
      "name": "balanceOf",
      "outputs": [
        {
          "internalType": "uint256",
          "name": "",
          "type": "uint256"
        }
      ],
      "stateMutability": "view",
      "type": "function"
    },
    {
      "inputs": [],
      "name": "counter",
      "outputs": [
        {
          "internalType": "uint256",
          "name": "",
          "type": "uint256"
        }
      ],
      "stateMutability": "view",
      "type": "function"
    },
    {
      "inputs": [
        {
          "internalType": "uint256",
          "name": "tokenId",
          "type": "uint256"
        }
      ],
      "name": "getApproved",
      "outputs": [
        {
          "internalType": "address",
          "name": "",
          "type": "address"
        }
      ],
      "stateMutability": "view",
      "type": "function"
    },
    {
      "inputs": [
        {
          "internalType": "address",
          "name": "owner",
          "type": "address"
        },
        {
          "internalType": "address",
          "name": "operator",
          "type": "address"
        }
      ],
      "name": "isApprovedForAll",
      "outputs": [
        {
          "internalType": "bool",
          "name": "",
          "type": "bool"
        }
      ],
      "stateMutability": "view",
      "type": "function"
    },
    {
      "inputs": [
        {
          "internalType": "string",
          "name": "uri",
          "type": "string"
        }
      ],
      "name": "mint",
      "outputs": [],
      "stateMutability": "nonpayable",
      "type": "function"
    },
    {
      "inputs": [],
      "name": "name",
      "outputs": [
        {
          "internalType": "string",
          "name": "",
          "type": "string"
        }
      ],
      "stateMutability": "view",
      "type": "function"
    },
    {
      "inputs": [
        {
          "internalType": "uint256",
          "name": "tokenId",
          "type": "uint256"
        }
      ],
      "name": "ownerOf",
      "outputs": [
        {
          "internalType": "address",
          "name": "",
          "type": "address"
        }
      ],
      "stateMutability": "view",
      "type": "function"
    },
    {
      "inputs": [
        {
          "internalType": "address",
          "name": "from",
          "type": "address"
        },
        {
          "internalType": "address",
          "name": "to",
          "type": "address"
        },
        {
          "internalType": "uint256",
          "name": "tokenId",
          "type": "uint256"
        }
      ],
      "name": "safeTransferFrom",
      "outputs": [],
      "stateMutability": "nonpayable",
      "type": "function"
    },
    {
      "inputs": [
        {
          "internalType": "address",
          "name": "from",
          "type": "address"
        },
        {
          "internalType": "address",
          "name": "to",
          "type": "address"
        },
        {
          "internalType": "uint256",
          "name": "tokenId",
          "type": "uint256"
        },
        {
          "internalType": "bytes",
          "name": "data",
          "type": "bytes"
        }
      ],
      "name": "safeTransferFrom",
      "outputs": [],
      "stateMutability": "nonpayable",
      "type": "function"
    },
    {
      "inputs": [
        {
          "internalType": "address",
          "name": "operator",
          "type": "address"
        },
        {
          "internalType": "bool",
          "name": "approved",
          "type": "bool"
        }
      ],
      "name": "setApprovalForAll",
      "outputs": [],
      "stateMutability": "nonpayable",
      "type": "function"
    },
    {
      "inputs": [
        {
          "internalType": "bytes4",
          "name": "interfaceId",
          "type": "bytes4"
        }
      ],
      "name": "supportsInterface",
      "outputs": [
        {
          "internalType": "bool",
          "name": "",
          "type": "bool"
        }
      ],
      "stateMutability": "view",
      "type": "function"
    },
    {
      "inputs": [],
      "name": "symbol",
      "outputs": [
        {
          "internalType": "string",
          "name": "",
          "type": "string"
        }
      ],
      "stateMutability": "view",
      "type": "function"
    },
    {
      "inputs": [
        {
          "internalType": "uint256",
          "name": "tokenId",
          "type": "uint256"
        }
      ],
      "name": "tokenURI",
      "outputs": [
        {
          "internalType": "string",
          "name": "",
          "type": "string"
        }
      ],
      "stateMutability": "view",
      "type": "function"
    },
    {
      "inputs": [
        {
          "internalType": "address",
          "name": "from",
          "type": "address"
        },
        {
          "internalType": "address",
          "name": "to",
          "type": "address"
        },
        {
          "internalType": "uint256",
          "name": "tokenId",
          "type": "uint256"
        }
      ],
      "name": "transferFrom",
      "outputs": [],
      "stateMutability": "nonpayable",
      "type": "function"
    }
  ],
  "bytecode": "0x60806040523480156200001157600080fd5b506040518060400160405280600b81526020017f436f6c6c656374696f6e310000000000000000000000000000000000000000008152506040518060400160405280600281526020017f433100000000000000000000000000000000000000000000000000000000000081525081600090816200008f919062000324565b508060019081620000a1919062000324565b5050506200040b565b600081519050919050565b7f4e487b7100000000000000000000000000000000000000000000000000000000600052604160045260246000fd5b7f4e487b7100000000000000000000000000000000000000000000000000000000600052602260045260246000fd5b600060028204905060018216806200012c57607f821691505b602082108103620001425762000141620000e4565b5b50919050565b60008190508160005260206000209050919050565b60006020601f8301049050919050565b600082821b905092915050565b600060088302620001ac7fffffffffffffffffffffffffffffffffffffffffffffffffffffffffffffffff826200016d565b620001b886836200016d565b95508019841693508086168417925050509392505050565b6000819050919050565b6000819050919050565b600062000205620001ff620001f984620001d0565b620001da565b620001d0565b9050919050565b6000819050919050565b6200022183620001e4565b6200023962000230826200020c565b8484546200017a565b825550505050565b600090565b6200025062000241565b6200025d81848462000216565b505050565b5b8181101562000285576200027960008262000246565b60018101905062000263565b5050565b601f821115620002d4576200029e8162000148565b620002a9846200015d565b81016020851015620002b9578190505b620002d1620002c8856200015d565b83018262000262565b50505b505050565b600082821c905092915050565b6000620002f960001984600802620002d9565b1980831691505092915050565b6000620003148383620002e6565b9150826002028217905092915050565b6200032f82620000aa565b67ffffffffffffffff8111156200034b576200034a620000b5565b5b62000357825462000113565b6200036482828562000289565b600060209050601f8311600181146200039c576000841562000387578287015190505b62000393858262000306565b86555062000403565b601f198416620003ac8662000148565b60005b82811015620003d657848901518255600182019150602085019450602081019050620003af565b86831015620003f65784890151620003f2601f891682620002e6565b8355505b6001600288020188555050505b505050505050565b612a94806200041b6000396000f3fe608060405234801561001057600080fd5b50600436106100f55760003560e01c80636352211e11610097578063b88d4fde11610066578063b88d4fde14610284578063c87b56dd146102a0578063d85d3d27146102d0578063e985e9c5146102ec576100f5565b80636352211e146101ea57806370a082311461021a57806395d89b411461024a578063a22cb46514610268576100f5565b8063095ea7b3116100d3578063095ea7b31461017857806323b872dd1461019457806342842e0e146101b057806361bc221a146101cc576100f5565b806301ffc9a7146100fa57806306fdde031461012a578063081812fc14610148575b600080fd5b610114600480360381019061010f919061191f565b61031c565b6040516101219190611967565b60405180910390f35b6101326103fe565b60405161013f9190611a12565b60405180910390f35b610162600480360381019061015d9190611a6a565b610490565b60405161016f9190611ad8565b60405180910390f35b610192600480360381019061018d9190611b1f565b6104d6565b005b6101ae60048036038101906101a99190611b5f565b6105ed565b005b6101ca60048036038101906101c59190611b5f565b61064d565b005b6101d461066d565b6040516101e19190611bc1565b60405180910390f35b61020460048036038101906101ff9190611a6a565b610673565b6040516102119190611ad8565b60405180910390f35b610234600480360381019061022f9190611bdc565b6106f9565b6040516102419190611bc1565b60405180910390f35b6102526107b0565b60405161025f9190611a12565b60405180910390f35b610282600480360381019061027d9190611c35565b610842565b005b61029e60048036038101906102999190611daa565b610858565b005b6102ba60048036038101906102b59190611a6a565b6108ba565b6040516102c79190611a12565b60405180910390f35b6102ea60048036038101906102e59190611ece565b6109cc565b005b61030660048036038101906103019190611f17565b6109ff565b6040516103139190611967565b60405180910390f35b60007f80ac58cd000000000000000000000000000000000000000000000000000000007bffffffffffffffffffffffffffffffffffffffffffffffffffffffff1916827bffffffffffffffffffffffffffffffffffffffffffffffffffffffff191614806103e757507f5b5e139f000000000000000000000000000000000000000000000000000000007bffffffffffffffffffffffffffffffffffffffffffffffffffffffff1916827bffffffffffffffffffffffffffffffffffffffffffffffffffffffff1916145b806103f757506103f682610a93565b5b9050919050565b60606000805461040d90611f86565b80601f016020809104026020016040519081016040528092919081815260200182805461043990611f86565b80156104865780601f1061045b57610100808354040283529160200191610486565b820191906000526020600020905b81548152906001019060200180831161046957829003601f168201915b5050505050905090565b600061049b82610afd565b6004600083815260200190815260200160002060009054906101000a900473ffffffffffffffffffffffffffffffffffffffff169050919050565b60006104e182610673565b90508073ffffffffffffffffffffffffffffffffffffffff168373ffffffffffffffffffffffffffffffffffffffff1603610551576040517f08c379a000000000000000000000000000000000000000000000000000000000815260040161054890612029565b60405180910390fd5b8073ffffffffffffffffffffffffffffffffffffffff16610570610b48565b73ffffffffffffffffffffffffffffffffffffffff16148061059f575061059e81610599610b48565b6109ff565b5b6105de576040517f08c379a00000000000000000000000000000000000000000000000000000000081526004016105d5906120bb565b60405180910390fd5b6105e88383610b50565b505050565b6105fe6105f8610b48565b82610c09565b61063d576040517f08c379a00000000000000000000000000000000000000000000000000000000081526004016106349061214d565b60405180910390fd5b610648838383610c9e565b505050565b61066883838360405180602001604052806000815250610858565b505050565b60075481565b60008061067f83610f93565b9050600073ffffffffffffffffffffffffffffffffffffffff168173ffffffffffffffffffffffffffffffffffffffff16036106f0576040517f08c379a00000000000000000000000000000000000000000000000000000000081526004016106e7906121b9565b60405180910390fd5b80915050919050565b60008073ffffffffffffffffffffffffffffffffffffffff168273ffffffffffffffffffffffffffffffffffffffff1603610769576040517f08c379a00000000000000000000000000000000000000000000000000000000081526004016107609061224b565b60405180910390fd5b600360008373ffffffffffffffffffffffffffffffffffffffff1673ffffffffffffffffffffffffffffffffffffffff168152602001908152602001600020549050919050565b6060600180546107bf90611f86565b80601f01602080910402602001604051908101604052809291908181526020018280546107eb90611f86565b80156108385780601f1061080d57610100808354040283529160200191610838565b820191906000526020600020905b81548152906001019060200180831161081b57829003601f168201915b5050505050905090565b61085461084d610b48565b8383610fd0565b5050565b610869610863610b48565b83610c09565b6108a8576040517f08c379a000000000000000000000000000000000000000000000000000000000815260040161089f9061214d565b60405180910390fd5b6108b48484848461113c565b50505050565b60606108c582610afd565b60006006600084815260200190815260200160002080546108e590611f86565b80601f016020809104026020016040519081016040528092919081815260200182805461091190611f86565b801561095e5780601f106109335761010080835404028352916020019161095e565b820191906000526020600020905b81548152906001019060200180831161094157829003601f168201915b50505050509050600061096f611198565b905060008151036109845781925050506109c7565b6000825111156109b95780826040516020016109a19291906122a7565b604051602081830303815290604052925050506109c7565b6109c2846111af565b925050505b919050565b600760008154809291906109df906122fa565b91905055506109f033600754611217565b6109fc60075482611430565b50565b6000600560008473ffffffffffffffffffffffffffffffffffffffff1673ffffffffffffffffffffffffffffffffffffffff16815260200190815260200160002060008373ffffffffffffffffffffffffffffffffffffffff1673ffffffffffffffffffffffffffffffffffffffff16815260200190815260200160002060009054906101000a900460ff16905092915050565b60007f01ffc9a7000000000000000000000000000000000000000000000000000000007bffffffffffffffffffffffffffffffffffffffffffffffffffffffff1916827bffffffffffffffffffffffffffffffffffffffffffffffffffffffff1916149050919050565b610b068161149d565b610b45576040517f08c379a0000000000000000000000000000000000000000000000000000000008152600401610b3c906121b9565b60405180910390fd5b50565b600033905090565b816004600083815260200190815260200160002060006101000a81548173ffffffffffffffffffffffffffffffffffffffff021916908373ffffffffffffffffffffffffffffffffffffffff160217905550808273ffffffffffffffffffffffffffffffffffffffff16610bc383610673565b73ffffffffffffffffffffffffffffffffffffffff167f8c5be1e5ebec7d5bd14f71427d1e84f3dd0314c0f7b2291e5b200ac8c7c3b92560405160405180910390a45050565b600080610c1583610673565b90508073ffffffffffffffffffffffffffffffffffffffff168473ffffffffffffffffffffffffffffffffffffffff161480610c575750610c5681856109ff565b5b80610c9557508373ffffffffffffffffffffffffffffffffffffffff16610c7d84610490565b73ffffffffffffffffffffffffffffffffffffffff16145b91505092915050565b8273ffffffffffffffffffffffffffffffffffffffff16610cbe82610673565b73ffffffffffffffffffffffffffffffffffffffff1614610d14576040517f08c379a0000000000000000000000000000000000000000000000000000000008152600401610d0b906123b4565b60405180910390fd5b600073ffffffffffffffffffffffffffffffffffffffff168273ffffffffffffffffffffffffffffffffffffffff1603610d83576040517f08c379a0000000000000000000000000000000000000000000000000000000008152600401610d7a90612446565b60405180910390fd5b610d8e8383836114de565b8273ffffffffffffffffffffffffffffffffffffffff16610dae82610673565b73ffffffffffffffffffffffffffffffffffffffff1614610e04576040517f08c379a0000000000000000000000000000000000000000000000000000000008152600401610dfb906123b4565b60405180910390fd5b6004600082815260200190815260200160002060006101000a81549073ffffffffffffffffffffffffffffffffffffffff02191690556001600360008573ffffffffffffffffffffffffffffffffffffffff1673ffffffffffffffffffffffffffffffffffffffff168152602001908152602001600020600082825403925050819055506001600360008473ffffffffffffffffffffffffffffffffffffffff1673ffffffffffffffffffffffffffffffffffffffff16815260200190815260200160002060008282540192505081905550816002600083815260200190815260200160002060006101000a81548173ffffffffffffffffffffffffffffffffffffffff021916908373ffffffffffffffffffffffffffffffffffffffff160217905550808273ffffffffffffffffffffffffffffffffffffffff168473ffffffffffffffffffffffffffffffffffffffff167fddf252ad1be2c89b69c2b068fc378daa952ba7f163c4a11628f55a4df523b3ef60405160405180910390a4610f8e8383836114e3565b505050565b60006002600083815260200190815260200160002060009054906101000a900473ffffffffffffffffffffffffffffffffffffffff169050919050565b8173ffffffffffffffffffffffffffffffffffffffff168373ffffffffffffffffffffffffffffffffffffffff160361103e576040517f08c379a0000000000000000000000000000000000000000000000000000000008152600401611035906124b2565b60405180910390fd5b80600560008573ffffffffffffffffffffffffffffffffffffffff1673ffffffffffffffffffffffffffffffffffffffff16815260200190815260200160002060008473ffffffffffffffffffffffffffffffffffffffff1673ffffffffffffffffffffffffffffffffffffffff16815260200190815260200160002060006101000a81548160ff0219169083151502179055508173ffffffffffffffffffffffffffffffffffffffff168373ffffffffffffffffffffffffffffffffffffffff167f17307eab39ab6107e8899845ad3d59bd9653f200f220920489ca2b5937696c318360405161112f9190611967565b60405180910390a3505050565b611147848484610c9e565b611153848484846114e8565b611192576040517f08c379a000000000000000000000000000000000000000000000000000000000815260040161118990612544565b60405180910390fd5b50505050565b606060405180602001604052806000815250905090565b60606111ba82610afd565b60006111c4611198565b905060008151116111e4576040518060200160405280600081525061120f565b806111ee8461166f565b6040516020016111ff9291906122a7565b6040516020818303038152906040525b915050919050565b600073ffffffffffffffffffffffffffffffffffffffff168273ffffffffffffffffffffffffffffffffffffffff1603611286576040517f08c379a000000000000000000000000000000000000000000000000000000000815260040161127d906125b0565b60405180910390fd5b61128f8161149d565b156112cf576040517f08c379a00000000000000000000000000000000000000000000000000000000081526004016112c69061261c565b60405180910390fd5b6112db600083836114de565b6112e48161149d565b15611324576040517f08c379a000000000000000000000000000000000000000000000000000000000815260040161131b9061261c565b60405180910390fd5b6001600360008473ffffffffffffffffffffffffffffffffffffffff1673ffffffffffffffffffffffffffffffffffffffff16815260200190815260200160002060008282540192505081905550816002600083815260200190815260200160002060006101000a81548173ffffffffffffffffffffffffffffffffffffffff021916908373ffffffffffffffffffffffffffffffffffffffff160217905550808273ffffffffffffffffffffffffffffffffffffffff16600073ffffffffffffffffffffffffffffffffffffffff167fddf252ad1be2c89b69c2b068fc378daa952ba7f163c4a11628f55a4df523b3ef60405160405180910390a461142c600083836114e3565b5050565b6114398261149d565b611478576040517f08c379a000000000000000000000000000000000000000000000000000000000815260040161146f906126ae565b60405180910390fd5b80600660008481526020019081526020016000209081611498919061287a565b505050565b60008073ffffffffffffffffffffffffffffffffffffffff166114bf83610f93565b73ffffffffffffffffffffffffffffffffffffffff1614159050919050565b505050565b505050565b60006115098473ffffffffffffffffffffffffffffffffffffffff1661173d565b15611662578373ffffffffffffffffffffffffffffffffffffffff1663150b7a02611532610b48565b8786866040518563ffffffff1660e01b815260040161155494939291906129a1565b6020604051808303816000875af192505050801561159057506040513d601f19601f8201168201806040525081019061158d9190612a02565b60015b611612573d80600081146115c0576040519150601f19603f3d011682016040523d82523d6000602084013e6115c5565b606091505b50600081510361160a576040517f08c379a000000000000000000000000000000000000000000000000000000000815260040161160190612544565b60405180910390fd5b805181602001fd5b63150b7a0260e01b7bffffffffffffffffffffffffffffffffffffffffffffffffffffffff1916817bffffffffffffffffffffffffffffffffffffffffffffffffffffffff191614915050611667565b600190505b949350505050565b60606000600161167e84611760565b01905060008167ffffffffffffffff81111561169d5761169c611c7f565b5b6040519080825280601f01601f1916602001820160405280156116cf5781602001600182028036833780820191505090505b509050600082602001820190505b600115611732578080600190039150507f3031323334353637383961626364656600000000000000000000000000000000600a86061a8153600a858161172657611725612a2f565b5b049450600085036116dd575b819350505050919050565b6000808273ffffffffffffffffffffffffffffffffffffffff163b119050919050565b600080600090507a184f03e93ff9f4daa797ed6e38ed64bf6a1f01000000000000000083106117be577a184f03e93ff9f4daa797ed6e38ed64bf6a1f01000000000000000083816117b4576117b3612a2f565b5b0492506040810190505b6d04ee2d6d415b85acef810000000083106117fb576d04ee2d6d415b85acef810000000083816117f1576117f0612a2f565b5b0492506020810190505b662386f26fc10000831061182a57662386f26fc1000083816118205761181f612a2f565b5b0492506010810190505b6305f5e1008310611853576305f5e100838161184957611848612a2f565b5b0492506008810190505b612710831061187857612710838161186e5761186d612a2f565b5b0492506004810190505b6064831061189b576064838161189157611890612a2f565b5b0492506002810190505b600a83106118aa576001810190505b80915050919050565b6000604051905090565b600080fd5b600080fd5b60007fffffffff0000000000000000000000000000000000000000000000000000000082169050919050565b6118fc816118c7565b811461190757600080fd5b50565b600081359050611919816118f3565b92915050565b600060208284031215611935576119346118bd565b5b60006119438482850161190a565b91505092915050565b60008115159050919050565b6119618161194c565b82525050565b600060208201905061197c6000830184611958565b92915050565b600081519050919050565b600082825260208201905092915050565b60005b838110156119bc5780820151818401526020810190506119a1565b60008484015250505050565b6000601f19601f8301169050919050565b60006119e482611982565b6119ee818561198d565b93506119fe81856020860161199e565b611a07816119c8565b840191505092915050565b60006020820190508181036000830152611a2c81846119d9565b905092915050565b6000819050919050565b611a4781611a34565b8114611a5257600080fd5b50565b600081359050611a6481611a3e565b92915050565b600060208284031215611a8057611a7f6118bd565b5b6000611a8e84828501611a55565b91505092915050565b600073ffffffffffffffffffffffffffffffffffffffff82169050919050565b6000611ac282611a97565b9050919050565b611ad281611ab7565b82525050565b6000602082019050611aed6000830184611ac9565b92915050565b611afc81611ab7565b8114611b0757600080fd5b50565b600081359050611b1981611af3565b92915050565b60008060408385031215611b3657611b356118bd565b5b6000611b4485828601611b0a565b9250506020611b5585828601611a55565b9150509250929050565b600080600060608486031215611b7857611b776118bd565b5b6000611b8686828701611b0a565b9350506020611b9786828701611b0a565b9250506040611ba886828701611a55565b9150509250925092565b611bbb81611a34565b82525050565b6000602082019050611bd66000830184611bb2565b92915050565b600060208284031215611bf257611bf16118bd565b5b6000611c0084828501611b0a565b91505092915050565b611c128161194c565b8114611c1d57600080fd5b50565b600081359050611c2f81611c09565b92915050565b60008060408385031215611c4c57611c4b6118bd565b5b6000611c5a85828601611b0a565b9250506020611c6b85828601611c20565b9150509250929050565b600080fd5b600080fd5b7f4e487b7100000000000000000000000000000000000000000000000000000000600052604160045260246000fd5b611cb7826119c8565b810181811067ffffffffffffffff82111715611cd657611cd5611c7f565b5b80604052505050565b6000611ce96118b3565b9050611cf58282611cae565b919050565b600067ffffffffffffffff821115611d1557611d14611c7f565b5b611d1e826119c8565b9050602081019050919050565b82818337600083830152505050565b6000611d4d611d4884611cfa565b611cdf565b905082815260208101848484011115611d6957611d68611c7a565b5b611d74848285611d2b565b509392505050565b600082601f830112611d9157611d90611c75565b5b8135611da1848260208601611d3a565b91505092915050565b60008060008060808587031215611dc457611dc36118bd565b5b6000611dd287828801611b0a565b9450506020611de387828801611b0a565b9350506040611df487828801611a55565b925050606085013567ffffffffffffffff811115611e1557611e146118c2565b5b611e2187828801611d7c565b91505092959194509250565b600067ffffffffffffffff821115611e4857611e47611c7f565b5b611e51826119c8565b9050602081019050919050565b6000611e71611e6c84611e2d565b611cdf565b905082815260208101848484011115611e8d57611e8c611c7a565b5b611e98848285611d2b565b509392505050565b600082601f830112611eb557611eb4611c75565b5b8135611ec5848260208601611e5e565b91505092915050565b600060208284031215611ee457611ee36118bd565b5b600082013567ffffffffffffffff811115611f0257611f016118c2565b5b611f0e84828501611ea0565b91505092915050565b60008060408385031215611f2e57611f2d6118bd565b5b6000611f3c85828601611b0a565b9250506020611f4d85828601611b0a565b9150509250929050565b7f4e487b7100000000000000000000000000000000000000000000000000000000600052602260045260246000fd5b60006002820490506001821680611f9e57607f821691505b602082108103611fb157611fb0611f57565b5b50919050565b7f4552433732313a20617070726f76616c20746f2063757272656e74206f776e6560008201527f7200000000000000000000000000000000000000000000000000000000000000602082015250565b600061201360218361198d565b915061201e82611fb7565b604082019050919050565b6000602082019050818103600083015261204281612006565b9050919050565b7f4552433732313a20617070726f76652063616c6c6572206973206e6f7420746f60008201527f6b656e206f776e6572206f7220617070726f76656420666f7220616c6c000000602082015250565b60006120a5603d8361198d565b91506120b082612049565b604082019050919050565b600060208201905081810360008301526120d481612098565b9050919050565b7f4552433732313a2063616c6c6572206973206e6f7420746f6b656e206f776e6560008201527f72206f7220617070726f76656400000000000000000000000000000000000000602082015250565b6000612137602d8361198d565b9150612142826120db565b604082019050919050565b600060208201905081810360008301526121668161212a565b9050919050565b7f4552433732313a20696e76616c696420746f6b656e2049440000000000000000600082015250565b60006121a360188361198d565b91506121ae8261216d565b602082019050919050565b600060208201905081810360008301526121d281612196565b9050919050565b7f4552433732313a2061646472657373207a65726f206973206e6f74206120766160008201527f6c6964206f776e65720000000000000000000000000000000000000000000000602082015250565b600061223560298361198d565b9150612240826121d9565b604082019050919050565b6000602082019050818103600083015261226481612228565b9050919050565b600081905092915050565b600061228182611982565b61228b818561226b565b935061229b81856020860161199e565b80840191505092915050565b60006122b38285612276565b91506122bf8284612276565b91508190509392505050565b7f4e487b7100000000000000000000000000000000000000000000000000000000600052601160045260246000fd5b600061230582611a34565b91507fffffffffffffffffffffffffffffffffffffffffffffffffffffffffffffffff8203612337576123366122cb565b5b600182019050919050565b7f4552433732313a207472616e736665722066726f6d20696e636f72726563742060008201527f6f776e6572000000000000000000000000000000000000000000000000000000602082015250565b600061239e60258361198d565b91506123a982612342565b604082019050919050565b600060208201905081810360008301526123cd81612391565b9050919050565b7f4552433732313a207472616e7366657220746f20746865207a65726f2061646460008201527f7265737300000000000000000000000000000000000000000000000000000000602082015250565b600061243060248361198d565b915061243b826123d4565b604082019050919050565b6000602082019050818103600083015261245f81612423565b9050919050565b7f4552433732313a20617070726f766520746f2063616c6c657200000000000000600082015250565b600061249c60198361198d565b91506124a782612466565b602082019050919050565b600060208201905081810360008301526124cb8161248f565b9050919050565b7f4552433732313a207472616e7366657220746f206e6f6e20455243373231526560008201527f63656976657220696d706c656d656e7465720000000000000000000000000000602082015250565b600061252e60328361198d565b9150612539826124d2565b604082019050919050565b6000602082019050818103600083015261255d81612521565b9050919050565b7f4552433732313a206d696e7420746f20746865207a65726f2061646472657373600082015250565b600061259a60208361198d565b91506125a582612564565b602082019050919050565b600060208201905081810360008301526125c98161258d565b9050919050565b7f4552433732313a20746f6b656e20616c7265616479206d696e74656400000000600082015250565b6000612606601c8361198d565b9150612611826125d0565b602082019050919050565b60006020820190508181036000830152612635816125f9565b9050919050565b7f45524337323155524953746f726167653a2055524920736574206f66206e6f6e60008201527f6578697374656e7420746f6b656e000000000000000000000000000000000000602082015250565b6000612698602e8361198d565b91506126a38261263c565b604082019050919050565b600060208201905081810360008301526126c78161268b565b9050919050565b60008190508160005260206000209050919050565b60006020601f8301049050919050565b600082821b905092915050565b6000600883026127307fffffffffffffffffffffffffffffffffffffffffffffffffffffffffffffffff826126f3565b61273a86836126f3565b95508019841693508086168417925050509392505050565b6000819050919050565b600061277761277261276d84611a34565b612752565b611a34565b9050919050565b6000819050919050565b6127918361275c565b6127a561279d8261277e565b848454612700565b825550505050565b600090565b6127ba6127ad565b6127c5818484612788565b505050565b5b818110156127e9576127de6000826127b2565b6001810190506127cb565b5050565b601f82111561282e576127ff816126ce565b612808846126e3565b81016020851015612817578190505b61282b612823856126e3565b8301826127ca565b50505b505050565b600082821c905092915050565b600061285160001984600802612833565b1980831691505092915050565b600061286a8383612840565b9150826002028217905092915050565b61288382611982565b67ffffffffffffffff81111561289c5761289b611c7f565b5b6128a68254611f86565b6128b18282856127ed565b600060209050601f8311600181146128e457600084156128d2578287015190505b6128dc858261285e565b865550612944565b601f1984166128f2866126ce565b60005b8281101561291a578489015182556001820191506020850194506020810190506128f5565b868310156129375784890151612933601f891682612840565b8355505b6001600288020188555050505b505050505050565b600081519050919050565b600082825260208201905092915050565b60006129738261294c565b61297d8185612957565b935061298d81856020860161199e565b612996816119c8565b840191505092915050565b60006080820190506129b66000830187611ac9565b6129c36020830186611ac9565b6129d06040830185611bb2565b81810360608301526129e28184612968565b905095945050505050565b6000815190506129fc816118f3565b92915050565b600060208284031215612a1857612a176118bd565b5b6000612a26848285016129ed565b91505092915050565b7f4e487b7100000000000000000000000000000000000000000000000000000000600052601260045260246000fdfea2646970667358221220ef25dd33577f4b458b6ffd068fcf8a070810e6c916efc0967abb6d3574b8fba864736f6c63430008110033",
  "linkReferences": {},
  "deployedLinkReferences": {}
}